{
	"contracts/GunzoZuYukiKoyano.sol": {
		"GunzoZuYukiKoyano": {
			"abi": [
				{
					"inputs": [
						{
							"internalType": "string",
							"name": "_name",
							"type": "string"
						},
						{
							"internalType": "string",
							"name": "_symbol",
							"type": "string"
						},
						{
							"internalType": "string",
							"name": "_initBaseURI",
							"type": "string"
						}
					],
					"stateMutability": "nonpayable",
					"type": "constructor"
				},
				{
					"anonymous": false,
					"inputs": [
						{
							"indexed": true,
							"internalType": "address",
							"name": "owner",
							"type": "address"
						},
						{
							"indexed": true,
							"internalType": "address",
							"name": "approved",
							"type": "address"
						},
						{
							"indexed": true,
							"internalType": "uint256",
							"name": "tokenId",
							"type": "uint256"
						}
					],
					"name": "Approval",
					"type": "event"
				},
				{
					"anonymous": false,
					"inputs": [
						{
							"indexed": true,
							"internalType": "address",
							"name": "owner",
							"type": "address"
						},
						{
							"indexed": true,
							"internalType": "address",
							"name": "operator",
							"type": "address"
						},
						{
							"indexed": false,
							"internalType": "bool",
							"name": "approved",
							"type": "bool"
						}
					],
					"name": "ApprovalForAll",
					"type": "event"
				},
				{
					"anonymous": false,
					"inputs": [
						{
							"indexed": true,
							"internalType": "address",
							"name": "previousOwner",
							"type": "address"
						},
						{
							"indexed": true,
							"internalType": "address",
							"name": "newOwner",
							"type": "address"
						}
					],
					"name": "OwnershipTransferred",
					"type": "event"
				},
				{
					"anonymous": false,
					"inputs": [
						{
							"indexed": true,
							"internalType": "address",
							"name": "from",
							"type": "address"
						},
						{
							"indexed": true,
							"internalType": "address",
							"name": "to",
							"type": "address"
						},
						{
							"indexed": true,
							"internalType": "uint256",
							"name": "tokenId",
							"type": "uint256"
						}
					],
					"name": "Transfer",
					"type": "event"
				},
				{
					"inputs": [
						{
							"internalType": "address",
							"name": "to",
							"type": "address"
						},
						{
							"internalType": "uint256",
							"name": "tokenId",
							"type": "uint256"
						}
					],
					"name": "approve",
					"outputs": [],
					"stateMutability": "nonpayable",
					"type": "function"
				},
				{
					"inputs": [
						{
							"internalType": "address",
							"name": "owner",
							"type": "address"
						}
					],
					"name": "balanceOf",
					"outputs": [
						{
							"internalType": "uint256",
							"name": "",
							"type": "uint256"
						}
					],
					"stateMutability": "view",
					"type": "function"
				},
				{
					"inputs": [],
					"name": "baseExtension",
					"outputs": [
						{
							"internalType": "string",
							"name": "",
							"type": "string"
						}
					],
					"stateMutability": "view",
					"type": "function"
				},
				{
					"inputs": [],
					"name": "cost",
					"outputs": [
						{
							"internalType": "uint256",
							"name": "",
							"type": "uint256"
						}
					],
					"stateMutability": "view",
					"type": "function"
				},
				{
					"inputs": [
						{
							"internalType": "uint256",
							"name": "tokenId",
							"type": "uint256"
						}
					],
					"name": "getApproved",
					"outputs": [
						{
							"internalType": "address",
							"name": "",
							"type": "address"
						}
					],
					"stateMutability": "view",
					"type": "function"
				},
				{
					"inputs": [
						{
							"internalType": "address",
							"name": "owner",
							"type": "address"
						},
						{
							"internalType": "address",
							"name": "operator",
							"type": "address"
						}
					],
					"name": "isApprovedForAll",
					"outputs": [
						{
							"internalType": "bool",
							"name": "",
							"type": "bool"
						}
					],
					"stateMutability": "view",
					"type": "function"
				},
				{
					"inputs": [],
					"name": "maxMintAmount",
					"outputs": [
						{
							"internalType": "uint256",
							"name": "",
							"type": "uint256"
						}
					],
					"stateMutability": "view",
					"type": "function"
				},
				{
					"inputs": [],
					"name": "maxSupply",
					"outputs": [
						{
							"internalType": "uint256",
							"name": "",
							"type": "uint256"
						}
					],
					"stateMutability": "view",
					"type": "function"
				},
				{
					"inputs": [
						{
							"internalType": "uint256",
							"name": "_mintAmount",
							"type": "uint256"
						}
					],
					"name": "mint",
					"outputs": [],
					"stateMutability": "payable",
					"type": "function"
				},
				{
					"inputs": [],
					"name": "name",
					"outputs": [
						{
							"internalType": "string",
							"name": "",
							"type": "string"
						}
					],
					"stateMutability": "view",
					"type": "function"
				},
				{
					"inputs": [],
					"name": "owner",
					"outputs": [
						{
							"internalType": "address",
							"name": "",
							"type": "address"
						}
					],
					"stateMutability": "view",
					"type": "function"
				},
				{
					"inputs": [
						{
							"internalType": "uint256",
							"name": "tokenId",
							"type": "uint256"
						}
					],
					"name": "ownerOf",
					"outputs": [
						{
							"internalType": "address",
							"name": "",
							"type": "address"
						}
					],
					"stateMutability": "view",
					"type": "function"
				},
				{
					"inputs": [
						{
							"internalType": "bool",
							"name": "_state",
							"type": "bool"
						}
					],
					"name": "pause",
					"outputs": [],
					"stateMutability": "nonpayable",
					"type": "function"
				},
				{
					"inputs": [],
					"name": "paused",
					"outputs": [
						{
							"internalType": "bool",
							"name": "",
							"type": "bool"
						}
					],
					"stateMutability": "view",
					"type": "function"
				},
				{
					"inputs": [],
					"name": "renounceOwnership",
					"outputs": [],
					"stateMutability": "nonpayable",
					"type": "function"
				},
				{
					"inputs": [],
					"name": "reveal",
					"outputs": [],
					"stateMutability": "nonpayable",
					"type": "function"
				},
				{
					"inputs": [],
					"name": "revealed",
					"outputs": [
						{
							"internalType": "bool",
							"name": "",
							"type": "bool"
						}
					],
					"stateMutability": "view",
					"type": "function"
				},
				{
					"inputs": [
						{
							"internalType": "address",
							"name": "from",
							"type": "address"
						},
						{
							"internalType": "address",
							"name": "to",
							"type": "address"
						},
						{
							"internalType": "uint256",
							"name": "tokenId",
							"type": "uint256"
						}
					],
					"name": "safeTransferFrom",
					"outputs": [],
					"stateMutability": "nonpayable",
					"type": "function"
				},
				{
					"inputs": [
						{
							"internalType": "address",
							"name": "from",
							"type": "address"
						},
						{
							"internalType": "address",
							"name": "to",
							"type": "address"
						},
						{
							"internalType": "uint256",
							"name": "tokenId",
							"type": "uint256"
						},
						{
							"internalType": "bytes",
							"name": "_data",
							"type": "bytes"
						}
					],
					"name": "safeTransferFrom",
					"outputs": [],
					"stateMutability": "nonpayable",
					"type": "function"
				},
				{
					"inputs": [
						{
							"internalType": "address",
							"name": "operator",
							"type": "address"
						},
						{
							"internalType": "bool",
							"name": "approved",
							"type": "bool"
						}
					],
					"name": "setApprovalForAll",
					"outputs": [],
					"stateMutability": "nonpayable",
					"type": "function"
				},
				{
					"inputs": [
						{
							"internalType": "string",
							"name": "_newBaseExtension",
							"type": "string"
						}
					],
					"name": "setBaseExtension",
					"outputs": [],
					"stateMutability": "nonpayable",
					"type": "function"
				},
				{
					"inputs": [
						{
							"internalType": "string",
							"name": "_newBaseURI",
							"type": "string"
						}
					],
					"name": "setBaseURI",
					"outputs": [],
					"stateMutability": "nonpayable",
					"type": "function"
				},
				{
					"inputs": [
						{
							"internalType": "uint256",
							"name": "_newCost",
							"type": "uint256"
						}
					],
					"name": "setCost",
					"outputs": [],
					"stateMutability": "nonpayable",
					"type": "function"
				},
				{
					"inputs": [
						{
							"internalType": "uint256",
							"name": "_newmaxMintAmount",
							"type": "uint256"
						}
					],
					"name": "setmaxMintAmount",
					"outputs": [],
					"stateMutability": "nonpayable",
					"type": "function"
				},
				{
					"inputs": [
						{
							"internalType": "bytes4",
							"name": "interfaceId",
							"type": "bytes4"
						}
					],
					"name": "supportsInterface",
					"outputs": [
						{
							"internalType": "bool",
							"name": "",
							"type": "bool"
						}
					],
					"stateMutability": "view",
					"type": "function"
				},
				{
					"inputs": [],
					"name": "symbol",
					"outputs": [
						{
							"internalType": "string",
							"name": "",
							"type": "string"
						}
					],
					"stateMutability": "view",
					"type": "function"
				},
				{
					"inputs": [
						{
							"internalType": "uint256",
							"name": "index",
							"type": "uint256"
						}
					],
					"name": "tokenByIndex",
					"outputs": [
						{
							"internalType": "uint256",
							"name": "",
							"type": "uint256"
						}
					],
					"stateMutability": "view",
					"type": "function"
				},
				{
					"inputs": [
						{
							"internalType": "address",
							"name": "owner",
							"type": "address"
						},
						{
							"internalType": "uint256",
							"name": "index",
							"type": "uint256"
						}
					],
					"name": "tokenOfOwnerByIndex",
					"outputs": [
						{
							"internalType": "uint256",
							"name": "",
							"type": "uint256"
						}
					],
					"stateMutability": "view",
					"type": "function"
				},
				{
					"inputs": [
						{
							"internalType": "uint256",
							"name": "tokenId",
							"type": "uint256"
						}
					],
					"name": "tokenURI",
					"outputs": [
						{
							"internalType": "string",
							"name": "",
							"type": "string"
						}
					],
					"stateMutability": "view",
					"type": "function"
				},
				{
					"inputs": [],
					"name": "totalSupply",
					"outputs": [
						{
							"internalType": "uint256",
							"name": "",
							"type": "uint256"
						}
					],
					"stateMutability": "view",
					"type": "function"
				},
				{
					"inputs": [
						{
							"internalType": "address",
							"name": "from",
							"type": "address"
						},
						{
							"internalType": "address",
							"name": "to",
							"type": "address"
						},
						{
							"internalType": "uint256",
							"name": "tokenId",
							"type": "uint256"
						}
					],
					"name": "transferFrom",
					"outputs": [],
					"stateMutability": "nonpayable",
					"type": "function"
				},
				{
					"inputs": [
						{
							"internalType": "address",
							"name": "newOwner",
							"type": "address"
						}
					],
					"name": "transferOwnership",
					"outputs": [],
					"stateMutability": "nonpayable",
					"type": "function"
				},
				{
					"inputs": [
						{
							"internalType": "address",
							"name": "_owner",
							"type": "address"
						}
					],
					"name": "walletOfOwner",
					"outputs": [
						{
							"internalType": "uint256[]",
							"name": "",
							"type": "uint256[]"
						}
					],
					"stateMutability": "view",
					"type": "function"
				},
				{
					"inputs": [],
					"name": "withdraw",
					"outputs": [],
					"stateMutability": "payable",
					"type": "function"
				}
			],
			"devdoc": {
				"kind": "dev",
				"methods": {
					"approve(address,uint256)": {
						"details": "See {IERC721-approve}."
					},
					"balanceOf(address)": {
						"details": "See {IERC721-balanceOf}."
					},
					"getApproved(uint256)": {
						"details": "See {IERC721-getApproved}."
					},
					"isApprovedForAll(address,address)": {
						"details": "See {IERC721-isApprovedForAll}."
					},
					"name()": {
						"details": "See {IERC721Metadata-name}."
					},
					"owner()": {
						"details": "Returns the address of the current owner."
					},
					"ownerOf(uint256)": {
						"details": "See {IERC721-ownerOf}."
					},
					"renounceOwnership()": {
						"details": "Leaves the contract without owner. It will not be possible to call `onlyOwner` functions anymore. Can only be called by the current owner. NOTE: Renouncing ownership will leave the contract without an owner, thereby removing any functionality that is only available to the owner."
					},
					"safeTransferFrom(address,address,uint256)": {
						"details": "See {IERC721-safeTransferFrom}."
					},
					"safeTransferFrom(address,address,uint256,bytes)": {
						"details": "See {IERC721-safeTransferFrom}."
					},
					"setApprovalForAll(address,bool)": {
						"details": "See {IERC721-setApprovalForAll}."
					},
					"supportsInterface(bytes4)": {
						"details": "See {IERC165-supportsInterface}."
					},
					"symbol()": {
						"details": "See {IERC721Metadata-symbol}."
					},
					"tokenByIndex(uint256)": {
						"details": "See {IERC721Enumerable-tokenByIndex}."
					},
					"tokenOfOwnerByIndex(address,uint256)": {
						"details": "See {IERC721Enumerable-tokenOfOwnerByIndex}."
					},
					"tokenURI(uint256)": {
						"details": "See {IERC721Metadata-tokenURI}."
					},
					"totalSupply()": {
						"details": "See {IERC721Enumerable-totalSupply}."
					},
					"transferFrom(address,address,uint256)": {
						"details": "See {IERC721-transferFrom}."
					},
					"transferOwnership(address)": {
						"details": "Transfers ownership of the contract to a new account (`newOwner`). Can only be called by the current owner."
					}
				},
				"version": 1
			},
			"evm": {
				"assembly": "    /* \"contracts/GunzoZuYukiKoyano.sol\":42636:42673  string public baseExtension = \".json\" */\n  0xc0\n    /* \"contracts/GunzoZuYukiKoyano.sol\":42528:45634  contract GunzoZuYukiKoyano is ERC721Enumerable, Ownable {... */\n  0x40\n    /* \"contracts/GunzoZuYukiKoyano.sol\":42636:42673  string public baseExtension = \".json\" */\n  mstore\n  0x05\n    /* \"contracts/GunzoZuYukiKoyano.sol\":42528:45634  contract GunzoZuYukiKoyano is ERC721Enumerable, Ownable {... */\n  0x80\n    /* \"contracts/GunzoZuYukiKoyano.sol\":42636:42673  string public baseExtension = \".json\" */\n  dup2\n  swap1\n  mstore\n  shl(0xd9, 0x173539b7b7)\n  0xa0\n  swap1\n  dup2\n  mstore\n  tag_1\n  swap2\n  0x0c\n  swap2\n  swap1\n  tag_2\n  jump\t// in\ntag_1:\n  pop\n    /* \"contracts/GunzoZuYukiKoyano.sol\":42699:42708  100 ether */\n  0x056bc75e2d63100000\n    /* \"contracts/GunzoZuYukiKoyano.sol\":42677:42708  uint256 public cost = 100 ether */\n  0x0d\n  sstore\n    /* \"contracts/GunzoZuYukiKoyano.sol\":42739:42742  888 */\n  0x0378\n    /* \"contracts/GunzoZuYukiKoyano.sol\":42712:42742  uint256 public maxSupply = 888 */\n  0x0e\n  dup2\n  swap1\n  sstore\n    /* \"contracts/GunzoZuYukiKoyano.sol\":42746:42780  uint256 public maxMintAmount = 888 */\n  0x0f\n  sstore\n    /* \"contracts/GunzoZuYukiKoyano.sol\":42784:42810  bool public paused = false */\n  0x10\n  dup1\n  sload\n  not(0xffff)\n    /* \"contracts/GunzoZuYukiKoyano.sol\":42814:42842  bool public revealed = false */\n  and\n  swap1\n  sstore\n    /* \"contracts/GunzoZuYukiKoyano.sol\":42882:43128  constructor(... */\n  callvalue\n  dup1\n  iszero\n  tag_3\n  jumpi\n  0x00\n  dup1\n  revert\ntag_3:\n  pop\n  mload(0x40)\n  sub(codesize, bytecodeSize)\n  dup1\n  bytecodeSize\n  dup4\n  codecopy\n  dup2\n  add\n  0x40\n  dup2\n  swap1\n  mstore\n  tag_4\n  swap2\n  tag_5\n  jump\t// in\ntag_4:\n    /* \"contracts/GunzoZuYukiKoyano.sol\":21504:21517  _name = name_ */\n  dup3\n  mload\n    /* \"contracts/GunzoZuYukiKoyano.sol\":43030:43035  _name */\n  dup4\n  swap1\n    /* \"contracts/GunzoZuYukiKoyano.sol\":43037:43044  _symbol */\n  dup4\n  swap1\n    /* \"contracts/GunzoZuYukiKoyano.sol\":21504:21517  _name = name_ */\n  tag_10\n  swap1\n    /* \"contracts/GunzoZuYukiKoyano.sol\":21504:21509  _name */\n  0x00\n  swap1\n    /* \"contracts/GunzoZuYukiKoyano.sol\":21504:21517  _name = name_ */\n  0x20\n  dup6\n  add\n  swap1\n  tag_2\n  jump\t// in\ntag_10:\n  pop\n    /* \"contracts/GunzoZuYukiKoyano.sol\":21527:21544  _symbol = symbol_ */\n  dup1\n  mload\n  tag_11\n  swap1\n    /* \"contracts/GunzoZuYukiKoyano.sol\":21527:21534  _symbol */\n  0x01\n  swap1\n    /* \"contracts/GunzoZuYukiKoyano.sol\":21527:21544  _symbol = symbol_ */\n  0x20\n  dup5\n  add\n  swap1\n  tag_2\n  jump\t// in\ntag_11:\n  pop\n    /* \"contracts/GunzoZuYukiKoyano.sol\":21438:21551  constructor(string memory name_, string memory symbol_) {... */\n  pop\n  pop\n    /* \"contracts/GunzoZuYukiKoyano.sol\":41147:41170  _setOwner(_msgSender()) */\n  tag_13\n    /* \"contracts/GunzoZuYukiKoyano.sol\":41157:41169  _msgSender() */\n  tag_14\n    /* \"contracts/GunzoZuYukiKoyano.sol\":41157:41167  _msgSender */\n  shl(0x20, tag_15)\n    /* \"contracts/GunzoZuYukiKoyano.sol\":41157:41169  _msgSender() */\n  0x20\n  shr\n  jump\t// in\ntag_14:\n    /* \"contracts/GunzoZuYukiKoyano.sol\":41147:41156  _setOwner */\n  tag_16\n    /* \"contracts/GunzoZuYukiKoyano.sol\":41147:41170  _setOwner(_msgSender()) */\n  jump\t// in\ntag_13:\n    /* \"contracts/GunzoZuYukiKoyano.sol\":43052:43076  setBaseURI(_initBaseURI) */\n  tag_18\n    /* \"contracts/GunzoZuYukiKoyano.sol\":43063:43075  _initBaseURI */\n  dup2\n    /* \"contracts/GunzoZuYukiKoyano.sol\":43052:43062  setBaseURI */\n  tag_19\n    /* \"contracts/GunzoZuYukiKoyano.sol\":43052:43076  setBaseURI(_initBaseURI) */\n  jump\t// in\ntag_18:\n    /* \"contracts/GunzoZuYukiKoyano.sol\":42882:43128  constructor(... */\n  pop\n  pop\n  pop\n    /* \"contracts/GunzoZuYukiKoyano.sol\":42528:45634  contract GunzoZuYukiKoyano is ERC721Enumerable, Ownable {... */\n  jump(tag_44)\n    /* \"contracts/GunzoZuYukiKoyano.sol\":20142:20238  function _msgSender() internal view virtual returns (address) {... */\ntag_15:\n    /* \"contracts/GunzoZuYukiKoyano.sol\":20221:20231  msg.sender */\n  caller\n  swap1\n    /* \"contracts/GunzoZuYukiKoyano.sol\":20142:20238  function _msgSender() internal view virtual returns (address) {... */\n  jump\t// out\n    /* \"contracts/GunzoZuYukiKoyano.sol\":42321:42490  function _setOwner(address newOwner) private {... */\ntag_16:\n    /* \"contracts/GunzoZuYukiKoyano.sol\":42395:42401  _owner */\n  0x0a\n  dup1\n  sload\n  sub(shl(0xa0, 0x01), 0x01)\n    /* \"contracts/GunzoZuYukiKoyano.sol\":42411:42428  _owner = newOwner */\n  dup4\n  dup2\n  and\n  not(sub(shl(0xa0, 0x01), 0x01))\n  dup4\n  and\n  dup2\n  or\n  swap1\n  swap4\n  sstore\n    /* \"contracts/GunzoZuYukiKoyano.sol\":42443:42483  OwnershipTransferred(oldOwner, newOwner) */\n  mload(0x40)\n    /* \"contracts/GunzoZuYukiKoyano.sol\":42395:42401  _owner */\n  swap2\n  and\n  swap2\n    /* \"contracts/GunzoZuYukiKoyano.sol\":42411:42428  _owner = newOwner */\n  swap1\n    /* \"contracts/GunzoZuYukiKoyano.sol\":42395:42401  _owner */\n  dup3\n  swap1\n    /* \"contracts/GunzoZuYukiKoyano.sol\":42443:42483  OwnershipTransferred(oldOwner, newOwner) */\n  0x8be0079c531659141344cd1fd0a4f28419497f9722a3daafe3b4186f6b6457e0\n  swap1\n    /* \"contracts/GunzoZuYukiKoyano.sol\":42376:42392  address oldOwner */\n  0x00\n  swap1\n    /* \"contracts/GunzoZuYukiKoyano.sol\":42443:42483  OwnershipTransferred(oldOwner, newOwner) */\n  log3\n    /* \"contracts/GunzoZuYukiKoyano.sol\":42366:42490  {... */\n  pop\n    /* \"contracts/GunzoZuYukiKoyano.sol\":42321:42490  function _setOwner(address newOwner) private {... */\n  pop\n  jump\t// out\n    /* \"contracts/GunzoZuYukiKoyano.sol\":44933:45029  function setBaseURI(string memory _newBaseURI) public onlyOwner {... */\ntag_19:\n    /* \"contracts/GunzoZuYukiKoyano.sol\":41325:41331  _owner */\n  and(sub(shl(0xa0, 0x01), 0x01), sload(0x0a))\n    /* \"contracts/GunzoZuYukiKoyano.sol\":20221:20231  msg.sender */\n  caller\n    /* \"contracts/GunzoZuYukiKoyano.sol\":41465:41488  owner() == _msgSender() */\n  eq\n    /* \"contracts/GunzoZuYukiKoyano.sol\":41457:41525  require(owner() == _msgSender(), \"Ownable: caller is not the owner\") */\n  tag_27\n  jumpi\n  mload(0x40)\n  shl(0xe5, 0x461bcd)\n  dup2\n  mstore\n    /* \"#utility.yul\":1877:1879   */\n  0x20\n    /* \"contracts/GunzoZuYukiKoyano.sol\":41457:41525  require(owner() == _msgSender(), \"Ownable: caller is not the owner\") */\n  0x04\n  dup3\n  add\n    /* \"#utility.yul\":1859:1880   */\n  dup2\n  swap1\n  mstore\n    /* \"#utility.yul\":1896:1914   */\n  0x24\n  dup3\n  add\n    /* \"#utility.yul\":1889:1919   */\n  mstore\n    /* \"#utility.yul\":1955:1989   */\n  0x4f776e61626c653a2063616c6c6572206973206e6f7420746865206f776e6572\n    /* \"#utility.yul\":1935:1953   */\n  0x44\n  dup3\n  add\n    /* \"#utility.yul\":1928:1990   */\n  mstore\n    /* \"#utility.yul\":2007:2025   */\n  0x64\n  add\n    /* \"contracts/GunzoZuYukiKoyano.sol\":41457:41525  require(owner() == _msgSender(), \"Ownable: caller is not the owner\") */\n  mload(0x40)\n  dup1\n  swap2\n  sub\n  swap1\n  revert\ntag_27:\n    /* \"contracts/GunzoZuYukiKoyano.sol\":45003:45024  baseURI = _newBaseURI */\n  dup1\n  mload\n  tag_31\n  swap1\n    /* \"contracts/GunzoZuYukiKoyano.sol\":45003:45010  baseURI */\n  0x0b\n  swap1\n    /* \"contracts/GunzoZuYukiKoyano.sol\":45003:45024  baseURI = _newBaseURI */\n  0x20\n  dup5\n  add\n  swap1\n  tag_2\n  jump\t// in\ntag_31:\n  pop\n    /* \"contracts/GunzoZuYukiKoyano.sol\":44933:45029  function setBaseURI(string memory _newBaseURI) public onlyOwner {... */\n  pop\n  jump\t// out\n    /* \"contracts/GunzoZuYukiKoyano.sol\":42528:45634  contract GunzoZuYukiKoyano is ERC721Enumerable, Ownable {... */\ntag_2:\n  dup3\n  dup1\n  sload\n  tag_33\n  swap1\n  tag_34\n  jump\t// in\ntag_33:\n  swap1\n  0x00\n  mstore\n  keccak256(0x00, 0x20)\n  swap1\n  0x1f\n  add\n  0x20\n  swap1\n  div\n  dup2\n  add\n  swap3\n  dup3\n  tag_36\n  jumpi\n  0x00\n  dup6\n  sstore\n  jump(tag_39)\ntag_36:\n  dup3\n  0x1f\n  lt\n  tag_37\n  jumpi\n  dup1\n  mload\n  not(0xff)\n  and\n  dup4\n  dup1\n  add\n  or\n  dup6\n  sstore\n  jump(tag_39)\ntag_37:\n  dup3\n  dup1\n  add\n  0x01\n  add\n  dup6\n  sstore\n  dup3\n  iszero\n  tag_39\n  jumpi\n  swap2\n  dup3\n  add\ntag_38:\n  dup3\n  dup2\n  gt\n  iszero\n  tag_39\n  jumpi\n  dup3\n  mload\n  dup3\n  sstore\n  swap2\n  0x20\n  add\n  swap2\n  swap1\n  0x01\n  add\n  swap1\n  jump(tag_38)\ntag_39:\n  pop\n  tag_40\n  swap3\n  swap2\n  pop\n  tag_41\n  jump\t// in\ntag_40:\n  pop\n  swap1\n  jump\t// out\ntag_41:\ntag_42:\n  dup1\n  dup3\n  gt\n  iszero\n  tag_40\n  jumpi\n  0x00\n  dup2\n  sstore\n  0x01\n  add\n  jump(tag_42)\n    /* \"#utility.yul\":14:899   */\ntag_45:\n    /* \"#utility.yul\":68:73   */\n  0x00\n    /* \"#utility.yul\":121:124   */\n  dup3\n    /* \"#utility.yul\":114:118   */\n  0x1f\n    /* \"#utility.yul\":106:112   */\n  dup4\n    /* \"#utility.yul\":102:119   */\n  add\n    /* \"#utility.yul\":98:125   */\n  slt\n    /* \"#utility.yul\":88:143   */\n  tag_47\n  jumpi\n    /* \"#utility.yul\":139:140   */\n  0x00\n    /* \"#utility.yul\":136:137   */\n  dup1\n    /* \"#utility.yul\":129:141   */\n  revert\n    /* \"#utility.yul\":88:143   */\ntag_47:\n    /* \"#utility.yul\":162:175   */\n  dup2\n  mload\n  sub(shl(0x40, 0x01), 0x01)\n    /* \"#utility.yul\":224:234   */\n  dup1\n  dup3\n  gt\n    /* \"#utility.yul\":221:257   */\n  iszero\n  tag_49\n  jumpi\n    /* \"#utility.yul\":237:255   */\n  tag_49\n  tag_50\n  jump\t// in\ntag_49:\n    /* \"#utility.yul\":312:314   */\n  0x40\n    /* \"#utility.yul\":306:315   */\n  mload\n    /* \"#utility.yul\":280:282   */\n  0x1f\n    /* \"#utility.yul\":366:379   */\n  dup4\n  add\n  not(0x1f)\n    /* \"#utility.yul\":362:384   */\n  swap1\n  dup2\n  and\n    /* \"#utility.yul\":386:388   */\n  0x3f\n    /* \"#utility.yul\":358:389   */\n  add\n    /* \"#utility.yul\":354:394   */\n  and\n    /* \"#utility.yul\":342:395   */\n  dup2\n  add\n  swap1\n    /* \"#utility.yul\":410:428   */\n  dup3\n  dup3\n  gt\n    /* \"#utility.yul\":430:452   */\n  dup2\n  dup4\n  lt\n    /* \"#utility.yul\":407:453   */\n  or\n    /* \"#utility.yul\":404:476   */\n  iszero\n  tag_52\n  jumpi\n    /* \"#utility.yul\":456:474   */\n  tag_52\n  tag_50\n  jump\t// in\ntag_52:\n    /* \"#utility.yul\":496:506   */\n  dup2\n    /* \"#utility.yul\":492:494   */\n  0x40\n    /* \"#utility.yul\":485:507   */\n  mstore\n    /* \"#utility.yul\":531:533   */\n  dup4\n    /* \"#utility.yul\":523:529   */\n  dup2\n    /* \"#utility.yul\":516:534   */\n  mstore\n    /* \"#utility.yul\":553:557   */\n  0x20\n    /* \"#utility.yul\":543:557   */\n  swap3\n  pop\n    /* \"#utility.yul\":598:601   */\n  dup7\n    /* \"#utility.yul\":593:595   */\n  dup4\n    /* \"#utility.yul\":588:590   */\n  dup6\n    /* \"#utility.yul\":580:586   */\n  dup9\n    /* \"#utility.yul\":576:591   */\n  add\n    /* \"#utility.yul\":572:596   */\n  add\n    /* \"#utility.yul\":569:602   */\n  gt\n    /* \"#utility.yul\":566:619   */\n  iszero\n  tag_53\n  jumpi\n    /* \"#utility.yul\":615:616   */\n  0x00\n    /* \"#utility.yul\":612:613   */\n  dup1\n    /* \"#utility.yul\":605:617   */\n  revert\n    /* \"#utility.yul\":566:619   */\ntag_53:\n    /* \"#utility.yul\":637:638   */\n  0x00\n    /* \"#utility.yul\":628:638   */\n  swap2\n  pop\n    /* \"#utility.yul\":647:780   */\ntag_54:\n    /* \"#utility.yul\":661:663   */\n  dup4\n    /* \"#utility.yul\":658:659   */\n  dup3\n    /* \"#utility.yul\":655:664   */\n  lt\n    /* \"#utility.yul\":647:780   */\n  iszero\n  tag_56\n  jumpi\n    /* \"#utility.yul\":749:763   */\n  dup6\n  dup3\n  add\n    /* \"#utility.yul\":745:768   */\n  dup4\n  add\n    /* \"#utility.yul\":739:769   */\n  mload\n    /* \"#utility.yul\":718:732   */\n  dup2\n  dup4\n  add\n    /* \"#utility.yul\":714:737   */\n  dup5\n  add\n    /* \"#utility.yul\":707:770   */\n  mstore\n    /* \"#utility.yul\":672:682   */\n  swap1\n  dup3\n  add\n  swap1\n    /* \"#utility.yul\":647:780   */\n  jump(tag_54)\ntag_56:\n    /* \"#utility.yul\":798:800   */\n  dup4\n    /* \"#utility.yul\":795:796   */\n  dup3\n    /* \"#utility.yul\":792:801   */\n  gt\n    /* \"#utility.yul\":789:869   */\n  iszero\n  tag_57\n  jumpi\n    /* \"#utility.yul\":857:858   */\n  0x00\n    /* \"#utility.yul\":852:854   */\n  dup4\n    /* \"#utility.yul\":847:849   */\n  dup6\n    /* \"#utility.yul\":839:845   */\n  dup4\n    /* \"#utility.yul\":835:850   */\n  add\n    /* \"#utility.yul\":831:855   */\n  add\n    /* \"#utility.yul\":824:859   */\n  mstore\n    /* \"#utility.yul\":789:869   */\ntag_57:\n    /* \"#utility.yul\":887:893   */\n  swap7\n    /* \"#utility.yul\":14:899   */\n  swap6\n  pop\n  pop\n  pop\n  pop\n  pop\n  pop\n  jump\t// out\n    /* \"#utility.yul\":904:1670   */\ntag_5:\n    /* \"#utility.yul\":1022:1028   */\n  0x00\n    /* \"#utility.yul\":1030:1036   */\n  dup1\n    /* \"#utility.yul\":1038:1044   */\n  0x00\n    /* \"#utility.yul\":1091:1093   */\n  0x60\n    /* \"#utility.yul\":1079:1088   */\n  dup5\n    /* \"#utility.yul\":1070:1077   */\n  dup7\n    /* \"#utility.yul\":1066:1089   */\n  sub\n    /* \"#utility.yul\":1062:1094   */\n  slt\n    /* \"#utility.yul\":1059:1111   */\n  iszero\n  tag_59\n  jumpi\n    /* \"#utility.yul\":1107:1108   */\n  0x00\n    /* \"#utility.yul\":1104:1105   */\n  dup1\n    /* \"#utility.yul\":1097:1109   */\n  revert\n    /* \"#utility.yul\":1059:1111   */\ntag_59:\n    /* \"#utility.yul\":1134:1150   */\n  dup4\n  mload\n  sub(shl(0x40, 0x01), 0x01)\n    /* \"#utility.yul\":1199:1213   */\n  dup1\n  dup3\n  gt\n    /* \"#utility.yul\":1196:1230   */\n  iszero\n  tag_60\n  jumpi\n    /* \"#utility.yul\":1226:1227   */\n  0x00\n    /* \"#utility.yul\":1223:1224   */\n  dup1\n    /* \"#utility.yul\":1216:1228   */\n  revert\n    /* \"#utility.yul\":1196:1230   */\ntag_60:\n    /* \"#utility.yul\":1249:1310   */\n  tag_61\n    /* \"#utility.yul\":1302:1309   */\n  dup8\n    /* \"#utility.yul\":1293:1299   */\n  dup4\n    /* \"#utility.yul\":1282:1291   */\n  dup9\n    /* \"#utility.yul\":1278:1300   */\n  add\n    /* \"#utility.yul\":1249:1310   */\n  tag_45\n  jump\t// in\ntag_61:\n    /* \"#utility.yul\":1239:1310   */\n  swap5\n  pop\n    /* \"#utility.yul\":1356:1358   */\n  0x20\n    /* \"#utility.yul\":1345:1354   */\n  dup7\n    /* \"#utility.yul\":1341:1359   */\n  add\n    /* \"#utility.yul\":1335:1360   */\n  mload\n    /* \"#utility.yul\":1319:1360   */\n  swap2\n  pop\n    /* \"#utility.yul\":1385:1387   */\n  dup1\n    /* \"#utility.yul\":1375:1383   */\n  dup3\n    /* \"#utility.yul\":1372:1388   */\n  gt\n    /* \"#utility.yul\":1369:1405   */\n  iszero\n  tag_62\n  jumpi\n    /* \"#utility.yul\":1401:1402   */\n  0x00\n    /* \"#utility.yul\":1398:1399   */\n  dup1\n    /* \"#utility.yul\":1391:1403   */\n  revert\n    /* \"#utility.yul\":1369:1405   */\ntag_62:\n    /* \"#utility.yul\":1424:1487   */\n  tag_63\n    /* \"#utility.yul\":1479:1486   */\n  dup8\n    /* \"#utility.yul\":1468:1476   */\n  dup4\n    /* \"#utility.yul\":1457:1466   */\n  dup9\n    /* \"#utility.yul\":1453:1477   */\n  add\n    /* \"#utility.yul\":1424:1487   */\n  tag_45\n  jump\t// in\ntag_63:\n    /* \"#utility.yul\":1414:1487   */\n  swap4\n  pop\n    /* \"#utility.yul\":1533:1535   */\n  0x40\n    /* \"#utility.yul\":1522:1531   */\n  dup7\n    /* \"#utility.yul\":1518:1536   */\n  add\n    /* \"#utility.yul\":1512:1537   */\n  mload\n    /* \"#utility.yul\":1496:1537   */\n  swap2\n  pop\n    /* \"#utility.yul\":1562:1564   */\n  dup1\n    /* \"#utility.yul\":1552:1560   */\n  dup3\n    /* \"#utility.yul\":1549:1565   */\n  gt\n    /* \"#utility.yul\":1546:1582   */\n  iszero\n  tag_64\n  jumpi\n    /* \"#utility.yul\":1578:1579   */\n  0x00\n    /* \"#utility.yul\":1575:1576   */\n  dup1\n    /* \"#utility.yul\":1568:1580   */\n  revert\n    /* \"#utility.yul\":1546:1582   */\ntag_64:\n  pop\n    /* \"#utility.yul\":1601:1664   */\n  tag_65\n    /* \"#utility.yul\":1656:1663   */\n  dup7\n    /* \"#utility.yul\":1645:1653   */\n  dup3\n    /* \"#utility.yul\":1634:1643   */\n  dup8\n    /* \"#utility.yul\":1630:1654   */\n  add\n    /* \"#utility.yul\":1601:1664   */\n  tag_45\n  jump\t// in\ntag_65:\n    /* \"#utility.yul\":1591:1664   */\n  swap2\n  pop\n  pop\n    /* \"#utility.yul\":904:1670   */\n  swap3\n  pop\n  swap3\n  pop\n  swap3\n  jump\t// out\n    /* \"#utility.yul\":2036:2416   */\ntag_34:\n    /* \"#utility.yul\":2115:2116   */\n  0x01\n    /* \"#utility.yul\":2111:2123   */\n  dup2\n  dup2\n  shr\n  swap1\n    /* \"#utility.yul\":2158:2170   */\n  dup3\n  and\n  dup1\n    /* \"#utility.yul\":2179:2240   */\n  tag_68\n  jumpi\n    /* \"#utility.yul\":2233:2237   */\n  0x7f\n    /* \"#utility.yul\":2225:2231   */\n  dup3\n    /* \"#utility.yul\":2221:2238   */\n  and\n    /* \"#utility.yul\":2211:2238   */\n  swap2\n  pop\n    /* \"#utility.yul\":2179:2240   */\ntag_68:\n    /* \"#utility.yul\":2286:2288   */\n  0x20\n    /* \"#utility.yul\":2278:2284   */\n  dup3\n    /* \"#utility.yul\":2275:2289   */\n  lt\n    /* \"#utility.yul\":2255:2273   */\n  dup2\n    /* \"#utility.yul\":2252:2290   */\n  eq\n    /* \"#utility.yul\":2249:2410   */\n  iszero\n  tag_69\n  jumpi\n    /* \"#utility.yul\":2332:2342   */\n  0x4e487b71\n    /* \"#utility.yul\":2327:2330   */\n  0xe0\n    /* \"#utility.yul\":2323:2343   */\n  shl\n    /* \"#utility.yul\":2320:2321   */\n  0x00\n    /* \"#utility.yul\":2313:2344   */\n  mstore\n    /* \"#utility.yul\":2367:2371   */\n  0x22\n    /* \"#utility.yul\":2364:2365   */\n  0x04\n    /* \"#utility.yul\":2357:2372   */\n  mstore\n    /* \"#utility.yul\":2395:2399   */\n  0x24\n    /* \"#utility.yul\":2392:2393   */\n  0x00\n    /* \"#utility.yul\":2385:2400   */\n  revert\n    /* \"#utility.yul\":2249:2410   */\ntag_69:\n  pop\n    /* \"#utility.yul\":2036:2416   */\n  swap2\n  swap1\n  pop\n  jump\t// out\n    /* \"#utility.yul\":2421:2548   */\ntag_50:\n    /* \"#utility.yul\":2482:2492   */\n  0x4e487b71\n    /* \"#utility.yul\":2477:2480   */\n  0xe0\n    /* \"#utility.yul\":2473:2493   */\n  shl\n    /* \"#utility.yul\":2470:2471   */\n  0x00\n    /* \"#utility.yul\":2463:2494   */\n  mstore\n    /* \"#utility.yul\":2513:2517   */\n  0x41\n    /* \"#utility.yul\":2510:2511   */\n  0x04\n    /* \"#utility.yul\":2503:2518   */\n  mstore\n    /* \"#utility.yul\":2537:2541   */\n  0x24\n    /* \"#utility.yul\":2534:2535   */\n  0x00\n    /* \"#utility.yul\":2527:2542   */\n  revert\n    /* \"#utility.yul\":2421:2548   */\ntag_44:\n    /* \"contracts/GunzoZuYukiKoyano.sol\":42528:45634  contract GunzoZuYukiKoyano is ERC721Enumerable, Ownable {... */\n  dataSize(sub_0)\n  dup1\n  dataOffset(sub_0)\n  0x00\n  codecopy\n  0x00\n  return\nstop\n\nsub_0: assembly {\n        /* \"contracts/GunzoZuYukiKoyano.sol\":42528:45634  contract GunzoZuYukiKoyano is ERC721Enumerable, Ownable {... */\n      mstore(0x40, 0x80)\n      jumpi(tag_1, lt(calldatasize, 0x04))\n      shr(0xe0, calldataload(0x00))\n      dup1\n      0x5c975abb\n      gt\n      tag_36\n      jumpi\n      dup1\n      0xa22cb465\n      gt\n      tag_37\n      jumpi\n      dup1\n      0xc87b56dd\n      gt\n      tag_38\n      jumpi\n      dup1\n      0xc87b56dd\n      eq\n      tag_31\n      jumpi\n      dup1\n      0xd5abeb01\n      eq\n      tag_32\n      jumpi\n      dup1\n      0xda3ef23f\n      eq\n      tag_33\n      jumpi\n      dup1\n      0xe985e9c5\n      eq\n      tag_34\n      jumpi\n      dup1\n      0xf2fde38b\n      eq\n      tag_35\n      jumpi\n      0x00\n      dup1\n      revert\n    tag_38:\n      dup1\n      0xa22cb465\n      eq\n      tag_27\n      jumpi\n      dup1\n      0xa475b5dd\n      eq\n      tag_28\n      jumpi\n      dup1\n      0xb88d4fde\n      eq\n      tag_29\n      jumpi\n      dup1\n      0xc6682862\n      eq\n      tag_30\n      jumpi\n      0x00\n      dup1\n      revert\n    tag_37:\n      dup1\n      0x7f00c7a6\n      gt\n      tag_39\n      jumpi\n      dup1\n      0x7f00c7a6\n      eq\n      tag_23\n      jumpi\n      dup1\n      0x8da5cb5b\n      eq\n      tag_24\n      jumpi\n      dup1\n      0x95d89b41\n      eq\n      tag_25\n      jumpi\n      dup1\n      0xa0712d68\n      eq\n      tag_26\n      jumpi\n      0x00\n      dup1\n      revert\n    tag_39:\n      dup1\n      0x5c975abb\n      eq\n      tag_19\n      jumpi\n      dup1\n      0x6352211e\n      eq\n      tag_20\n      jumpi\n      dup1\n      0x70a08231\n      eq\n      tag_21\n      jumpi\n      dup1\n      0x715018a6\n      eq\n      tag_22\n      jumpi\n      0x00\n      dup1\n      revert\n    tag_36:\n      dup1\n      0x23b872dd\n      gt\n      tag_40\n      jumpi\n      dup1\n      0x438b6300\n      gt\n      tag_41\n      jumpi\n      dup1\n      0x438b6300\n      eq\n      tag_14\n      jumpi\n      dup1\n      0x44a0d68a\n      eq\n      tag_15\n      jumpi\n      dup1\n      0x4f6ccce7\n      eq\n      tag_16\n      jumpi\n      dup1\n      0x51830227\n      eq\n      tag_17\n      jumpi\n      dup1\n      0x55f804b3\n      eq\n      tag_18\n      jumpi\n      0x00\n      dup1\n      revert\n    tag_41:\n      dup1\n      0x23b872dd\n      eq\n      tag_10\n      jumpi\n      dup1\n      0x2f745c59\n      eq\n      tag_11\n      jumpi\n      dup1\n      0x3ccfd60b\n      eq\n      tag_12\n      jumpi\n      dup1\n      0x42842e0e\n      eq\n      tag_13\n      jumpi\n      0x00\n      dup1\n      revert\n    tag_40:\n      dup1\n      0x095ea7b3\n      gt\n      tag_42\n      jumpi\n      dup1\n      0x095ea7b3\n      eq\n      tag_6\n      jumpi\n      dup1\n      0x13faede6\n      eq\n      tag_7\n      jumpi\n      dup1\n      0x18160ddd\n      eq\n      tag_8\n      jumpi\n      dup1\n      0x239c70ae\n      eq\n      tag_9\n      jumpi\n      0x00\n      dup1\n      revert\n    tag_42:\n      dup1\n      0x01ffc9a7\n      eq\n      tag_2\n      jumpi\n      dup1\n      0x02329a29\n      eq\n      tag_3\n      jumpi\n      dup1\n      0x06fdde03\n      eq\n      tag_4\n      jumpi\n      dup1\n      0x081812fc\n      eq\n      tag_5\n      jumpi\n    tag_1:\n      0x00\n      dup1\n      revert\n        /* \"contracts/GunzoZuYukiKoyano.sol\":34280:34502  function supportsInterface(bytes4 interfaceId) public view virtual override(IERC165, ERC721) returns (bool) {... */\n    tag_2:\n      callvalue\n      dup1\n      iszero\n      tag_43\n      jumpi\n      0x00\n      dup1\n      revert\n    tag_43:\n      pop\n      tag_44\n      tag_45\n      calldatasize\n      0x04\n      tag_46\n      jump\t// in\n    tag_45:\n      tag_47\n      jump\t// in\n    tag_44:\n      mload(0x40)\n        /* \"#utility.yul\":7807:7821   */\n      swap1\n      iszero\n        /* \"#utility.yul\":7800:7822   */\n      iszero\n        /* \"#utility.yul\":7782:7823   */\n      dup2\n      mstore\n        /* \"#utility.yul\":7770:7772   */\n      0x20\n        /* \"#utility.yul\":7755:7773   */\n      add\n        /* \"contracts/GunzoZuYukiKoyano.sol\":34280:34502  function supportsInterface(bytes4 interfaceId) public view virtual override(IERC165, ERC721) returns (bool) {... */\n    tag_48:\n      mload(0x40)\n      dup1\n      swap2\n      sub\n      swap1\n      return\n        /* \"contracts/GunzoZuYukiKoyano.sol\":45157:45228  function pause(bool _state) public onlyOwner {... */\n    tag_3:\n      callvalue\n      dup1\n      iszero\n      tag_50\n      jumpi\n      0x00\n      dup1\n      revert\n    tag_50:\n      pop\n      tag_51\n      tag_52\n      calldatasize\n      0x04\n      tag_53\n      jump\t// in\n    tag_52:\n      tag_54\n      jump\t// in\n    tag_51:\n      stop\n        /* \"contracts/GunzoZuYukiKoyano.sol\":22536:22634  function name() public view virtual override returns (string memory) {... */\n    tag_4:\n      callvalue\n      dup1\n      iszero\n      tag_55\n      jumpi\n      0x00\n      dup1\n      revert\n    tag_55:\n      pop\n      tag_56\n      tag_57\n      jump\t// in\n    tag_56:\n      mload(0x40)\n      tag_48\n      swap2\n      swap1\n      tag_59\n      jump\t// in\n        /* \"contracts/GunzoZuYukiKoyano.sol\":24047:24264  function getApproved(uint256 tokenId) public view virtual override returns (address) {... */\n    tag_5:\n      callvalue\n      dup1\n      iszero\n      tag_60\n      jumpi\n      0x00\n      dup1\n      revert\n    tag_60:\n      pop\n      tag_61\n      tag_62\n      calldatasize\n      0x04\n      tag_63\n      jump\t// in\n    tag_62:\n      tag_64\n      jump\t// in\n    tag_61:\n      mload(0x40)\n      sub(shl(0xa0, 0x01), 0x01)\n        /* \"#utility.yul\":6468:6500   */\n      swap1\n      swap2\n      and\n        /* \"#utility.yul\":6450:6501   */\n      dup2\n      mstore\n        /* \"#utility.yul\":6438:6440   */\n      0x20\n        /* \"#utility.yul\":6423:6441   */\n      add\n        /* \"contracts/GunzoZuYukiKoyano.sol\":24047:24264  function getApproved(uint256 tokenId) public view virtual override returns (address) {... */\n      tag_48\n        /* \"#utility.yul\":6304:6507   */\n      jump\n        /* \"contracts/GunzoZuYukiKoyano.sol\":23585:23986  function approve(address to, uint256 tokenId) public virtual override {... */\n    tag_6:\n      callvalue\n      dup1\n      iszero\n      tag_67\n      jumpi\n      0x00\n      dup1\n      revert\n    tag_67:\n      pop\n      tag_51\n      tag_69\n      calldatasize\n      0x04\n      tag_70\n      jump\t// in\n    tag_69:\n      tag_71\n      jump\t// in\n        /* \"contracts/GunzoZuYukiKoyano.sol\":42677:42708  uint256 public cost = 100 ether */\n    tag_7:\n      callvalue\n      dup1\n      iszero\n      tag_72\n      jumpi\n      0x00\n      dup1\n      revert\n    tag_72:\n      pop\n      tag_73\n      sload(0x0d)\n      dup2\n      jump\n    tag_73:\n      mload(0x40)\n        /* \"#utility.yul\":15411:15436   */\n      swap1\n      dup2\n      mstore\n        /* \"#utility.yul\":15399:15401   */\n      0x20\n        /* \"#utility.yul\":15384:15402   */\n      add\n        /* \"contracts/GunzoZuYukiKoyano.sol\":42677:42708  uint256 public cost = 100 ether */\n      tag_48\n        /* \"#utility.yul\":15265:15442   */\n      jump\n        /* \"contracts/GunzoZuYukiKoyano.sol\":34905:35016  function totalSupply() public view virtual override returns (uint256) {... */\n    tag_8:\n      callvalue\n      dup1\n      iszero\n      tag_77\n      jumpi\n      0x00\n      dup1\n      revert\n    tag_77:\n      pop\n        /* \"contracts/GunzoZuYukiKoyano.sol\":34992:35002  _allTokens */\n      0x08\n        /* \"contracts/GunzoZuYukiKoyano.sol\":34992:35009  _allTokens.length */\n      sload\n        /* \"contracts/GunzoZuYukiKoyano.sol\":34905:35016  function totalSupply() public view virtual override returns (uint256) {... */\n      jump(tag_73)\n        /* \"contracts/GunzoZuYukiKoyano.sol\":42746:42780  uint256 public maxMintAmount = 888 */\n    tag_9:\n      callvalue\n      dup1\n      iszero\n      tag_81\n      jumpi\n      0x00\n      dup1\n      revert\n    tag_81:\n      pop\n      tag_73\n      sload(0x0f)\n      dup2\n      jump\n        /* \"contracts/GunzoZuYukiKoyano.sol\":24911:25241  function transferFrom(... */\n    tag_10:\n      callvalue\n      dup1\n      iszero\n      tag_85\n      jumpi\n      0x00\n      dup1\n      revert\n    tag_85:\n      pop\n      tag_51\n      tag_87\n      calldatasize\n      0x04\n      tag_88\n      jump\t// in\n    tag_87:\n      tag_89\n      jump\t// in\n        /* \"contracts/GunzoZuYukiKoyano.sol\":34581:34834  function tokenOfOwnerByIndex(address owner, uint256 index) public view virtual override returns (uint256) {... */\n    tag_11:\n      callvalue\n      dup1\n      iszero\n      tag_90\n      jumpi\n      0x00\n      dup1\n      revert\n    tag_90:\n      pop\n      tag_73\n      tag_92\n      calldatasize\n      0x04\n      tag_70\n      jump\t// in\n    tag_92:\n      tag_93\n      jump\t// in\n        /* \"contracts/GunzoZuYukiKoyano.sol\":45233:45632  function withdraw() public payable onlyOwner {... */\n    tag_12:\n      tag_51\n      tag_96\n      jump\t// in\n        /* \"contracts/GunzoZuYukiKoyano.sol\":25307:25486  function safeTransferFrom(... */\n    tag_13:\n      callvalue\n      dup1\n      iszero\n      tag_97\n      jumpi\n      0x00\n      dup1\n      revert\n    tag_97:\n      pop\n      tag_51\n      tag_99\n      calldatasize\n      0x04\n      tag_88\n      jump\t// in\n    tag_99:\n      tag_100\n      jump\t// in\n        /* \"contracts/GunzoZuYukiKoyano.sol\":43685:44022  function walletOfOwner(address _owner)... */\n    tag_14:\n      callvalue\n      dup1\n      iszero\n      tag_101\n      jumpi\n      0x00\n      dup1\n      revert\n    tag_101:\n      pop\n      tag_102\n      tag_103\n      calldatasize\n      0x04\n      tag_104\n      jump\t// in\n    tag_103:\n      tag_105\n      jump\t// in\n    tag_102:\n      mload(0x40)\n      tag_48\n      swap2\n      swap1\n      tag_107\n      jump\t// in\n        /* \"contracts/GunzoZuYukiKoyano.sol\":44600:44678  function setCost(uint256 _newCost) public onlyOwner {... */\n    tag_15:\n      callvalue\n      dup1\n      iszero\n      tag_108\n      jumpi\n      0x00\n      dup1\n      revert\n    tag_108:\n      pop\n      tag_51\n      tag_110\n      calldatasize\n      0x04\n      tag_63\n      jump\t// in\n    tag_110:\n      tag_111\n      jump\t// in\n        /* \"contracts/GunzoZuYukiKoyano.sol\":35088:35318  function tokenByIndex(uint256 index) public view virtual override returns (uint256) {... */\n    tag_16:\n      callvalue\n      dup1\n      iszero\n      tag_112\n      jumpi\n      0x00\n      dup1\n      revert\n    tag_112:\n      pop\n      tag_73\n      tag_114\n      calldatasize\n      0x04\n      tag_63\n      jump\t// in\n    tag_114:\n      tag_115\n      jump\t// in\n        /* \"contracts/GunzoZuYukiKoyano.sol\":42814:42842  bool public revealed = false */\n    tag_17:\n      callvalue\n      dup1\n      iszero\n      tag_117\n      jumpi\n      0x00\n      dup1\n      revert\n    tag_117:\n      pop\n      sload(0x10)\n      tag_44\n      swap1\n      0x0100\n      swap1\n      div\n      0xff\n      and\n      dup2\n      jump\n        /* \"contracts/GunzoZuYukiKoyano.sol\":44933:45029  function setBaseURI(string memory _newBaseURI) public onlyOwner {... */\n    tag_18:\n      callvalue\n      dup1\n      iszero\n      tag_121\n      jumpi\n      0x00\n      dup1\n      revert\n    tag_121:\n      pop\n      tag_51\n      tag_123\n      calldatasize\n      0x04\n      tag_124\n      jump\t// in\n    tag_123:\n      tag_125\n      jump\t// in\n        /* \"contracts/GunzoZuYukiKoyano.sol\":42784:42810  bool public paused = false */\n    tag_19:\n      callvalue\n      dup1\n      iszero\n      tag_126\n      jumpi\n      0x00\n      dup1\n      revert\n    tag_126:\n      pop\n      sload(0x10)\n      tag_44\n      swap1\n      0xff\n      and\n      dup2\n      jump\n        /* \"contracts/GunzoZuYukiKoyano.sol\":22239:22474  function ownerOf(uint256 tokenId) public view virtual override returns (address) {... */\n    tag_20:\n      callvalue\n      dup1\n      iszero\n      tag_130\n      jumpi\n      0x00\n      dup1\n      revert\n    tag_130:\n      pop\n      tag_61\n      tag_132\n      calldatasize\n      0x04\n      tag_63\n      jump\t// in\n    tag_132:\n      tag_133\n      jump\t// in\n        /* \"contracts/GunzoZuYukiKoyano.sol\":21977:22182  function balanceOf(address owner) public view virtual override returns (uint256) {... */\n    tag_21:\n      callvalue\n      dup1\n      iszero\n      tag_135\n      jumpi\n      0x00\n      dup1\n      revert\n    tag_135:\n      pop\n      tag_73\n      tag_137\n      calldatasize\n      0x04\n      tag_104\n      jump\t// in\n    tag_137:\n      tag_138\n      jump\t// in\n        /* \"contracts/GunzoZuYukiKoyano.sol\":41885:41977  function renounceOwnership() public virtual onlyOwner {... */\n    tag_22:\n      callvalue\n      dup1\n      iszero\n      tag_140\n      jumpi\n      0x00\n      dup1\n      revert\n    tag_140:\n      pop\n      tag_51\n      tag_142\n      jump\t// in\n        /* \"contracts/GunzoZuYukiKoyano.sol\":44682:44796  function setmaxMintAmount(uint256 _newmaxMintAmount) public onlyOwner {... */\n    tag_23:\n      callvalue\n      dup1\n      iszero\n      tag_143\n      jumpi\n      0x00\n      dup1\n      revert\n    tag_143:\n      pop\n      tag_51\n      tag_145\n      calldatasize\n      0x04\n      tag_63\n      jump\t// in\n    tag_145:\n      tag_146\n      jump\t// in\n        /* \"contracts/GunzoZuYukiKoyano.sol\":41253:41338  function owner() public view virtual returns (address) {... */\n    tag_24:\n      callvalue\n      dup1\n      iszero\n      tag_147\n      jumpi\n      0x00\n      dup1\n      revert\n    tag_147:\n      pop\n        /* \"contracts/GunzoZuYukiKoyano.sol\":41325:41331  _owner */\n      and(sub(shl(0xa0, 0x01), 0x01), sload(0x0a))\n        /* \"contracts/GunzoZuYukiKoyano.sol\":41253:41338  function owner() public view virtual returns (address) {... */\n      jump(tag_61)\n        /* \"contracts/GunzoZuYukiKoyano.sol\":22698:22800  function symbol() public view virtual override returns (string memory) {... */\n    tag_25:\n      callvalue\n      dup1\n      iszero\n      tag_151\n      jumpi\n      0x00\n      dup1\n      revert\n    tag_151:\n      pop\n      tag_56\n      tag_153\n      jump\t// in\n        /* \"contracts/GunzoZuYukiKoyano.sol\":43262:43681  function mint(uint256 _mintAmount) public payable {... */\n    tag_26:\n      tag_51\n      tag_156\n      calldatasize\n      0x04\n      tag_63\n      jump\t// in\n    tag_156:\n      tag_157\n      jump\t// in\n        /* \"contracts/GunzoZuYukiKoyano.sol\":24331:24621  function setApprovalForAll(address operator, bool approved) public virtual override {... */\n    tag_27:\n      callvalue\n      dup1\n      iszero\n      tag_158\n      jumpi\n      0x00\n      dup1\n      revert\n    tag_158:\n      pop\n      tag_51\n      tag_160\n      calldatasize\n      0x04\n      tag_161\n      jump\t// in\n    tag_160:\n      tag_162\n      jump\t// in\n        /* \"contracts/GunzoZuYukiKoyano.sol\":44531:44594  function reveal() public onlyOwner {... */\n    tag_28:\n      callvalue\n      dup1\n      iszero\n      tag_163\n      jumpi\n      0x00\n      dup1\n      revert\n    tag_163:\n      pop\n      tag_51\n      tag_165\n      jump\t// in\n        /* \"contracts/GunzoZuYukiKoyano.sol\":25552:25872  function safeTransferFrom(... */\n    tag_29:\n      callvalue\n      dup1\n      iszero\n      tag_166\n      jumpi\n      0x00\n      dup1\n      revert\n    tag_166:\n      pop\n      tag_51\n      tag_168\n      calldatasize\n      0x04\n      tag_169\n      jump\t// in\n    tag_168:\n      tag_170\n      jump\t// in\n        /* \"contracts/GunzoZuYukiKoyano.sol\":42636:42673  string public baseExtension = \".json\" */\n    tag_30:\n      callvalue\n      dup1\n      iszero\n      tag_171\n      jumpi\n      0x00\n      dup1\n      revert\n    tag_171:\n      pop\n      tag_56\n      tag_173\n      jump\t// in\n        /* \"contracts/GunzoZuYukiKoyano.sol\":44026:44512  function tokenURI(uint256 tokenId)... */\n    tag_31:\n      callvalue\n      dup1\n      iszero\n      tag_175\n      jumpi\n      0x00\n      dup1\n      revert\n    tag_175:\n      pop\n      tag_56\n      tag_177\n      calldatasize\n      0x04\n      tag_63\n      jump\t// in\n    tag_177:\n      tag_178\n      jump\t// in\n        /* \"contracts/GunzoZuYukiKoyano.sol\":42712:42742  uint256 public maxSupply = 888 */\n    tag_32:\n      callvalue\n      dup1\n      iszero\n      tag_180\n      jumpi\n      0x00\n      dup1\n      revert\n    tag_180:\n      pop\n      tag_73\n      sload(0x0e)\n      dup2\n      jump\n        /* \"contracts/GunzoZuYukiKoyano.sol\":45033:45153  function setBaseExtension(string memory _newBaseExtension) public onlyOwner {... */\n    tag_33:\n      callvalue\n      dup1\n      iszero\n      tag_184\n      jumpi\n      0x00\n      dup1\n      revert\n    tag_184:\n      pop\n      tag_51\n      tag_186\n      calldatasize\n      0x04\n      tag_124\n      jump\t// in\n    tag_186:\n      tag_187\n      jump\t// in\n        /* \"contracts/GunzoZuYukiKoyano.sol\":24687:24849  function isApprovedForAll(address owner, address operator) public view virtual override returns (bool) {... */\n    tag_34:\n      callvalue\n      dup1\n      iszero\n      tag_188\n      jumpi\n      0x00\n      dup1\n      revert\n    tag_188:\n      pop\n      tag_44\n      tag_190\n      calldatasize\n      0x04\n      tag_191\n      jump\t// in\n    tag_190:\n      sub(shl(0xa0, 0x01), 0x01)\n        /* \"contracts/GunzoZuYukiKoyano.sol\":24807:24832  _operatorApprovals[owner] */\n      swap2\n      dup3\n      and\n        /* \"contracts/GunzoZuYukiKoyano.sol\":24784:24788  bool */\n      0x00\n        /* \"contracts/GunzoZuYukiKoyano.sol\":24807:24832  _operatorApprovals[owner] */\n      swap1\n      dup2\n      mstore\n        /* \"contracts/GunzoZuYukiKoyano.sol\":24807:24825  _operatorApprovals */\n      0x05\n        /* \"contracts/GunzoZuYukiKoyano.sol\":24807:24832  _operatorApprovals[owner] */\n      0x20\n      swap1\n      dup2\n      mstore\n      0x40\n      dup1\n      dup4\n      keccak256\n        /* \"contracts/GunzoZuYukiKoyano.sol\":24807:24842  _operatorApprovals[owner][operator] */\n      swap4\n      swap1\n      swap5\n      and\n      dup3\n      mstore\n      swap2\n      swap1\n      swap2\n      mstore\n      keccak256\n      sload\n      0xff\n      and\n      swap1\n        /* \"contracts/GunzoZuYukiKoyano.sol\":24687:24849  function isApprovedForAll(address owner, address operator) public view virtual override returns (bool) {... */\n      jump\n        /* \"contracts/GunzoZuYukiKoyano.sol\":42126:42315  function transferOwnership(address newOwner) public virtual onlyOwner {... */\n    tag_35:\n      callvalue\n      dup1\n      iszero\n      tag_194\n      jumpi\n      0x00\n      dup1\n      revert\n    tag_194:\n      pop\n      tag_51\n      tag_196\n      calldatasize\n      0x04\n      tag_104\n      jump\t// in\n    tag_196:\n      tag_197\n      jump\t// in\n        /* \"contracts/GunzoZuYukiKoyano.sol\":34280:34502  function supportsInterface(bytes4 interfaceId) public view virtual override(IERC165, ERC721) returns (bool) {... */\n    tag_47:\n        /* \"contracts/GunzoZuYukiKoyano.sol\":34382:34386  bool */\n      0x00\n      not(sub(shl(0xe0, 0x01), 0x01))\n        /* \"contracts/GunzoZuYukiKoyano.sol\":34405:34455  interfaceId == type(IERC721Enumerable).interfaceId */\n      dup3\n      and\n      shl(0xe0, 0x780e9d63)\n      eq\n      dup1\n        /* \"contracts/GunzoZuYukiKoyano.sol\":34405:34495  interfaceId == type(IERC721Enumerable).interfaceId || super.supportsInterface(interfaceId) */\n      tag_200\n      jumpi\n      pop\n        /* \"contracts/GunzoZuYukiKoyano.sol\":34459:34495  super.supportsInterface(interfaceId) */\n      tag_200\n        /* \"contracts/GunzoZuYukiKoyano.sol\":34483:34494  interfaceId */\n      dup3\n        /* \"contracts/GunzoZuYukiKoyano.sol\":34459:34482  super.supportsInterface */\n      tag_201\n        /* \"contracts/GunzoZuYukiKoyano.sol\":34459:34495  super.supportsInterface(interfaceId) */\n      jump\t// in\n    tag_200:\n        /* \"contracts/GunzoZuYukiKoyano.sol\":34398:34495  return interfaceId == type(IERC721Enumerable).interfaceId || super.supportsInterface(interfaceId) */\n      swap3\n        /* \"contracts/GunzoZuYukiKoyano.sol\":34280:34502  function supportsInterface(bytes4 interfaceId) public view virtual override(IERC165, ERC721) returns (bool) {... */\n      swap2\n      pop\n      pop\n      jump\t// out\n        /* \"contracts/GunzoZuYukiKoyano.sol\":45157:45228  function pause(bool _state) public onlyOwner {... */\n    tag_54:\n        /* \"contracts/GunzoZuYukiKoyano.sol\":41325:41331  _owner */\n      and(sub(shl(0xa0, 0x01), 0x01), sload(0x0a))\n        /* \"contracts/GunzoZuYukiKoyano.sol\":20221:20231  msg.sender */\n      caller\n        /* \"contracts/GunzoZuYukiKoyano.sol\":41465:41488  owner() == _msgSender() */\n      eq\n        /* \"contracts/GunzoZuYukiKoyano.sol\":41457:41525  require(owner() == _msgSender(), \"Ownable: caller is not the owner\") */\n      tag_206\n      jumpi\n      mload(0x40)\n      shl(0xe5, 0x461bcd)\n      dup2\n      mstore\n      0x04\n      add\n      tag_207\n      swap1\n      tag_208\n      jump\t// in\n    tag_207:\n      mload(0x40)\n      dup1\n      swap2\n      sub\n      swap1\n      revert\n    tag_206:\n        /* \"contracts/GunzoZuYukiKoyano.sol\":45208:45214  paused */\n      0x10\n        /* \"contracts/GunzoZuYukiKoyano.sol\":45208:45223  paused = _state */\n      dup1\n      sload\n      not(0xff)\n      and\n      swap2\n      iszero\n      iszero\n      swap2\n      swap1\n      swap2\n      or\n      swap1\n      sstore\n        /* \"contracts/GunzoZuYukiKoyano.sol\":45157:45228  function pause(bool _state) public onlyOwner {... */\n      jump\t// out\n        /* \"contracts/GunzoZuYukiKoyano.sol\":22536:22634  function name() public view virtual override returns (string memory) {... */\n    tag_57:\n        /* \"contracts/GunzoZuYukiKoyano.sol\":22590:22603  string memory */\n      0x60\n        /* \"contracts/GunzoZuYukiKoyano.sol\":22622:22627  _name */\n      0x00\n        /* \"contracts/GunzoZuYukiKoyano.sol\":22615:22627  return _name */\n      dup1\n      sload\n      tag_211\n      swap1\n      tag_212\n      jump\t// in\n    tag_211:\n      dup1\n      0x1f\n      add\n      0x20\n      dup1\n      swap2\n      div\n      mul\n      0x20\n      add\n      mload(0x40)\n      swap1\n      dup2\n      add\n      0x40\n      mstore\n      dup1\n      swap3\n      swap2\n      swap1\n      dup2\n      dup2\n      mstore\n      0x20\n      add\n      dup3\n      dup1\n      sload\n      tag_213\n      swap1\n      tag_212\n      jump\t// in\n    tag_213:\n      dup1\n      iszero\n      tag_214\n      jumpi\n      dup1\n      0x1f\n      lt\n      tag_215\n      jumpi\n      0x0100\n      dup1\n      dup4\n      sload\n      div\n      mul\n      dup4\n      mstore\n      swap2\n      0x20\n      add\n      swap2\n      jump(tag_214)\n    tag_215:\n      dup3\n      add\n      swap2\n      swap1\n      0x00\n      mstore\n      keccak256(0x00, 0x20)\n      swap1\n    tag_216:\n      dup2\n      sload\n      dup2\n      mstore\n      swap1\n      0x01\n      add\n      swap1\n      0x20\n      add\n      dup1\n      dup4\n      gt\n      tag_216\n      jumpi\n      dup3\n      swap1\n      sub\n      0x1f\n      and\n      dup3\n      add\n      swap2\n    tag_214:\n      pop\n      pop\n      pop\n      pop\n      pop\n      swap1\n      pop\n        /* \"contracts/GunzoZuYukiKoyano.sol\":22536:22634  function name() public view virtual override returns (string memory) {... */\n      swap1\n      jump\t// out\n        /* \"contracts/GunzoZuYukiKoyano.sol\":24047:24264  function getApproved(uint256 tokenId) public view virtual override returns (address) {... */\n    tag_64:\n        /* \"contracts/GunzoZuYukiKoyano.sol\":24123:24130  address */\n      0x00\n        /* \"contracts/GunzoZuYukiKoyano.sol\":27432:27448  _owners[tokenId] */\n      dup2\n      dup2\n      mstore\n        /* \"contracts/GunzoZuYukiKoyano.sol\":27432:27439  _owners */\n      0x02\n        /* \"contracts/GunzoZuYukiKoyano.sol\":27432:27448  _owners[tokenId] */\n      0x20\n      mstore\n      0x40\n      dup2\n      keccak256\n      sload\n      sub(shl(0xa0, 0x01), 0x01)\n      and\n        /* \"contracts/GunzoZuYukiKoyano.sol\":24142:24215  require(_exists(tokenId), \"ERC721: approved query for nonexistent token\") */\n      tag_220\n      jumpi\n      mload(0x40)\n      shl(0xe5, 0x461bcd)\n      dup2\n      mstore\n        /* \"#utility.yul\":12634:12636   */\n      0x20\n        /* \"contracts/GunzoZuYukiKoyano.sol\":24142:24215  require(_exists(tokenId), \"ERC721: approved query for nonexistent token\") */\n      0x04\n      dup3\n      add\n        /* \"#utility.yul\":12616:12637   */\n      mstore\n        /* \"#utility.yul\":12673:12675   */\n      0x2c\n        /* \"#utility.yul\":12653:12671   */\n      0x24\n      dup3\n      add\n        /* \"#utility.yul\":12646:12676   */\n      mstore\n        /* \"#utility.yul\":12712:12746   */\n      0x4552433732313a20617070726f76656420717565727920666f72206e6f6e6578\n        /* \"#utility.yul\":12692:12710   */\n      0x44\n      dup3\n      add\n        /* \"#utility.yul\":12685:12747   */\n      mstore\n      shl(0xa1, 0x34b9ba32b73a103a37b5b2b7)\n        /* \"#utility.yul\":12763:12781   */\n      0x64\n      dup3\n      add\n        /* \"#utility.yul\":12756:12798   */\n      mstore\n        /* \"#utility.yul\":12815:12834   */\n      0x84\n      add\n        /* \"contracts/GunzoZuYukiKoyano.sol\":24142:24215  require(_exists(tokenId), \"ERC721: approved query for nonexistent token\") */\n      tag_207\n        /* \"#utility.yul\":12432:12840   */\n      jump\n        /* \"contracts/GunzoZuYukiKoyano.sol\":24142:24215  require(_exists(tokenId), \"ERC721: approved query for nonexistent token\") */\n    tag_220:\n      pop\n        /* \"contracts/GunzoZuYukiKoyano.sol\":24233:24257  _tokenApprovals[tokenId] */\n      0x00\n      swap1\n      dup2\n      mstore\n        /* \"contracts/GunzoZuYukiKoyano.sol\":24233:24248  _tokenApprovals */\n      0x04\n        /* \"contracts/GunzoZuYukiKoyano.sol\":24233:24257  _tokenApprovals[tokenId] */\n      0x20\n      mstore\n      0x40\n      swap1\n      keccak256\n      sload\n      sub(shl(0xa0, 0x01), 0x01)\n      and\n      swap1\n        /* \"contracts/GunzoZuYukiKoyano.sol\":24047:24264  function getApproved(uint256 tokenId) public view virtual override returns (address) {... */\n      jump\t// out\n        /* \"contracts/GunzoZuYukiKoyano.sol\":23585:23986  function approve(address to, uint256 tokenId) public virtual override {... */\n    tag_71:\n        /* \"contracts/GunzoZuYukiKoyano.sol\":23665:23678  address owner */\n      0x00\n        /* \"contracts/GunzoZuYukiKoyano.sol\":23681:23704  ERC721.ownerOf(tokenId) */\n      tag_224\n        /* \"contracts/GunzoZuYukiKoyano.sol\":23696:23703  tokenId */\n      dup3\n        /* \"contracts/GunzoZuYukiKoyano.sol\":23681:23695  ERC721.ownerOf */\n      tag_133\n        /* \"contracts/GunzoZuYukiKoyano.sol\":23681:23704  ERC721.ownerOf(tokenId) */\n      jump\t// in\n    tag_224:\n        /* \"contracts/GunzoZuYukiKoyano.sol\":23665:23704  address owner = ERC721.ownerOf(tokenId) */\n      swap1\n      pop\n        /* \"contracts/GunzoZuYukiKoyano.sol\":23728:23733  owner */\n      dup1\n      sub(shl(0xa0, 0x01), 0x01)\n        /* \"contracts/GunzoZuYukiKoyano.sol\":23722:23733  to != owner */\n      and\n        /* \"contracts/GunzoZuYukiKoyano.sol\":23722:23724  to */\n      dup4\n      sub(shl(0xa0, 0x01), 0x01)\n        /* \"contracts/GunzoZuYukiKoyano.sol\":23722:23733  to != owner */\n      and\n      eq\n      iszero\n        /* \"contracts/GunzoZuYukiKoyano.sol\":23714:23771  require(to != owner, \"ERC721: approval to current owner\") */\n      tag_225\n      jumpi\n      mload(0x40)\n      shl(0xe5, 0x461bcd)\n      dup2\n      mstore\n        /* \"#utility.yul\":14234:14236   */\n      0x20\n        /* \"contracts/GunzoZuYukiKoyano.sol\":23714:23771  require(to != owner, \"ERC721: approval to current owner\") */\n      0x04\n      dup3\n      add\n        /* \"#utility.yul\":14216:14237   */\n      mstore\n        /* \"#utility.yul\":14273:14275   */\n      0x21\n        /* \"#utility.yul\":14253:14271   */\n      0x24\n      dup3\n      add\n        /* \"#utility.yul\":14246:14276   */\n      mstore\n        /* \"#utility.yul\":14312:14346   */\n      0x4552433732313a20617070726f76616c20746f2063757272656e74206f776e65\n        /* \"#utility.yul\":14292:14310   */\n      0x44\n      dup3\n      add\n        /* \"#utility.yul\":14285:14347   */\n      mstore\n      shl(0xf9, 0x39)\n        /* \"#utility.yul\":14363:14381   */\n      0x64\n      dup3\n      add\n        /* \"#utility.yul\":14356:14387   */\n      mstore\n        /* \"#utility.yul\":14404:14423   */\n      0x84\n      add\n        /* \"contracts/GunzoZuYukiKoyano.sol\":23714:23771  require(to != owner, \"ERC721: approval to current owner\") */\n      tag_207\n        /* \"#utility.yul\":14032:14429   */\n      jump\n        /* \"contracts/GunzoZuYukiKoyano.sol\":23714:23771  require(to != owner, \"ERC721: approval to current owner\") */\n    tag_225:\n        /* \"contracts/GunzoZuYukiKoyano.sol\":20221:20231  msg.sender */\n      caller\n      sub(shl(0xa0, 0x01), 0x01)\n        /* \"contracts/GunzoZuYukiKoyano.sol\":23803:23824  _msgSender() == owner */\n      dup3\n      and\n      eq\n      dup1\n        /* \"contracts/GunzoZuYukiKoyano.sol\":23803:23865  _msgSender() == owner || isApprovedForAll(owner, _msgSender()) */\n      tag_230\n      jumpi\n      pop\n        /* \"contracts/GunzoZuYukiKoyano.sol\":23828:23865  isApprovedForAll(owner, _msgSender()) */\n      tag_230\n        /* \"contracts/GunzoZuYukiKoyano.sol\":23845:23850  owner */\n      dup2\n        /* \"contracts/GunzoZuYukiKoyano.sol\":20221:20231  msg.sender */\n      caller\n        /* \"contracts/GunzoZuYukiKoyano.sol\":24687:24849  function isApprovedForAll(address owner, address operator) public view virtual override returns (bool) {... */\n      tag_190\n      jump\t// in\n        /* \"contracts/GunzoZuYukiKoyano.sol\":23828:23865  isApprovedForAll(owner, _msgSender()) */\n    tag_230:\n        /* \"contracts/GunzoZuYukiKoyano.sol\":23782:23947  require(... */\n      tag_232\n      jumpi\n      mload(0x40)\n      shl(0xe5, 0x461bcd)\n      dup2\n      mstore\n        /* \"#utility.yul\":11027:11029   */\n      0x20\n        /* \"contracts/GunzoZuYukiKoyano.sol\":23782:23947  require(... */\n      0x04\n      dup3\n      add\n        /* \"#utility.yul\":11009:11030   */\n      mstore\n        /* \"#utility.yul\":11066:11068   */\n      0x38\n        /* \"#utility.yul\":11046:11064   */\n      0x24\n      dup3\n      add\n        /* \"#utility.yul\":11039:11069   */\n      mstore\n        /* \"#utility.yul\":11105:11139   */\n      0x4552433732313a20617070726f76652063616c6c6572206973206e6f74206f77\n        /* \"#utility.yul\":11085:11103   */\n      0x44\n      dup3\n      add\n        /* \"#utility.yul\":11078:11140   */\n      mstore\n        /* \"#utility.yul\":11176:11202   */\n      0x6e6572206e6f7220617070726f76656420666f7220616c6c0000000000000000\n        /* \"#utility.yul\":11156:11174   */\n      0x64\n      dup3\n      add\n        /* \"#utility.yul\":11149:11203   */\n      mstore\n        /* \"#utility.yul\":11220:11239   */\n      0x84\n      add\n        /* \"contracts/GunzoZuYukiKoyano.sol\":23782:23947  require(... */\n      tag_207\n        /* \"#utility.yul\":10825:11245   */\n      jump\n        /* \"contracts/GunzoZuYukiKoyano.sol\":23782:23947  require(... */\n    tag_232:\n        /* \"contracts/GunzoZuYukiKoyano.sol\":23958:23979  _approve(to, tokenId) */\n      tag_235\n        /* \"contracts/GunzoZuYukiKoyano.sol\":23967:23969  to */\n      dup4\n        /* \"contracts/GunzoZuYukiKoyano.sol\":23971:23978  tokenId */\n      dup4\n        /* \"contracts/GunzoZuYukiKoyano.sol\":23958:23966  _approve */\n      tag_236\n        /* \"contracts/GunzoZuYukiKoyano.sol\":23958:23979  _approve(to, tokenId) */\n      jump\t// in\n    tag_235:\n        /* \"contracts/GunzoZuYukiKoyano.sol\":23655:23986  {... */\n      pop\n        /* \"contracts/GunzoZuYukiKoyano.sol\":23585:23986  function approve(address to, uint256 tokenId) public virtual override {... */\n      pop\n      pop\n      jump\t// out\n        /* \"contracts/GunzoZuYukiKoyano.sol\":24911:25241  function transferFrom(... */\n    tag_89:\n        /* \"contracts/GunzoZuYukiKoyano.sol\":25100:25141  _isApprovedOrOwner(_msgSender(), tokenId) */\n      tag_239\n        /* \"contracts/GunzoZuYukiKoyano.sol\":20221:20231  msg.sender */\n      caller\n        /* \"contracts/GunzoZuYukiKoyano.sol\":25133:25140  tokenId */\n      dup3\n        /* \"contracts/GunzoZuYukiKoyano.sol\":25100:25118  _isApprovedOrOwner */\n      tag_241\n        /* \"contracts/GunzoZuYukiKoyano.sol\":25100:25141  _isApprovedOrOwner(_msgSender(), tokenId) */\n      jump\t// in\n    tag_239:\n        /* \"contracts/GunzoZuYukiKoyano.sol\":25092:25195  require(_isApprovedOrOwner(_msgSender(), tokenId), \"ERC721: transfer caller is not owner nor approved\") */\n      tag_242\n      jumpi\n      mload(0x40)\n      shl(0xe5, 0x461bcd)\n      dup2\n      mstore\n      0x04\n      add\n      tag_207\n      swap1\n      tag_244\n      jump\t// in\n    tag_242:\n        /* \"contracts/GunzoZuYukiKoyano.sol\":25206:25234  _transfer(from, to, tokenId) */\n      tag_235\n        /* \"contracts/GunzoZuYukiKoyano.sol\":25216:25220  from */\n      dup4\n        /* \"contracts/GunzoZuYukiKoyano.sol\":25222:25224  to */\n      dup4\n        /* \"contracts/GunzoZuYukiKoyano.sol\":25226:25233  tokenId */\n      dup4\n        /* \"contracts/GunzoZuYukiKoyano.sol\":25206:25215  _transfer */\n      tag_246\n        /* \"contracts/GunzoZuYukiKoyano.sol\":25206:25234  _transfer(from, to, tokenId) */\n      jump\t// in\n        /* \"contracts/GunzoZuYukiKoyano.sol\":34581:34834  function tokenOfOwnerByIndex(address owner, uint256 index) public view virtual override returns (uint256) {... */\n    tag_93:\n        /* \"contracts/GunzoZuYukiKoyano.sol\":34678:34685  uint256 */\n      0x00\n        /* \"contracts/GunzoZuYukiKoyano.sol\":34713:34736  ERC721.balanceOf(owner) */\n      tag_248\n        /* \"contracts/GunzoZuYukiKoyano.sol\":34730:34735  owner */\n      dup4\n        /* \"contracts/GunzoZuYukiKoyano.sol\":34713:34729  ERC721.balanceOf */\n      tag_138\n        /* \"contracts/GunzoZuYukiKoyano.sol\":34713:34736  ERC721.balanceOf(owner) */\n      jump\t// in\n    tag_248:\n        /* \"contracts/GunzoZuYukiKoyano.sol\":34705:34710  index */\n      dup3\n        /* \"contracts/GunzoZuYukiKoyano.sol\":34705:34736  index < ERC721.balanceOf(owner) */\n      lt\n        /* \"contracts/GunzoZuYukiKoyano.sol\":34697:34784  require(index < ERC721.balanceOf(owner), \"ERC721Enumerable: owner index out of bounds\") */\n      tag_249\n      jumpi\n      mload(0x40)\n      shl(0xe5, 0x461bcd)\n      dup2\n      mstore\n        /* \"#utility.yul\":8260:8262   */\n      0x20\n        /* \"contracts/GunzoZuYukiKoyano.sol\":34697:34784  require(index < ERC721.balanceOf(owner), \"ERC721Enumerable: owner index out of bounds\") */\n      0x04\n      dup3\n      add\n        /* \"#utility.yul\":8242:8263   */\n      mstore\n        /* \"#utility.yul\":8299:8301   */\n      0x2b\n        /* \"#utility.yul\":8279:8297   */\n      0x24\n      dup3\n      add\n        /* \"#utility.yul\":8272:8302   */\n      mstore\n        /* \"#utility.yul\":8338:8372   */\n      0x455243373231456e756d657261626c653a206f776e657220696e646578206f75\n        /* \"#utility.yul\":8318:8336   */\n      0x44\n      dup3\n      add\n        /* \"#utility.yul\":8311:8373   */\n      mstore\n      shl(0xa8, 0x74206f6620626f756e6473)\n        /* \"#utility.yul\":8389:8407   */\n      0x64\n      dup3\n      add\n        /* \"#utility.yul\":8382:8423   */\n      mstore\n        /* \"#utility.yul\":8440:8459   */\n      0x84\n      add\n        /* \"contracts/GunzoZuYukiKoyano.sol\":34697:34784  require(index < ERC721.balanceOf(owner), \"ERC721Enumerable: owner index out of bounds\") */\n      tag_207\n        /* \"#utility.yul\":8058:8465   */\n      jump\n        /* \"contracts/GunzoZuYukiKoyano.sol\":34697:34784  require(index < ERC721.balanceOf(owner), \"ERC721Enumerable: owner index out of bounds\") */\n    tag_249:\n      pop\n      sub(shl(0xa0, 0x01), 0x01)\n        /* \"contracts/GunzoZuYukiKoyano.sol\":34801:34820  _ownedTokens[owner] */\n      swap2\n      swap1\n      swap2\n      and\n      0x00\n      swap1\n      dup2\n      mstore\n        /* \"contracts/GunzoZuYukiKoyano.sol\":34801:34813  _ownedTokens */\n      0x06\n        /* \"contracts/GunzoZuYukiKoyano.sol\":34801:34820  _ownedTokens[owner] */\n      0x20\n      swap1\n      dup2\n      mstore\n      0x40\n      dup1\n      dup4\n      keccak256\n        /* \"contracts/GunzoZuYukiKoyano.sol\":34801:34827  _ownedTokens[owner][index] */\n      swap4\n      dup4\n      mstore\n      swap3\n      swap1\n      mstore\n      keccak256\n      sload\n      swap1\n        /* \"contracts/GunzoZuYukiKoyano.sol\":34581:34834  function tokenOfOwnerByIndex(address owner, uint256 index) public view virtual override returns (uint256) {... */\n      jump\t// out\n        /* \"contracts/GunzoZuYukiKoyano.sol\":45233:45632  function withdraw() public payable onlyOwner {... */\n    tag_96:\n        /* \"contracts/GunzoZuYukiKoyano.sol\":41325:41331  _owner */\n      and(sub(shl(0xa0, 0x01), 0x01), sload(0x0a))\n        /* \"contracts/GunzoZuYukiKoyano.sol\":20221:20231  msg.sender */\n      caller\n        /* \"contracts/GunzoZuYukiKoyano.sol\":41465:41488  owner() == _msgSender() */\n      eq\n        /* \"contracts/GunzoZuYukiKoyano.sol\":41457:41525  require(owner() == _msgSender(), \"Ownable: caller is not the owner\") */\n      tag_255\n      jumpi\n      mload(0x40)\n      shl(0xe5, 0x461bcd)\n      dup2\n      mstore\n      0x04\n      add\n      tag_207\n      swap1\n      tag_208\n      jump\t// in\n    tag_255:\n        /* \"contracts/GunzoZuYukiKoyano.sol\":45457:45464  bool os */\n      0x00\n        /* \"contracts/GunzoZuYukiKoyano.sol\":45478:45485  owner() */\n      tag_258\n        /* \"contracts/GunzoZuYukiKoyano.sol\":41325:41331  _owner */\n      and(sub(shl(0xa0, 0x01), 0x01), sload(0x0a))\n      swap1\n        /* \"contracts/GunzoZuYukiKoyano.sol\":41253:41338  function owner() public view virtual returns (address) {... */\n      jump\n        /* \"contracts/GunzoZuYukiKoyano.sol\":45478:45485  owner() */\n    tag_258:\n      sub(shl(0xa0, 0x01), 0x01)\n        /* \"contracts/GunzoZuYukiKoyano.sol\":45470:45491  payable(owner()).call */\n      and\n        /* \"contracts/GunzoZuYukiKoyano.sol\":45499:45520  address(this).balance */\n      selfbalance\n        /* \"contracts/GunzoZuYukiKoyano.sol\":45470:45525  payable(owner()).call{value: address(this).balance}(\"\") */\n      mload(0x40)\n      0x00\n      mload(0x40)\n      dup1\n      dup4\n      sub\n      dup2\n      dup6\n      dup8\n      gas\n      call\n      swap3\n      pop\n      pop\n      pop\n      returndatasize\n      dup1\n      0x00\n      dup2\n      eq\n      tag_263\n      jumpi\n      mload(0x40)\n      swap2\n      pop\n      and(add(returndatasize, 0x3f), not(0x1f))\n      dup3\n      add\n      0x40\n      mstore\n      returndatasize\n      dup3\n      mstore\n      returndatasize\n      0x00\n      0x20\n      dup5\n      add\n      returndatacopy\n      jump(tag_262)\n    tag_263:\n      0x60\n      swap2\n      pop\n    tag_262:\n      pop\n        /* \"contracts/GunzoZuYukiKoyano.sol\":45456:45525  (bool os, ) = payable(owner()).call{value: address(this).balance}(\"\") */\n      pop\n      swap1\n      pop\n        /* \"contracts/GunzoZuYukiKoyano.sol\":45539:45541  os */\n      dup1\n        /* \"contracts/GunzoZuYukiKoyano.sol\":45531:45542  require(os) */\n      tag_264\n      jumpi\n      0x00\n      dup1\n      revert\n    tag_264:\n        /* \"contracts/GunzoZuYukiKoyano.sol\":45278:45632  {... */\n      pop\n        /* \"contracts/GunzoZuYukiKoyano.sol\":45233:45632  function withdraw() public payable onlyOwner {... */\n      jump\t// out\n        /* \"contracts/GunzoZuYukiKoyano.sol\":25307:25486  function safeTransferFrom(... */\n    tag_100:\n        /* \"contracts/GunzoZuYukiKoyano.sol\":25440:25479  safeTransferFrom(from, to, tokenId, \"\") */\n      tag_235\n        /* \"contracts/GunzoZuYukiKoyano.sol\":25457:25461  from */\n      dup4\n        /* \"contracts/GunzoZuYukiKoyano.sol\":25463:25465  to */\n      dup4\n        /* \"contracts/GunzoZuYukiKoyano.sol\":25467:25474  tokenId */\n      dup4\n        /* \"contracts/GunzoZuYukiKoyano.sol\":25440:25479  safeTransferFrom(from, to, tokenId, \"\") */\n      mload(0x40)\n      dup1\n      0x20\n      add\n      0x40\n      mstore\n      dup1\n      0x00\n      dup2\n      mstore\n      pop\n        /* \"contracts/GunzoZuYukiKoyano.sol\":25440:25456  safeTransferFrom */\n      tag_170\n        /* \"contracts/GunzoZuYukiKoyano.sol\":25440:25479  safeTransferFrom(from, to, tokenId, \"\") */\n      jump\t// in\n        /* \"contracts/GunzoZuYukiKoyano.sol\":43685:44022  function walletOfOwner(address _owner)... */\n    tag_105:\n        /* \"contracts/GunzoZuYukiKoyano.sol\":43757:43773  uint256[] memory */\n      0x60\n        /* \"contracts/GunzoZuYukiKoyano.sol\":43783:43806  uint256 ownerTokenCount */\n      0x00\n        /* \"contracts/GunzoZuYukiKoyano.sol\":43809:43826  balanceOf(_owner) */\n      tag_268\n        /* \"contracts/GunzoZuYukiKoyano.sol\":43819:43825  _owner */\n      dup4\n        /* \"contracts/GunzoZuYukiKoyano.sol\":43809:43818  balanceOf */\n      tag_138\n        /* \"contracts/GunzoZuYukiKoyano.sol\":43809:43826  balanceOf(_owner) */\n      jump\t// in\n    tag_268:\n        /* \"contracts/GunzoZuYukiKoyano.sol\":43783:43826  uint256 ownerTokenCount = balanceOf(_owner) */\n      swap1\n      pop\n        /* \"contracts/GunzoZuYukiKoyano.sol\":43832:43857  uint256[] memory tokenIds */\n      0x00\n        /* \"contracts/GunzoZuYukiKoyano.sol\":43874:43889  ownerTokenCount */\n      dup2\n        /* \"contracts/GunzoZuYukiKoyano.sol\":43860:43890  new uint256[](ownerTokenCount) */\n      0xffffffffffffffff\n      dup2\n      gt\n      iszero\n      tag_270\n      jumpi\n      tag_270\n      tag_271\n      jump\t// in\n    tag_270:\n      mload(0x40)\n      swap1\n      dup1\n      dup3\n      mstore\n      dup1\n      0x20\n      mul\n      0x20\n      add\n      dup3\n      add\n      0x40\n      mstore\n      dup1\n      iszero\n      tag_272\n      jumpi\n      dup2\n      0x20\n      add\n      0x20\n      dup3\n      mul\n      dup1\n      calldatasize\n      dup4\n      calldatacopy\n      add\n      swap1\n      pop\n    tag_272:\n      pop\n        /* \"contracts/GunzoZuYukiKoyano.sol\":43832:43890  uint256[] memory tokenIds = new uint256[](ownerTokenCount) */\n      swap1\n      pop\n        /* \"contracts/GunzoZuYukiKoyano.sol\":43901:43910  uint256 i */\n      0x00\n        /* \"contracts/GunzoZuYukiKoyano.sol\":43896:43997  for (uint256 i; i < ownerTokenCount; i++) {... */\n    tag_273:\n        /* \"contracts/GunzoZuYukiKoyano.sol\":43916:43931  ownerTokenCount */\n      dup3\n        /* \"contracts/GunzoZuYukiKoyano.sol\":43912:43913  i */\n      dup2\n        /* \"contracts/GunzoZuYukiKoyano.sol\":43912:43931  i < ownerTokenCount */\n      lt\n        /* \"contracts/GunzoZuYukiKoyano.sol\":43896:43997  for (uint256 i; i < ownerTokenCount; i++) {... */\n      iszero\n      tag_274\n      jumpi\n        /* \"contracts/GunzoZuYukiKoyano.sol\":43960:43990  tokenOfOwnerByIndex(_owner, i) */\n      tag_276\n        /* \"contracts/GunzoZuYukiKoyano.sol\":43980:43986  _owner */\n      dup6\n        /* \"contracts/GunzoZuYukiKoyano.sol\":43988:43989  i */\n      dup3\n        /* \"contracts/GunzoZuYukiKoyano.sol\":43960:43979  tokenOfOwnerByIndex */\n      tag_93\n        /* \"contracts/GunzoZuYukiKoyano.sol\":43960:43990  tokenOfOwnerByIndex(_owner, i) */\n      jump\t// in\n    tag_276:\n        /* \"contracts/GunzoZuYukiKoyano.sol\":43946:43954  tokenIds */\n      dup3\n        /* \"contracts/GunzoZuYukiKoyano.sol\":43955:43956  i */\n      dup3\n        /* \"contracts/GunzoZuYukiKoyano.sol\":43946:43957  tokenIds[i] */\n      dup2\n      mload\n      dup2\n      lt\n      tag_278\n      jumpi\n      tag_278\n      tag_279\n      jump\t// in\n    tag_278:\n      0x20\n      swap1\n      dup2\n      mul\n      swap2\n      swap1\n      swap2\n      add\n      add\n        /* \"contracts/GunzoZuYukiKoyano.sol\":43946:43990  tokenIds[i] = tokenOfOwnerByIndex(_owner, i) */\n      mstore\n        /* \"contracts/GunzoZuYukiKoyano.sol\":43933:43936  i++ */\n      dup1\n      tag_280\n      dup2\n      tag_281\n      jump\t// in\n    tag_280:\n      swap2\n      pop\n      pop\n        /* \"contracts/GunzoZuYukiKoyano.sol\":43896:43997  for (uint256 i; i < ownerTokenCount; i++) {... */\n      jump(tag_273)\n    tag_274:\n      pop\n        /* \"contracts/GunzoZuYukiKoyano.sol\":44009:44017  tokenIds */\n      swap4\n        /* \"contracts/GunzoZuYukiKoyano.sol\":43685:44022  function walletOfOwner(address _owner)... */\n      swap3\n      pop\n      pop\n      pop\n      jump\t// out\n        /* \"contracts/GunzoZuYukiKoyano.sol\":44600:44678  function setCost(uint256 _newCost) public onlyOwner {... */\n    tag_111:\n        /* \"contracts/GunzoZuYukiKoyano.sol\":41325:41331  _owner */\n      and(sub(shl(0xa0, 0x01), 0x01), sload(0x0a))\n        /* \"contracts/GunzoZuYukiKoyano.sol\":20221:20231  msg.sender */\n      caller\n        /* \"contracts/GunzoZuYukiKoyano.sol\":41465:41488  owner() == _msgSender() */\n      eq\n        /* \"contracts/GunzoZuYukiKoyano.sol\":41457:41525  require(owner() == _msgSender(), \"Ownable: caller is not the owner\") */\n      tag_285\n      jumpi\n      mload(0x40)\n      shl(0xe5, 0x461bcd)\n      dup2\n      mstore\n      0x04\n      add\n      tag_207\n      swap1\n      tag_208\n      jump\t// in\n    tag_285:\n        /* \"contracts/GunzoZuYukiKoyano.sol\":44658:44662  cost */\n      0x0d\n        /* \"contracts/GunzoZuYukiKoyano.sol\":44658:44673  cost = _newCost */\n      sstore\n        /* \"contracts/GunzoZuYukiKoyano.sol\":44600:44678  function setCost(uint256 _newCost) public onlyOwner {... */\n      jump\t// out\n        /* \"contracts/GunzoZuYukiKoyano.sol\":35088:35318  function tokenByIndex(uint256 index) public view virtual override returns (uint256) {... */\n    tag_115:\n        /* \"contracts/GunzoZuYukiKoyano.sol\":35163:35170  uint256 */\n      0x00\n        /* \"contracts/GunzoZuYukiKoyano.sol\":35198:35228  ERC721Enumerable.totalSupply() */\n      tag_289\n        /* \"contracts/GunzoZuYukiKoyano.sol\":34992:35002  _allTokens */\n      0x08\n        /* \"contracts/GunzoZuYukiKoyano.sol\":34992:35009  _allTokens.length */\n      sload\n      swap1\n        /* \"contracts/GunzoZuYukiKoyano.sol\":34905:35016  function totalSupply() public view virtual override returns (uint256) {... */\n      jump\n        /* \"contracts/GunzoZuYukiKoyano.sol\":35198:35228  ERC721Enumerable.totalSupply() */\n    tag_289:\n        /* \"contracts/GunzoZuYukiKoyano.sol\":35190:35195  index */\n      dup3\n        /* \"contracts/GunzoZuYukiKoyano.sol\":35190:35228  index < ERC721Enumerable.totalSupply() */\n      lt\n        /* \"contracts/GunzoZuYukiKoyano.sol\":35182:35277  require(index < ERC721Enumerable.totalSupply(), \"ERC721Enumerable: global index out of bounds\") */\n      tag_290\n      jumpi\n      mload(0x40)\n      shl(0xe5, 0x461bcd)\n      dup2\n      mstore\n        /* \"#utility.yul\":15054:15056   */\n      0x20\n        /* \"contracts/GunzoZuYukiKoyano.sol\":35182:35277  require(index < ERC721Enumerable.totalSupply(), \"ERC721Enumerable: global index out of bounds\") */\n      0x04\n      dup3\n      add\n        /* \"#utility.yul\":15036:15057   */\n      mstore\n        /* \"#utility.yul\":15093:15095   */\n      0x2c\n        /* \"#utility.yul\":15073:15091   */\n      0x24\n      dup3\n      add\n        /* \"#utility.yul\":15066:15096   */\n      mstore\n        /* \"#utility.yul\":15132:15166   */\n      0x455243373231456e756d657261626c653a20676c6f62616c20696e646578206f\n        /* \"#utility.yul\":15112:15130   */\n      0x44\n      dup3\n      add\n        /* \"#utility.yul\":15105:15167   */\n      mstore\n      shl(0xa0, 0x7574206f6620626f756e6473)\n        /* \"#utility.yul\":15183:15201   */\n      0x64\n      dup3\n      add\n        /* \"#utility.yul\":15176:15218   */\n      mstore\n        /* \"#utility.yul\":15235:15254   */\n      0x84\n      add\n        /* \"contracts/GunzoZuYukiKoyano.sol\":35182:35277  require(index < ERC721Enumerable.totalSupply(), \"ERC721Enumerable: global index out of bounds\") */\n      tag_207\n        /* \"#utility.yul\":14852:15260   */\n      jump\n        /* \"contracts/GunzoZuYukiKoyano.sol\":35182:35277  require(index < ERC721Enumerable.totalSupply(), \"ERC721Enumerable: global index out of bounds\") */\n    tag_290:\n        /* \"contracts/GunzoZuYukiKoyano.sol\":35294:35304  _allTokens */\n      0x08\n        /* \"contracts/GunzoZuYukiKoyano.sol\":35305:35310  index */\n      dup3\n        /* \"contracts/GunzoZuYukiKoyano.sol\":35294:35311  _allTokens[index] */\n      dup2\n      sload\n      dup2\n      lt\n      tag_294\n      jumpi\n      tag_294\n      tag_279\n      jump\t// in\n    tag_294:\n      swap1\n      0x00\n      mstore\n      keccak256(0x00, 0x20)\n      add\n      sload\n        /* \"contracts/GunzoZuYukiKoyano.sol\":35287:35311  return _allTokens[index] */\n      swap1\n      pop\n        /* \"contracts/GunzoZuYukiKoyano.sol\":35088:35318  function tokenByIndex(uint256 index) public view virtual override returns (uint256) {... */\n      swap2\n      swap1\n      pop\n      jump\t// out\n        /* \"contracts/GunzoZuYukiKoyano.sol\":44933:45029  function setBaseURI(string memory _newBaseURI) public onlyOwner {... */\n    tag_125:\n        /* \"contracts/GunzoZuYukiKoyano.sol\":41325:41331  _owner */\n      and(sub(shl(0xa0, 0x01), 0x01), sload(0x0a))\n        /* \"contracts/GunzoZuYukiKoyano.sol\":20221:20231  msg.sender */\n      caller\n        /* \"contracts/GunzoZuYukiKoyano.sol\":41465:41488  owner() == _msgSender() */\n      eq\n        /* \"contracts/GunzoZuYukiKoyano.sol\":41457:41525  require(owner() == _msgSender(), \"Ownable: caller is not the owner\") */\n      tag_299\n      jumpi\n      mload(0x40)\n      shl(0xe5, 0x461bcd)\n      dup2\n      mstore\n      0x04\n      add\n      tag_207\n      swap1\n      tag_208\n      jump\t// in\n    tag_299:\n        /* \"contracts/GunzoZuYukiKoyano.sol\":45003:45024  baseURI = _newBaseURI */\n      dup1\n      mload\n      tag_302\n      swap1\n        /* \"contracts/GunzoZuYukiKoyano.sol\":45003:45010  baseURI */\n      0x0b\n      swap1\n        /* \"contracts/GunzoZuYukiKoyano.sol\":45003:45024  baseURI = _newBaseURI */\n      0x20\n      dup5\n      add\n      swap1\n      tag_303\n      jump\t// in\n    tag_302:\n      pop\n        /* \"contracts/GunzoZuYukiKoyano.sol\":44933:45029  function setBaseURI(string memory _newBaseURI) public onlyOwner {... */\n      pop\n      jump\t// out\n        /* \"contracts/GunzoZuYukiKoyano.sol\":22239:22474  function ownerOf(uint256 tokenId) public view virtual override returns (address) {... */\n    tag_133:\n        /* \"contracts/GunzoZuYukiKoyano.sol\":22311:22318  address */\n      0x00\n        /* \"contracts/GunzoZuYukiKoyano.sol\":22346:22362  _owners[tokenId] */\n      dup2\n      dup2\n      mstore\n        /* \"contracts/GunzoZuYukiKoyano.sol\":22346:22353  _owners */\n      0x02\n        /* \"contracts/GunzoZuYukiKoyano.sol\":22346:22362  _owners[tokenId] */\n      0x20\n      mstore\n      0x40\n      dup2\n      keccak256\n      sload\n      sub(shl(0xa0, 0x01), 0x01)\n      and\n        /* \"contracts/GunzoZuYukiKoyano.sol\":22380:22399  owner != address(0) */\n      dup1\n        /* \"contracts/GunzoZuYukiKoyano.sol\":22372:22445  require(owner != address(0), \"ERC721: owner query for nonexistent token\") */\n      tag_200\n      jumpi\n      mload(0x40)\n      shl(0xe5, 0x461bcd)\n      dup2\n      mstore\n        /* \"#utility.yul\":11863:11865   */\n      0x20\n        /* \"contracts/GunzoZuYukiKoyano.sol\":22372:22445  require(owner != address(0), \"ERC721: owner query for nonexistent token\") */\n      0x04\n      dup3\n      add\n        /* \"#utility.yul\":11845:11866   */\n      mstore\n        /* \"#utility.yul\":11902:11904   */\n      0x29\n        /* \"#utility.yul\":11882:11900   */\n      0x24\n      dup3\n      add\n        /* \"#utility.yul\":11875:11905   */\n      mstore\n        /* \"#utility.yul\":11941:11975   */\n      0x4552433732313a206f776e657220717565727920666f72206e6f6e6578697374\n        /* \"#utility.yul\":11921:11939   */\n      0x44\n      dup3\n      add\n        /* \"#utility.yul\":11914:11976   */\n      mstore\n      shl(0xb9, 0x32b73a103a37b5b2b7)\n        /* \"#utility.yul\":11992:12010   */\n      0x64\n      dup3\n      add\n        /* \"#utility.yul\":11985:12024   */\n      mstore\n        /* \"#utility.yul\":12041:12060   */\n      0x84\n      add\n        /* \"contracts/GunzoZuYukiKoyano.sol\":22372:22445  require(owner != address(0), \"ERC721: owner query for nonexistent token\") */\n      tag_207\n        /* \"#utility.yul\":11661:12066   */\n      jump\n        /* \"contracts/GunzoZuYukiKoyano.sol\":21977:22182  function balanceOf(address owner) public view virtual override returns (uint256) {... */\n    tag_138:\n        /* \"contracts/GunzoZuYukiKoyano.sol\":22049:22056  uint256 */\n      0x00\n      sub(shl(0xa0, 0x01), 0x01)\n        /* \"contracts/GunzoZuYukiKoyano.sol\":22076:22095  owner != address(0) */\n      dup3\n      and\n        /* \"contracts/GunzoZuYukiKoyano.sol\":22068:22142  require(owner != address(0), \"ERC721: balance query for the zero address\") */\n      tag_309\n      jumpi\n      mload(0x40)\n      shl(0xe5, 0x461bcd)\n      dup2\n      mstore\n        /* \"#utility.yul\":11452:11454   */\n      0x20\n        /* \"contracts/GunzoZuYukiKoyano.sol\":22068:22142  require(owner != address(0), \"ERC721: balance query for the zero address\") */\n      0x04\n      dup3\n      add\n        /* \"#utility.yul\":11434:11455   */\n      mstore\n        /* \"#utility.yul\":11491:11493   */\n      0x2a\n        /* \"#utility.yul\":11471:11489   */\n      0x24\n      dup3\n      add\n        /* \"#utility.yul\":11464:11494   */\n      mstore\n        /* \"#utility.yul\":11530:11564   */\n      0x4552433732313a2062616c616e636520717565727920666f7220746865207a65\n        /* \"#utility.yul\":11510:11528   */\n      0x44\n      dup3\n      add\n        /* \"#utility.yul\":11503:11565   */\n      mstore\n      shl(0xb0, 0x726f2061646472657373)\n        /* \"#utility.yul\":11581:11599   */\n      0x64\n      dup3\n      add\n        /* \"#utility.yul\":11574:11614   */\n      mstore\n        /* \"#utility.yul\":11631:11650   */\n      0x84\n      add\n        /* \"contracts/GunzoZuYukiKoyano.sol\":22068:22142  require(owner != address(0), \"ERC721: balance query for the zero address\") */\n      tag_207\n        /* \"#utility.yul\":11250:11656   */\n      jump\n        /* \"contracts/GunzoZuYukiKoyano.sol\":22068:22142  require(owner != address(0), \"ERC721: balance query for the zero address\") */\n    tag_309:\n      pop\n      sub(shl(0xa0, 0x01), 0x01)\n        /* \"contracts/GunzoZuYukiKoyano.sol\":22159:22175  _balances[owner] */\n      and\n      0x00\n      swap1\n      dup2\n      mstore\n        /* \"contracts/GunzoZuYukiKoyano.sol\":22159:22168  _balances */\n      0x03\n        /* \"contracts/GunzoZuYukiKoyano.sol\":22159:22175  _balances[owner] */\n      0x20\n      mstore\n      0x40\n      swap1\n      keccak256\n      sload\n      swap1\n        /* \"contracts/GunzoZuYukiKoyano.sol\":21977:22182  function balanceOf(address owner) public view virtual override returns (uint256) {... */\n      jump\t// out\n        /* \"contracts/GunzoZuYukiKoyano.sol\":41885:41977  function renounceOwnership() public virtual onlyOwner {... */\n    tag_142:\n        /* \"contracts/GunzoZuYukiKoyano.sol\":41325:41331  _owner */\n      and(sub(shl(0xa0, 0x01), 0x01), sload(0x0a))\n        /* \"contracts/GunzoZuYukiKoyano.sol\":20221:20231  msg.sender */\n      caller\n        /* \"contracts/GunzoZuYukiKoyano.sol\":41465:41488  owner() == _msgSender() */\n      eq\n        /* \"contracts/GunzoZuYukiKoyano.sol\":41457:41525  require(owner() == _msgSender(), \"Ownable: caller is not the owner\") */\n      tag_315\n      jumpi\n      mload(0x40)\n      shl(0xe5, 0x461bcd)\n      dup2\n      mstore\n      0x04\n      add\n      tag_207\n      swap1\n      tag_208\n      jump\t// in\n    tag_315:\n        /* \"contracts/GunzoZuYukiKoyano.sol\":41949:41970  _setOwner(address(0)) */\n      tag_318\n        /* \"contracts/GunzoZuYukiKoyano.sol\":41967:41968  0 */\n      0x00\n        /* \"contracts/GunzoZuYukiKoyano.sol\":41949:41958  _setOwner */\n      tag_319\n        /* \"contracts/GunzoZuYukiKoyano.sol\":41949:41970  _setOwner(address(0)) */\n      jump\t// in\n    tag_318:\n        /* \"contracts/GunzoZuYukiKoyano.sol\":41885:41977  function renounceOwnership() public virtual onlyOwner {... */\n      jump\t// out\n        /* \"contracts/GunzoZuYukiKoyano.sol\":44682:44796  function setmaxMintAmount(uint256 _newmaxMintAmount) public onlyOwner {... */\n    tag_146:\n        /* \"contracts/GunzoZuYukiKoyano.sol\":41325:41331  _owner */\n      and(sub(shl(0xa0, 0x01), 0x01), sload(0x0a))\n        /* \"contracts/GunzoZuYukiKoyano.sol\":20221:20231  msg.sender */\n      caller\n        /* \"contracts/GunzoZuYukiKoyano.sol\":41465:41488  owner() == _msgSender() */\n      eq\n        /* \"contracts/GunzoZuYukiKoyano.sol\":41457:41525  require(owner() == _msgSender(), \"Ownable: caller is not the owner\") */\n      tag_323\n      jumpi\n      mload(0x40)\n      shl(0xe5, 0x461bcd)\n      dup2\n      mstore\n      0x04\n      add\n      tag_207\n      swap1\n      tag_208\n      jump\t// in\n    tag_323:\n        /* \"contracts/GunzoZuYukiKoyano.sol\":44758:44771  maxMintAmount */\n      0x0f\n        /* \"contracts/GunzoZuYukiKoyano.sol\":44758:44791  maxMintAmount = _newmaxMintAmount */\n      sstore\n        /* \"contracts/GunzoZuYukiKoyano.sol\":44682:44796  function setmaxMintAmount(uint256 _newmaxMintAmount) public onlyOwner {... */\n      jump\t// out\n        /* \"contracts/GunzoZuYukiKoyano.sol\":22698:22800  function symbol() public view virtual override returns (string memory) {... */\n    tag_153:\n        /* \"contracts/GunzoZuYukiKoyano.sol\":22754:22767  string memory */\n      0x60\n        /* \"contracts/GunzoZuYukiKoyano.sol\":22786:22793  _symbol */\n      0x01\n        /* \"contracts/GunzoZuYukiKoyano.sol\":22779:22793  return _symbol */\n      dup1\n      sload\n      tag_211\n      swap1\n      tag_212\n      jump\t// in\n        /* \"contracts/GunzoZuYukiKoyano.sol\":43262:43681  function mint(uint256 _mintAmount) public payable {... */\n    tag_157:\n        /* \"contracts/GunzoZuYukiKoyano.sol\":43318:43332  uint256 supply */\n      0x00\n        /* \"contracts/GunzoZuYukiKoyano.sol\":43335:43348  totalSupply() */\n      tag_334\n        /* \"contracts/GunzoZuYukiKoyano.sol\":34992:35002  _allTokens */\n      0x08\n        /* \"contracts/GunzoZuYukiKoyano.sol\":34992:35009  _allTokens.length */\n      sload\n      swap1\n        /* \"contracts/GunzoZuYukiKoyano.sol\":34905:35016  function totalSupply() public view virtual override returns (uint256) {... */\n      jump\n        /* \"contracts/GunzoZuYukiKoyano.sol\":43335:43348  totalSupply() */\n    tag_334:\n        /* \"contracts/GunzoZuYukiKoyano.sol\":43363:43369  paused */\n      sload(0x10)\n        /* \"contracts/GunzoZuYukiKoyano.sol\":43318:43348  uint256 supply = totalSupply() */\n      swap1\n      swap2\n      pop\n        /* \"contracts/GunzoZuYukiKoyano.sol\":43363:43369  paused */\n      0xff\n      and\n        /* \"contracts/GunzoZuYukiKoyano.sol\":43362:43369  !paused */\n      iszero\n        /* \"contracts/GunzoZuYukiKoyano.sol\":43354:43370  require(!paused) */\n      tag_335\n      jumpi\n      0x00\n      dup1\n      revert\n    tag_335:\n        /* \"contracts/GunzoZuYukiKoyano.sol\":43398:43399  0 */\n      0x00\n        /* \"contracts/GunzoZuYukiKoyano.sol\":43384:43395  _mintAmount */\n      dup3\n        /* \"contracts/GunzoZuYukiKoyano.sol\":43384:43399  _mintAmount > 0 */\n      gt\n        /* \"contracts/GunzoZuYukiKoyano.sol\":43376:43400  require(_mintAmount > 0) */\n      tag_336\n      jumpi\n      0x00\n      dup1\n      revert\n    tag_336:\n        /* \"contracts/GunzoZuYukiKoyano.sol\":43429:43442  maxMintAmount */\n      sload(0x0f)\n        /* \"contracts/GunzoZuYukiKoyano.sol\":43414:43425  _mintAmount */\n      dup3\n        /* \"contracts/GunzoZuYukiKoyano.sol\":43414:43442  _mintAmount <= maxMintAmount */\n      gt\n      iszero\n        /* \"contracts/GunzoZuYukiKoyano.sol\":43406:43443  require(_mintAmount <= maxMintAmount) */\n      tag_337\n      jumpi\n      0x00\n      dup1\n      revert\n    tag_337:\n        /* \"contracts/GunzoZuYukiKoyano.sol\":43481:43490  maxSupply */\n      sload(0x0e)\n        /* \"contracts/GunzoZuYukiKoyano.sol\":43457:43477  supply + _mintAmount */\n      tag_338\n        /* \"contracts/GunzoZuYukiKoyano.sol\":43466:43477  _mintAmount */\n      dup4\n        /* \"contracts/GunzoZuYukiKoyano.sol\":43457:43463  supply */\n      dup4\n        /* \"contracts/GunzoZuYukiKoyano.sol\":43457:43477  supply + _mintAmount */\n      tag_339\n      jump\t// in\n    tag_338:\n        /* \"contracts/GunzoZuYukiKoyano.sol\":43457:43490  supply + _mintAmount <= maxSupply */\n      gt\n      iszero\n        /* \"contracts/GunzoZuYukiKoyano.sol\":43449:43491  require(supply + _mintAmount <= maxSupply) */\n      tag_340\n      jumpi\n      0x00\n      dup1\n      revert\n    tag_340:\n        /* \"contracts/GunzoZuYukiKoyano.sol\":41325:41331  _owner */\n      and(sub(shl(0xa0, 0x01), 0x01), sload(0x0a))\n        /* \"contracts/GunzoZuYukiKoyano.sol\":43502:43512  msg.sender */\n      caller\n        /* \"contracts/GunzoZuYukiKoyano.sol\":43502:43523  msg.sender != owner() */\n      eq\n        /* \"contracts/GunzoZuYukiKoyano.sol\":43498:43580  if (msg.sender != owner()) {... */\n      tag_345\n      jumpi\n        /* \"contracts/GunzoZuYukiKoyano.sol\":43561:43572  _mintAmount */\n      dup2\n        /* \"contracts/GunzoZuYukiKoyano.sol\":43554:43558  cost */\n      sload(0x0d)\n        /* \"contracts/GunzoZuYukiKoyano.sol\":43554:43572  cost * _mintAmount */\n      tag_343\n      swap2\n      swap1\n      tag_344\n      jump\t// in\n    tag_343:\n        /* \"contracts/GunzoZuYukiKoyano.sol\":43541:43550  msg.value */\n      callvalue\n        /* \"contracts/GunzoZuYukiKoyano.sol\":43541:43572  msg.value >= cost * _mintAmount */\n      lt\n      iszero\n        /* \"contracts/GunzoZuYukiKoyano.sol\":43533:43573  require(msg.value >= cost * _mintAmount) */\n      tag_345\n      jumpi\n      0x00\n      dup1\n      revert\n    tag_345:\n        /* \"contracts/GunzoZuYukiKoyano.sol\":43603:43604  1 */\n      0x01\n        /* \"contracts/GunzoZuYukiKoyano.sol\":43586:43677  for (uint256 i = 1; i <= _mintAmount; i++) {... */\n    tag_346:\n        /* \"contracts/GunzoZuYukiKoyano.sol\":43611:43622  _mintAmount */\n      dup3\n        /* \"contracts/GunzoZuYukiKoyano.sol\":43606:43607  i */\n      dup2\n        /* \"contracts/GunzoZuYukiKoyano.sol\":43606:43622  i <= _mintAmount */\n      gt\n        /* \"contracts/GunzoZuYukiKoyano.sol\":43586:43677  for (uint256 i = 1; i <= _mintAmount; i++) {... */\n      tag_235\n      jumpi\n        /* \"contracts/GunzoZuYukiKoyano.sol\":43637:43670  _safeMint(msg.sender, supply + i) */\n      tag_349\n        /* \"contracts/GunzoZuYukiKoyano.sol\":43647:43657  msg.sender */\n      caller\n        /* \"contracts/GunzoZuYukiKoyano.sol\":43659:43669  supply + i */\n      tag_350\n        /* \"contracts/GunzoZuYukiKoyano.sol\":43668:43669  i */\n      dup4\n        /* \"contracts/GunzoZuYukiKoyano.sol\":43659:43665  supply */\n      dup6\n        /* \"contracts/GunzoZuYukiKoyano.sol\":43659:43669  supply + i */\n      tag_339\n      jump\t// in\n    tag_350:\n        /* \"contracts/GunzoZuYukiKoyano.sol\":43637:43646  _safeMint */\n      tag_351\n        /* \"contracts/GunzoZuYukiKoyano.sol\":43637:43670  _safeMint(msg.sender, supply + i) */\n      jump\t// in\n    tag_349:\n        /* \"contracts/GunzoZuYukiKoyano.sol\":43624:43627  i++ */\n      dup1\n      tag_352\n      dup2\n      tag_281\n      jump\t// in\n    tag_352:\n      swap2\n      pop\n      pop\n        /* \"contracts/GunzoZuYukiKoyano.sol\":43586:43677  for (uint256 i = 1; i <= _mintAmount; i++) {... */\n      jump(tag_346)\n        /* \"contracts/GunzoZuYukiKoyano.sol\":24331:24621  function setApprovalForAll(address operator, bool approved) public virtual override {... */\n    tag_162:\n      sub(shl(0xa0, 0x01), 0x01)\n        /* \"contracts/GunzoZuYukiKoyano.sol\":24433:24457  operator != _msgSender() */\n      dup3\n      and\n        /* \"contracts/GunzoZuYukiKoyano.sol\":20221:20231  msg.sender */\n      caller\n        /* \"contracts/GunzoZuYukiKoyano.sol\":24433:24457  operator != _msgSender() */\n      eq\n      iszero\n        /* \"contracts/GunzoZuYukiKoyano.sol\":24425:24487  require(operator != _msgSender(), \"ERC721: approve to caller\") */\n      tag_355\n      jumpi\n      mload(0x40)\n      shl(0xe5, 0x461bcd)\n      dup2\n      mstore\n        /* \"#utility.yul\":10260:10262   */\n      0x20\n        /* \"contracts/GunzoZuYukiKoyano.sol\":24425:24487  require(operator != _msgSender(), \"ERC721: approve to caller\") */\n      0x04\n      dup3\n      add\n        /* \"#utility.yul\":10242:10263   */\n      mstore\n        /* \"#utility.yul\":10299:10301   */\n      0x19\n        /* \"#utility.yul\":10279:10297   */\n      0x24\n      dup3\n      add\n        /* \"#utility.yul\":10272:10302   */\n      mstore\n        /* \"#utility.yul\":10338:10365   */\n      0x4552433732313a20617070726f766520746f2063616c6c657200000000000000\n        /* \"#utility.yul\":10318:10336   */\n      0x44\n      dup3\n      add\n        /* \"#utility.yul\":10311:10366   */\n      mstore\n        /* \"#utility.yul\":10383:10401   */\n      0x64\n      add\n        /* \"contracts/GunzoZuYukiKoyano.sol\":24425:24487  require(operator != _msgSender(), \"ERC721: approve to caller\") */\n      tag_207\n        /* \"#utility.yul\":10058:10407   */\n      jump\n        /* \"contracts/GunzoZuYukiKoyano.sol\":24425:24487  require(operator != _msgSender(), \"ERC721: approve to caller\") */\n    tag_355:\n        /* \"contracts/GunzoZuYukiKoyano.sol\":20221:20231  msg.sender */\n      caller\n        /* \"contracts/GunzoZuYukiKoyano.sol\":24498:24530  _operatorApprovals[_msgSender()] */\n      0x00\n      dup2\n      dup2\n      mstore\n        /* \"contracts/GunzoZuYukiKoyano.sol\":24498:24516  _operatorApprovals */\n      0x05\n        /* \"contracts/GunzoZuYukiKoyano.sol\":24498:24530  _operatorApprovals[_msgSender()] */\n      0x20\n      swap1\n      dup2\n      mstore\n      0x40\n      dup1\n      dup4\n      keccak256\n      sub(shl(0xa0, 0x01), 0x01)\n        /* \"contracts/GunzoZuYukiKoyano.sol\":24498:24540  _operatorApprovals[_msgSender()][operator] */\n      dup8\n      and\n      dup1\n      dup6\n      mstore\n      swap1\n      dup4\n      mstore\n      swap3\n      dup2\n      swap1\n      keccak256\n        /* \"contracts/GunzoZuYukiKoyano.sol\":24498:24551  _operatorApprovals[_msgSender()][operator] = approved */\n      dup1\n      sload\n      not(0xff)\n      and\n      dup7\n      iszero\n      iszero\n      swap1\n      dup2\n      or\n      swap1\n      swap2\n      sstore\n        /* \"contracts/GunzoZuYukiKoyano.sol\":24566:24614  ApprovalForAll(_msgSender(), operator, approved) */\n      swap1\n      mload\n        /* \"#utility.yul\":7782:7823   */\n      swap1\n      dup2\n      mstore\n        /* \"contracts/GunzoZuYukiKoyano.sol\":24498:24540  _operatorApprovals[_msgSender()][operator] */\n      swap2\n      swap3\n        /* \"contracts/GunzoZuYukiKoyano.sol\":20221:20231  msg.sender */\n      swap2\n        /* \"contracts/GunzoZuYukiKoyano.sol\":24566:24614  ApprovalForAll(_msgSender(), operator, approved) */\n      0x17307eab39ab6107e8899845ad3d59bd9653f200f220920489ca2b5937696c31\n      swap2\n        /* \"#utility.yul\":7755:7773   */\n      add\n        /* \"contracts/GunzoZuYukiKoyano.sol\":24566:24614  ApprovalForAll(_msgSender(), operator, approved) */\n      mload(0x40)\n      dup1\n      swap2\n      sub\n      swap1\n      log3\n        /* \"contracts/GunzoZuYukiKoyano.sol\":24331:24621  function setApprovalForAll(address operator, bool approved) public virtual override {... */\n      pop\n      pop\n      jump\t// out\n        /* \"contracts/GunzoZuYukiKoyano.sol\":44531:44594  function reveal() public onlyOwner {... */\n    tag_165:\n        /* \"contracts/GunzoZuYukiKoyano.sol\":41325:41331  _owner */\n      and(sub(shl(0xa0, 0x01), 0x01), sload(0x0a))\n        /* \"contracts/GunzoZuYukiKoyano.sol\":20221:20231  msg.sender */\n      caller\n        /* \"contracts/GunzoZuYukiKoyano.sol\":41465:41488  owner() == _msgSender() */\n      eq\n        /* \"contracts/GunzoZuYukiKoyano.sol\":41457:41525  require(owner() == _msgSender(), \"Ownable: caller is not the owner\") */\n      tag_364\n      jumpi\n      mload(0x40)\n      shl(0xe5, 0x461bcd)\n      dup2\n      mstore\n      0x04\n      add\n      tag_207\n      swap1\n      tag_208\n      jump\t// in\n    tag_364:\n        /* \"contracts/GunzoZuYukiKoyano.sol\":44574:44582  revealed */\n      0x10\n        /* \"contracts/GunzoZuYukiKoyano.sol\":44574:44589  revealed = true */\n      dup1\n      sload\n      not(0xff00)\n      and\n      0x0100\n      or\n      swap1\n      sstore\n        /* \"contracts/GunzoZuYukiKoyano.sol\":44531:44594  function reveal() public onlyOwner {... */\n      jump\t// out\n        /* \"contracts/GunzoZuYukiKoyano.sol\":25552:25872  function safeTransferFrom(... */\n    tag_170:\n        /* \"contracts/GunzoZuYukiKoyano.sol\":25721:25762  _isApprovedOrOwner(_msgSender(), tokenId) */\n      tag_368\n        /* \"contracts/GunzoZuYukiKoyano.sol\":20221:20231  msg.sender */\n      caller\n        /* \"contracts/GunzoZuYukiKoyano.sol\":25754:25761  tokenId */\n      dup4\n        /* \"contracts/GunzoZuYukiKoyano.sol\":25721:25739  _isApprovedOrOwner */\n      tag_241\n        /* \"contracts/GunzoZuYukiKoyano.sol\":25721:25762  _isApprovedOrOwner(_msgSender(), tokenId) */\n      jump\t// in\n    tag_368:\n        /* \"contracts/GunzoZuYukiKoyano.sol\":25713:25816  require(_isApprovedOrOwner(_msgSender(), tokenId), \"ERC721: transfer caller is not owner nor approved\") */\n      tag_370\n      jumpi\n      mload(0x40)\n      shl(0xe5, 0x461bcd)\n      dup2\n      mstore\n      0x04\n      add\n      tag_207\n      swap1\n      tag_244\n      jump\t// in\n    tag_370:\n        /* \"contracts/GunzoZuYukiKoyano.sol\":25826:25865  _safeTransfer(from, to, tokenId, _data) */\n      tag_372\n        /* \"contracts/GunzoZuYukiKoyano.sol\":25840:25844  from */\n      dup5\n        /* \"contracts/GunzoZuYukiKoyano.sol\":25846:25848  to */\n      dup5\n        /* \"contracts/GunzoZuYukiKoyano.sol\":25850:25857  tokenId */\n      dup5\n        /* \"contracts/GunzoZuYukiKoyano.sol\":25859:25864  _data */\n      dup5\n        /* \"contracts/GunzoZuYukiKoyano.sol\":25826:25839  _safeTransfer */\n      tag_373\n        /* \"contracts/GunzoZuYukiKoyano.sol\":25826:25865  _safeTransfer(from, to, tokenId, _data) */\n      jump\t// in\n    tag_372:\n        /* \"contracts/GunzoZuYukiKoyano.sol\":25552:25872  function safeTransferFrom(... */\n      pop\n      pop\n      pop\n      pop\n      jump\t// out\n        /* \"contracts/GunzoZuYukiKoyano.sol\":42636:42673  string public baseExtension = \".json\" */\n    tag_173:\n      0x0c\n      dup1\n      sload\n      tag_374\n      swap1\n      tag_212\n      jump\t// in\n    tag_374:\n      dup1\n      0x1f\n      add\n      0x20\n      dup1\n      swap2\n      div\n      mul\n      0x20\n      add\n      mload(0x40)\n      swap1\n      dup2\n      add\n      0x40\n      mstore\n      dup1\n      swap3\n      swap2\n      swap1\n      dup2\n      dup2\n      mstore\n      0x20\n      add\n      dup3\n      dup1\n      sload\n      tag_375\n      swap1\n      tag_212\n      jump\t// in\n    tag_375:\n      dup1\n      iszero\n      tag_376\n      jumpi\n      dup1\n      0x1f\n      lt\n      tag_377\n      jumpi\n      0x0100\n      dup1\n      dup4\n      sload\n      div\n      mul\n      dup4\n      mstore\n      swap2\n      0x20\n      add\n      swap2\n      jump(tag_376)\n    tag_377:\n      dup3\n      add\n      swap2\n      swap1\n      0x00\n      mstore\n      keccak256(0x00, 0x20)\n      swap1\n    tag_378:\n      dup2\n      sload\n      dup2\n      mstore\n      swap1\n      0x01\n      add\n      swap1\n      0x20\n      add\n      dup1\n      dup4\n      gt\n      tag_378\n      jumpi\n      dup3\n      swap1\n      sub\n      0x1f\n      and\n      dup3\n      add\n      swap2\n    tag_376:\n      pop\n      pop\n      pop\n      pop\n      pop\n      dup2\n      jump\t// out\n        /* \"contracts/GunzoZuYukiKoyano.sol\":44026:44512  function tokenURI(uint256 tokenId)... */\n    tag_178:\n        /* \"contracts/GunzoZuYukiKoyano.sol\":27409:27413  bool */\n      0x00\n        /* \"contracts/GunzoZuYukiKoyano.sol\":27432:27448  _owners[tokenId] */\n      dup2\n      dup2\n      mstore\n        /* \"contracts/GunzoZuYukiKoyano.sol\":27432:27439  _owners */\n      0x02\n        /* \"contracts/GunzoZuYukiKoyano.sol\":27432:27448  _owners[tokenId] */\n      0x20\n      mstore\n      0x40\n      swap1\n      keccak256\n      sload\n        /* \"contracts/GunzoZuYukiKoyano.sol\":44119:44132  string memory */\n      0x60\n      swap1\n      sub(shl(0xa0, 0x01), 0x01)\n        /* \"contracts/GunzoZuYukiKoyano.sol\":27432:27448  _owners[tokenId] */\n      and\n        /* \"contracts/GunzoZuYukiKoyano.sol\":44142:44236  require(... */\n      tag_381\n      jumpi\n      mload(0x40)\n      shl(0xe5, 0x461bcd)\n      dup2\n      mstore\n        /* \"#utility.yul\":13818:13820   */\n      0x20\n        /* \"contracts/GunzoZuYukiKoyano.sol\":44142:44236  require(... */\n      0x04\n      dup3\n      add\n        /* \"#utility.yul\":13800:13821   */\n      mstore\n        /* \"#utility.yul\":13857:13859   */\n      0x2f\n        /* \"#utility.yul\":13837:13855   */\n      0x24\n      dup3\n      add\n        /* \"#utility.yul\":13830:13860   */\n      mstore\n        /* \"#utility.yul\":13896:13930   */\n      0x4552433732314d657461646174613a2055524920717565727920666f72206e6f\n        /* \"#utility.yul\":13876:13894   */\n      0x44\n      dup3\n      add\n        /* \"#utility.yul\":13869:13931   */\n      mstore\n      shl(0x89, 0x3732bc34b9ba32b73a103a37b5b2b7)\n        /* \"#utility.yul\":13947:13965   */\n      0x64\n      dup3\n      add\n        /* \"#utility.yul\":13940:13985   */\n      mstore\n        /* \"#utility.yul\":14002:14021   */\n      0x84\n      add\n        /* \"contracts/GunzoZuYukiKoyano.sol\":44142:44236  require(... */\n      tag_207\n        /* \"#utility.yul\":13616:14027   */\n      jump\n        /* \"contracts/GunzoZuYukiKoyano.sol\":44142:44236  require(... */\n    tag_381:\n        /* \"contracts/GunzoZuYukiKoyano.sol\":44322:44350  string memory currentBaseURI */\n      0x00\n        /* \"contracts/GunzoZuYukiKoyano.sol\":44353:44363  _baseURI() */\n      tag_384\n        /* \"contracts/GunzoZuYukiKoyano.sol\":44353:44361  _baseURI */\n      tag_385\n        /* \"contracts/GunzoZuYukiKoyano.sol\":44353:44363  _baseURI() */\n      jump\t// in\n    tag_384:\n        /* \"contracts/GunzoZuYukiKoyano.sol\":44322:44363  string memory currentBaseURI = _baseURI() */\n      swap1\n      pop\n        /* \"contracts/GunzoZuYukiKoyano.sol\":44407:44408  0 */\n      0x00\n        /* \"contracts/GunzoZuYukiKoyano.sol\":44382:44396  currentBaseURI */\n      dup2\n        /* \"contracts/GunzoZuYukiKoyano.sol\":44376:44404  bytes(currentBaseURI).length */\n      mload\n        /* \"contracts/GunzoZuYukiKoyano.sol\":44376:44408  bytes(currentBaseURI).length > 0 */\n      gt\n        /* \"contracts/GunzoZuYukiKoyano.sol\":44376:44507  bytes(currentBaseURI).length > 0... */\n      tag_386\n      jumpi\n      mload(0x40)\n      dup1\n      0x20\n      add\n      0x40\n      mstore\n      dup1\n      0x00\n      dup2\n      mstore\n      pop\n      jump(tag_387)\n    tag_386:\n        /* \"contracts/GunzoZuYukiKoyano.sol\":44443:44457  currentBaseURI */\n      dup1\n        /* \"contracts/GunzoZuYukiKoyano.sol\":44459:44477  tokenId.toString() */\n      tag_388\n        /* \"contracts/GunzoZuYukiKoyano.sol\":44459:44466  tokenId */\n      dup5\n        /* \"contracts/GunzoZuYukiKoyano.sol\":44459:44475  tokenId.toString */\n      tag_389\n        /* \"contracts/GunzoZuYukiKoyano.sol\":44459:44477  tokenId.toString() */\n      jump\t// in\n    tag_388:\n        /* \"contracts/GunzoZuYukiKoyano.sol\":44479:44492  baseExtension */\n      0x0c\n        /* \"contracts/GunzoZuYukiKoyano.sol\":44426:44493  abi.encodePacked(currentBaseURI, tokenId.toString(), baseExtension) */\n      add(0x20, mload(0x40))\n      tag_390\n      swap4\n      swap3\n      swap2\n      swap1\n      tag_391\n      jump\t// in\n    tag_390:\n      mload(0x40)\n      0x20\n      dup2\n      dup4\n      sub\n      sub\n      dup2\n      mstore\n      swap1\n      0x40\n      mstore\n        /* \"contracts/GunzoZuYukiKoyano.sol\":44376:44507  bytes(currentBaseURI).length > 0... */\n    tag_387:\n        /* \"contracts/GunzoZuYukiKoyano.sol\":44369:44507  return bytes(currentBaseURI).length > 0... */\n      swap4\n        /* \"contracts/GunzoZuYukiKoyano.sol\":44026:44512  function tokenURI(uint256 tokenId)... */\n      swap3\n      pop\n      pop\n      pop\n      jump\t// out\n        /* \"contracts/GunzoZuYukiKoyano.sol\":45033:45153  function setBaseExtension(string memory _newBaseExtension) public onlyOwner {... */\n    tag_187:\n        /* \"contracts/GunzoZuYukiKoyano.sol\":41325:41331  _owner */\n      and(sub(shl(0xa0, 0x01), 0x01), sload(0x0a))\n        /* \"contracts/GunzoZuYukiKoyano.sol\":20221:20231  msg.sender */\n      caller\n        /* \"contracts/GunzoZuYukiKoyano.sol\":41465:41488  owner() == _msgSender() */\n      eq\n        /* \"contracts/GunzoZuYukiKoyano.sol\":41457:41525  require(owner() == _msgSender(), \"Ownable: caller is not the owner\") */\n      tag_395\n      jumpi\n      mload(0x40)\n      shl(0xe5, 0x461bcd)\n      dup2\n      mstore\n      0x04\n      add\n      tag_207\n      swap1\n      tag_208\n      jump\t// in\n    tag_395:\n        /* \"contracts/GunzoZuYukiKoyano.sol\":45115:45148  baseExtension = _newBaseExtension */\n      dup1\n      mload\n      tag_302\n      swap1\n        /* \"contracts/GunzoZuYukiKoyano.sol\":45115:45128  baseExtension */\n      0x0c\n      swap1\n        /* \"contracts/GunzoZuYukiKoyano.sol\":45115:45148  baseExtension = _newBaseExtension */\n      0x20\n      dup5\n      add\n      swap1\n      tag_303\n      jump\t// in\n        /* \"contracts/GunzoZuYukiKoyano.sol\":42126:42315  function transferOwnership(address newOwner) public virtual onlyOwner {... */\n    tag_197:\n        /* \"contracts/GunzoZuYukiKoyano.sol\":41325:41331  _owner */\n      and(sub(shl(0xa0, 0x01), 0x01), sload(0x0a))\n        /* \"contracts/GunzoZuYukiKoyano.sol\":20221:20231  msg.sender */\n      caller\n        /* \"contracts/GunzoZuYukiKoyano.sol\":41465:41488  owner() == _msgSender() */\n      eq\n        /* \"contracts/GunzoZuYukiKoyano.sol\":41457:41525  require(owner() == _msgSender(), \"Ownable: caller is not the owner\") */\n      tag_403\n      jumpi\n      mload(0x40)\n      shl(0xe5, 0x461bcd)\n      dup2\n      mstore\n      0x04\n      add\n      tag_207\n      swap1\n      tag_208\n      jump\t// in\n    tag_403:\n      sub(shl(0xa0, 0x01), 0x01)\n        /* \"contracts/GunzoZuYukiKoyano.sol\":42214:42236  newOwner != address(0) */\n      dup2\n      and\n        /* \"contracts/GunzoZuYukiKoyano.sol\":42206:42279  require(newOwner != address(0), \"Ownable: new owner is the zero address\") */\n      tag_406\n      jumpi\n      mload(0x40)\n      shl(0xe5, 0x461bcd)\n      dup2\n      mstore\n        /* \"#utility.yul\":9091:9093   */\n      0x20\n        /* \"contracts/GunzoZuYukiKoyano.sol\":42206:42279  require(newOwner != address(0), \"Ownable: new owner is the zero address\") */\n      0x04\n      dup3\n      add\n        /* \"#utility.yul\":9073:9094   */\n      mstore\n        /* \"#utility.yul\":9130:9132   */\n      0x26\n        /* \"#utility.yul\":9110:9128   */\n      0x24\n      dup3\n      add\n        /* \"#utility.yul\":9103:9133   */\n      mstore\n        /* \"#utility.yul\":9169:9203   */\n      0x4f776e61626c653a206e6577206f776e657220697320746865207a65726f2061\n        /* \"#utility.yul\":9149:9167   */\n      0x44\n      dup3\n      add\n        /* \"#utility.yul\":9142:9204   */\n      mstore\n      shl(0xd0, 0x646472657373)\n        /* \"#utility.yul\":9220:9238   */\n      0x64\n      dup3\n      add\n        /* \"#utility.yul\":9213:9249   */\n      mstore\n        /* \"#utility.yul\":9266:9285   */\n      0x84\n      add\n        /* \"contracts/GunzoZuYukiKoyano.sol\":42206:42279  require(newOwner != address(0), \"Ownable: new owner is the zero address\") */\n      tag_207\n        /* \"#utility.yul\":8889:9291   */\n      jump\n        /* \"contracts/GunzoZuYukiKoyano.sol\":42206:42279  require(newOwner != address(0), \"Ownable: new owner is the zero address\") */\n    tag_406:\n        /* \"contracts/GunzoZuYukiKoyano.sol\":42289:42308  _setOwner(newOwner) */\n      tag_264\n        /* \"contracts/GunzoZuYukiKoyano.sol\":42299:42307  newOwner */\n      dup2\n        /* \"contracts/GunzoZuYukiKoyano.sol\":42289:42298  _setOwner */\n      tag_319\n        /* \"contracts/GunzoZuYukiKoyano.sol\":42289:42308  _setOwner(newOwner) */\n      jump\t// in\n        /* \"contracts/GunzoZuYukiKoyano.sol\":21618:21918  function supportsInterface(bytes4 interfaceId) public view virtual override(ERC165, IERC165) returns (bool) {... */\n    tag_201:\n        /* \"contracts/GunzoZuYukiKoyano.sol\":21720:21724  bool */\n      0x00\n      not(sub(shl(0xe0, 0x01), 0x01))\n        /* \"contracts/GunzoZuYukiKoyano.sol\":21755:21795  interfaceId == type(IERC721).interfaceId */\n      dup3\n      and\n      shl(0xe0, 0x80ac58cd)\n      eq\n      dup1\n        /* \"contracts/GunzoZuYukiKoyano.sol\":21755:21859  interfaceId == type(IERC721).interfaceId ||... */\n      tag_411\n      jumpi\n      pop\n      not(sub(shl(0xe0, 0x01), 0x01))\n        /* \"contracts/GunzoZuYukiKoyano.sol\":21811:21859  interfaceId == type(IERC721Metadata).interfaceId */\n      dup3\n      and\n      shl(0xe0, 0x5b5e139f)\n      eq\n        /* \"contracts/GunzoZuYukiKoyano.sol\":21755:21859  interfaceId == type(IERC721).interfaceId ||... */\n    tag_411:\n        /* \"contracts/GunzoZuYukiKoyano.sol\":21755:21911  interfaceId == type(IERC721).interfaceId ||... */\n      dup1\n      tag_200\n      jumpi\n      pop\n      shl(0xe0, 0x01ffc9a7)\n      not(sub(shl(0xe0, 0x01), 0x01))\n        /* \"contracts/GunzoZuYukiKoyano.sol\":7970:8010  interfaceId == type(IERC165).interfaceId */\n      dup4\n      and\n      eq\n        /* \"contracts/GunzoZuYukiKoyano.sol\":21875:21911  super.supportsInterface(interfaceId) */\n      tag_200\n        /* \"contracts/GunzoZuYukiKoyano.sol\":7862:8017  function supportsInterface(bytes4 interfaceId) public view virtual override returns (bool) {... */\n      jump\n        /* \"contracts/GunzoZuYukiKoyano.sol\":31195:31366  function _approve(address to, uint256 tokenId) internal virtual {... */\n    tag_236:\n        /* \"contracts/GunzoZuYukiKoyano.sol\":31269:31293  _tokenApprovals[tokenId] */\n      0x00\n      dup2\n      dup2\n      mstore\n        /* \"contracts/GunzoZuYukiKoyano.sol\":31269:31284  _tokenApprovals */\n      0x04\n        /* \"contracts/GunzoZuYukiKoyano.sol\":31269:31293  _tokenApprovals[tokenId] */\n      0x20\n      mstore\n      0x40\n      swap1\n      keccak256\n        /* \"contracts/GunzoZuYukiKoyano.sol\":31269:31298  _tokenApprovals[tokenId] = to */\n      dup1\n      sload\n      not(sub(shl(0xa0, 0x01), 0x01))\n      and\n      sub(shl(0xa0, 0x01), 0x01)\n      dup5\n      and\n      swap1\n      dup2\n      or\n      swap1\n      swap2\n      sstore\n        /* \"contracts/GunzoZuYukiKoyano.sol\":31269:31293  _tokenApprovals[tokenId] */\n      dup2\n      swap1\n        /* \"contracts/GunzoZuYukiKoyano.sol\":31322:31345  ERC721.ownerOf(tokenId) */\n      tag_418\n        /* \"contracts/GunzoZuYukiKoyano.sol\":31269:31293  _tokenApprovals[tokenId] */\n      dup3\n        /* \"contracts/GunzoZuYukiKoyano.sol\":31322:31336  ERC721.ownerOf */\n      tag_133\n        /* \"contracts/GunzoZuYukiKoyano.sol\":31322:31345  ERC721.ownerOf(tokenId) */\n      jump\t// in\n    tag_418:\n      sub(shl(0xa0, 0x01), 0x01)\n        /* \"contracts/GunzoZuYukiKoyano.sol\":31313:31359  Approval(ERC721.ownerOf(tokenId), to, tokenId) */\n      and\n      0x8c5be1e5ebec7d5bd14f71427d1e84f3dd0314c0f7b2291e5b200ac8c7c3b925\n      mload(0x40)\n      mload(0x40)\n      dup1\n      swap2\n      sub\n      swap1\n      log4\n        /* \"contracts/GunzoZuYukiKoyano.sol\":31195:31366  function _approve(address to, uint256 tokenId) internal virtual {... */\n      pop\n      pop\n      jump\t// out\n        /* \"contracts/GunzoZuYukiKoyano.sol\":27627:27971  function _isApprovedOrOwner(address spender, uint256 tokenId) internal view virtual returns (bool) {... */\n    tag_241:\n        /* \"contracts/GunzoZuYukiKoyano.sol\":27720:27724  bool */\n      0x00\n        /* \"contracts/GunzoZuYukiKoyano.sol\":27432:27448  _owners[tokenId] */\n      dup2\n      dup2\n      mstore\n        /* \"contracts/GunzoZuYukiKoyano.sol\":27432:27439  _owners */\n      0x02\n        /* \"contracts/GunzoZuYukiKoyano.sol\":27432:27448  _owners[tokenId] */\n      0x20\n      mstore\n      0x40\n      dup2\n      keccak256\n      sload\n      sub(shl(0xa0, 0x01), 0x01)\n      and\n        /* \"contracts/GunzoZuYukiKoyano.sol\":27736:27809  require(_exists(tokenId), \"ERC721: operator query for nonexistent token\") */\n      tag_421\n      jumpi\n      mload(0x40)\n      shl(0xe5, 0x461bcd)\n      dup2\n      mstore\n        /* \"#utility.yul\":10614:10616   */\n      0x20\n        /* \"contracts/GunzoZuYukiKoyano.sol\":27736:27809  require(_exists(tokenId), \"ERC721: operator query for nonexistent token\") */\n      0x04\n      dup3\n      add\n        /* \"#utility.yul\":10596:10617   */\n      mstore\n        /* \"#utility.yul\":10653:10655   */\n      0x2c\n        /* \"#utility.yul\":10633:10651   */\n      0x24\n      dup3\n      add\n        /* \"#utility.yul\":10626:10656   */\n      mstore\n        /* \"#utility.yul\":10692:10726   */\n      0x4552433732313a206f70657261746f7220717565727920666f72206e6f6e6578\n        /* \"#utility.yul\":10672:10690   */\n      0x44\n      dup3\n      add\n        /* \"#utility.yul\":10665:10727   */\n      mstore\n      shl(0xa1, 0x34b9ba32b73a103a37b5b2b7)\n        /* \"#utility.yul\":10743:10761   */\n      0x64\n      dup3\n      add\n        /* \"#utility.yul\":10736:10778   */\n      mstore\n        /* \"#utility.yul\":10795:10814   */\n      0x84\n      add\n        /* \"contracts/GunzoZuYukiKoyano.sol\":27736:27809  require(_exists(tokenId), \"ERC721: operator query for nonexistent token\") */\n      tag_207\n        /* \"#utility.yul\":10412:10820   */\n      jump\n        /* \"contracts/GunzoZuYukiKoyano.sol\":27736:27809  require(_exists(tokenId), \"ERC721: operator query for nonexistent token\") */\n    tag_421:\n        /* \"contracts/GunzoZuYukiKoyano.sol\":27819:27832  address owner */\n      0x00\n        /* \"contracts/GunzoZuYukiKoyano.sol\":27835:27858  ERC721.ownerOf(tokenId) */\n      tag_424\n        /* \"contracts/GunzoZuYukiKoyano.sol\":27850:27857  tokenId */\n      dup4\n        /* \"contracts/GunzoZuYukiKoyano.sol\":27835:27849  ERC721.ownerOf */\n      tag_133\n        /* \"contracts/GunzoZuYukiKoyano.sol\":27835:27858  ERC721.ownerOf(tokenId) */\n      jump\t// in\n    tag_424:\n        /* \"contracts/GunzoZuYukiKoyano.sol\":27819:27858  address owner = ERC721.ownerOf(tokenId) */\n      swap1\n      pop\n        /* \"contracts/GunzoZuYukiKoyano.sol\":27887:27892  owner */\n      dup1\n      sub(shl(0xa0, 0x01), 0x01)\n        /* \"contracts/GunzoZuYukiKoyano.sol\":27876:27892  spender == owner */\n      and\n        /* \"contracts/GunzoZuYukiKoyano.sol\":27876:27883  spender */\n      dup5\n      sub(shl(0xa0, 0x01), 0x01)\n        /* \"contracts/GunzoZuYukiKoyano.sol\":27876:27892  spender == owner */\n      and\n      eq\n        /* \"contracts/GunzoZuYukiKoyano.sol\":27876:27927  spender == owner || getApproved(tokenId) == spender */\n      dup1\n      tag_425\n      jumpi\n      pop\n        /* \"contracts/GunzoZuYukiKoyano.sol\":27920:27927  spender */\n      dup4\n      sub(shl(0xa0, 0x01), 0x01)\n        /* \"contracts/GunzoZuYukiKoyano.sol\":27896:27927  getApproved(tokenId) == spender */\n      and\n        /* \"contracts/GunzoZuYukiKoyano.sol\":27896:27916  getApproved(tokenId) */\n      tag_426\n        /* \"contracts/GunzoZuYukiKoyano.sol\":27908:27915  tokenId */\n      dup5\n        /* \"contracts/GunzoZuYukiKoyano.sol\":27896:27907  getApproved */\n      tag_64\n        /* \"contracts/GunzoZuYukiKoyano.sol\":27896:27916  getApproved(tokenId) */\n      jump\t// in\n    tag_426:\n      sub(shl(0xa0, 0x01), 0x01)\n        /* \"contracts/GunzoZuYukiKoyano.sol\":27896:27927  getApproved(tokenId) == spender */\n      and\n      eq\n        /* \"contracts/GunzoZuYukiKoyano.sol\":27876:27927  spender == owner || getApproved(tokenId) == spender */\n    tag_425:\n        /* \"contracts/GunzoZuYukiKoyano.sol\":27876:27963  spender == owner || getApproved(tokenId) == spender || isApprovedForAll(owner, spender) */\n      dup1\n      tag_428\n      jumpi\n      pop\n      sub(shl(0xa0, 0x01), 0x01)\n        /* \"contracts/GunzoZuYukiKoyano.sol\":24807:24832  _operatorApprovals[owner] */\n      dup1\n      dup3\n      and\n        /* \"contracts/GunzoZuYukiKoyano.sol\":24784:24788  bool */\n      0x00\n        /* \"contracts/GunzoZuYukiKoyano.sol\":24807:24832  _operatorApprovals[owner] */\n      swap1\n      dup2\n      mstore\n        /* \"contracts/GunzoZuYukiKoyano.sol\":24807:24825  _operatorApprovals */\n      0x05\n        /* \"contracts/GunzoZuYukiKoyano.sol\":24807:24832  _operatorApprovals[owner] */\n      0x20\n      swap1\n      dup2\n      mstore\n      0x40\n      dup1\n      dup4\n      keccak256\n        /* \"contracts/GunzoZuYukiKoyano.sol\":24807:24842  _operatorApprovals[owner][operator] */\n      swap4\n      dup9\n      and\n      dup4\n      mstore\n      swap3\n      swap1\n      mstore\n      keccak256\n      sload\n      0xff\n      and\n        /* \"contracts/GunzoZuYukiKoyano.sol\":27931:27963  isApprovedForAll(owner, spender) */\n    tag_428:\n        /* \"contracts/GunzoZuYukiKoyano.sol\":27868:27964  return (spender == owner || getApproved(tokenId) == spender || isApprovedForAll(owner, spender)) */\n      swap5\n        /* \"contracts/GunzoZuYukiKoyano.sol\":27627:27971  function _isApprovedOrOwner(address spender, uint256 tokenId) internal view virtual returns (bool) {... */\n      swap4\n      pop\n      pop\n      pop\n      pop\n      jump\t// out\n        /* \"contracts/GunzoZuYukiKoyano.sol\":30524:31084  function _transfer(... */\n    tag_246:\n        /* \"contracts/GunzoZuYukiKoyano.sol\":30678:30682  from */\n      dup3\n      sub(shl(0xa0, 0x01), 0x01)\n        /* \"contracts/GunzoZuYukiKoyano.sol\":30651:30682  ERC721.ownerOf(tokenId) == from */\n      and\n        /* \"contracts/GunzoZuYukiKoyano.sol\":30651:30674  ERC721.ownerOf(tokenId) */\n      tag_430\n        /* \"contracts/GunzoZuYukiKoyano.sol\":30666:30673  tokenId */\n      dup3\n        /* \"contracts/GunzoZuYukiKoyano.sol\":30651:30665  ERC721.ownerOf */\n      tag_133\n        /* \"contracts/GunzoZuYukiKoyano.sol\":30651:30674  ERC721.ownerOf(tokenId) */\n      jump\t// in\n    tag_430:\n      sub(shl(0xa0, 0x01), 0x01)\n        /* \"contracts/GunzoZuYukiKoyano.sol\":30651:30682  ERC721.ownerOf(tokenId) == from */\n      and\n      eq\n        /* \"contracts/GunzoZuYukiKoyano.sol\":30643:30728  require(ERC721.ownerOf(tokenId) == from, \"ERC721: transfer of token that is not own\") */\n      tag_431\n      jumpi\n      mload(0x40)\n      shl(0xe5, 0x461bcd)\n      dup2\n      mstore\n        /* \"#utility.yul\":13408:13410   */\n      0x20\n        /* \"contracts/GunzoZuYukiKoyano.sol\":30643:30728  require(ERC721.ownerOf(tokenId) == from, \"ERC721: transfer of token that is not own\") */\n      0x04\n      dup3\n      add\n        /* \"#utility.yul\":13390:13411   */\n      mstore\n        /* \"#utility.yul\":13447:13449   */\n      0x29\n        /* \"#utility.yul\":13427:13445   */\n      0x24\n      dup3\n      add\n        /* \"#utility.yul\":13420:13450   */\n      mstore\n        /* \"#utility.yul\":13486:13520   */\n      0x4552433732313a207472616e73666572206f6620746f6b656e20746861742069\n        /* \"#utility.yul\":13466:13484   */\n      0x44\n      dup3\n      add\n        /* \"#utility.yul\":13459:13521   */\n      mstore\n      shl(0xb9, 0x39903737ba1037bbb7)\n        /* \"#utility.yul\":13537:13555   */\n      0x64\n      dup3\n      add\n        /* \"#utility.yul\":13530:13569   */\n      mstore\n        /* \"#utility.yul\":13586:13605   */\n      0x84\n      add\n        /* \"contracts/GunzoZuYukiKoyano.sol\":30643:30728  require(ERC721.ownerOf(tokenId) == from, \"ERC721: transfer of token that is not own\") */\n      tag_207\n        /* \"#utility.yul\":13206:13611   */\n      jump\n        /* \"contracts/GunzoZuYukiKoyano.sol\":30643:30728  require(ERC721.ownerOf(tokenId) == from, \"ERC721: transfer of token that is not own\") */\n    tag_431:\n      sub(shl(0xa0, 0x01), 0x01)\n        /* \"contracts/GunzoZuYukiKoyano.sol\":30746:30762  to != address(0) */\n      dup3\n      and\n        /* \"contracts/GunzoZuYukiKoyano.sol\":30738:30803  require(to != address(0), \"ERC721: transfer to the zero address\") */\n      tag_434\n      jumpi\n      mload(0x40)\n      shl(0xe5, 0x461bcd)\n      dup2\n      mstore\n        /* \"#utility.yul\":9855:9857   */\n      0x20\n        /* \"contracts/GunzoZuYukiKoyano.sol\":30738:30803  require(to != address(0), \"ERC721: transfer to the zero address\") */\n      0x04\n      dup3\n      add\n        /* \"#utility.yul\":9837:9858   */\n      mstore\n        /* \"#utility.yul\":9894:9896   */\n      0x24\n        /* \"#utility.yul\":9874:9892   */\n      dup1\n      dup3\n      add\n        /* \"#utility.yul\":9867:9897   */\n      mstore\n        /* \"#utility.yul\":9933:9967   */\n      0x4552433732313a207472616e7366657220746f20746865207a65726f20616464\n        /* \"#utility.yul\":9913:9931   */\n      0x44\n      dup3\n      add\n        /* \"#utility.yul\":9906:9968   */\n      mstore\n      shl(0xe0, 0x72657373)\n        /* \"#utility.yul\":9984:10002   */\n      0x64\n      dup3\n      add\n        /* \"#utility.yul\":9977:10011   */\n      mstore\n        /* \"#utility.yul\":10028:10047   */\n      0x84\n      add\n        /* \"contracts/GunzoZuYukiKoyano.sol\":30738:30803  require(to != address(0), \"ERC721: transfer to the zero address\") */\n      tag_207\n        /* \"#utility.yul\":9653:10053   */\n      jump\n        /* \"contracts/GunzoZuYukiKoyano.sol\":30738:30803  require(to != address(0), \"ERC721: transfer to the zero address\") */\n    tag_434:\n        /* \"contracts/GunzoZuYukiKoyano.sol\":30814:30853  _beforeTokenTransfer(from, to, tokenId) */\n      tag_437\n        /* \"contracts/GunzoZuYukiKoyano.sol\":30835:30839  from */\n      dup4\n        /* \"contracts/GunzoZuYukiKoyano.sol\":30841:30843  to */\n      dup4\n        /* \"contracts/GunzoZuYukiKoyano.sol\":30845:30852  tokenId */\n      dup4\n        /* \"contracts/GunzoZuYukiKoyano.sol\":30814:30834  _beforeTokenTransfer */\n      tag_438\n        /* \"contracts/GunzoZuYukiKoyano.sol\":30814:30853  _beforeTokenTransfer(from, to, tokenId) */\n      jump\t// in\n    tag_437:\n        /* \"contracts/GunzoZuYukiKoyano.sol\":30915:30944  _approve(address(0), tokenId) */\n      tag_439\n        /* \"contracts/GunzoZuYukiKoyano.sol\":30932:30933  0 */\n      0x00\n        /* \"contracts/GunzoZuYukiKoyano.sol\":30936:30943  tokenId */\n      dup3\n        /* \"contracts/GunzoZuYukiKoyano.sol\":30915:30923  _approve */\n      tag_236\n        /* \"contracts/GunzoZuYukiKoyano.sol\":30915:30944  _approve(address(0), tokenId) */\n      jump\t// in\n    tag_439:\n      sub(shl(0xa0, 0x01), 0x01)\n        /* \"contracts/GunzoZuYukiKoyano.sol\":30955:30970  _balances[from] */\n      dup4\n      and\n      0x00\n      swap1\n      dup2\n      mstore\n        /* \"contracts/GunzoZuYukiKoyano.sol\":30955:30964  _balances */\n      0x03\n        /* \"contracts/GunzoZuYukiKoyano.sol\":30955:30970  _balances[from] */\n      0x20\n      mstore\n      0x40\n      dup2\n      keccak256\n        /* \"contracts/GunzoZuYukiKoyano.sol\":30955:30975  _balances[from] -= 1 */\n      dup1\n      sload\n        /* \"contracts/GunzoZuYukiKoyano.sol\":30974:30975  1 */\n      0x01\n      swap3\n        /* \"contracts/GunzoZuYukiKoyano.sol\":30955:30970  _balances[from] */\n      swap1\n        /* \"contracts/GunzoZuYukiKoyano.sol\":30955:30975  _balances[from] -= 1 */\n      tag_440\n      swap1\n        /* \"contracts/GunzoZuYukiKoyano.sol\":30974:30975  1 */\n      dup5\n      swap1\n        /* \"contracts/GunzoZuYukiKoyano.sol\":30955:30975  _balances[from] -= 1 */\n      tag_441\n      jump\t// in\n    tag_440:\n      swap1\n      swap2\n      sstore\n      pop\n      pop\n      sub(shl(0xa0, 0x01), 0x01)\n        /* \"contracts/GunzoZuYukiKoyano.sol\":30985:30998  _balances[to] */\n      dup3\n      and\n      0x00\n      swap1\n      dup2\n      mstore\n        /* \"contracts/GunzoZuYukiKoyano.sol\":30985:30994  _balances */\n      0x03\n        /* \"contracts/GunzoZuYukiKoyano.sol\":30985:30998  _balances[to] */\n      0x20\n      mstore\n      0x40\n      dup2\n      keccak256\n        /* \"contracts/GunzoZuYukiKoyano.sol\":30985:31003  _balances[to] += 1 */\n      dup1\n      sload\n        /* \"contracts/GunzoZuYukiKoyano.sol\":31002:31003  1 */\n      0x01\n      swap3\n        /* \"contracts/GunzoZuYukiKoyano.sol\":30985:30998  _balances[to] */\n      swap1\n        /* \"contracts/GunzoZuYukiKoyano.sol\":30985:31003  _balances[to] += 1 */\n      tag_442\n      swap1\n        /* \"contracts/GunzoZuYukiKoyano.sol\":31002:31003  1 */\n      dup5\n      swap1\n        /* \"contracts/GunzoZuYukiKoyano.sol\":30985:31003  _balances[to] += 1 */\n      tag_339\n      jump\t// in\n    tag_442:\n      swap1\n      swap2\n      sstore\n      pop\n      pop\n        /* \"contracts/GunzoZuYukiKoyano.sol\":31013:31029  _owners[tokenId] */\n      0x00\n      dup2\n      dup2\n      mstore\n        /* \"contracts/GunzoZuYukiKoyano.sol\":31013:31020  _owners */\n      0x02\n        /* \"contracts/GunzoZuYukiKoyano.sol\":31013:31029  _owners[tokenId] */\n      0x20\n      mstore\n      0x40\n      dup1\n      dup3\n      keccak256\n        /* \"contracts/GunzoZuYukiKoyano.sol\":31013:31034  _owners[tokenId] = to */\n      dup1\n      sload\n      not(sub(shl(0xa0, 0x01), 0x01))\n      and\n      sub(shl(0xa0, 0x01), 0x01)\n      dup7\n      dup2\n      and\n      swap2\n      dup3\n      or\n      swap1\n      swap3\n      sstore\n        /* \"contracts/GunzoZuYukiKoyano.sol\":31050:31077  Transfer(from, to, tokenId) */\n      swap2\n      mload\n        /* \"contracts/GunzoZuYukiKoyano.sol\":31013:31029  _owners[tokenId] */\n      dup5\n      swap4\n        /* \"contracts/GunzoZuYukiKoyano.sol\":31050:31077  Transfer(from, to, tokenId) */\n      swap2\n      dup8\n      and\n      swap2\n      0xddf252ad1be2c89b69c2b068fc378daa952ba7f163c4a11628f55a4df523b3ef\n      swap2\n      log4\n        /* \"contracts/GunzoZuYukiKoyano.sol\":30524:31084  function _transfer(... */\n      pop\n      pop\n      pop\n      jump\t// out\n        /* \"contracts/GunzoZuYukiKoyano.sol\":42321:42490  function _setOwner(address newOwner) private {... */\n    tag_319:\n        /* \"contracts/GunzoZuYukiKoyano.sol\":42395:42401  _owner */\n      0x0a\n      dup1\n      sload\n      sub(shl(0xa0, 0x01), 0x01)\n        /* \"contracts/GunzoZuYukiKoyano.sol\":42411:42428  _owner = newOwner */\n      dup4\n      dup2\n      and\n      not(sub(shl(0xa0, 0x01), 0x01))\n      dup4\n      and\n      dup2\n      or\n      swap1\n      swap4\n      sstore\n        /* \"contracts/GunzoZuYukiKoyano.sol\":42443:42483  OwnershipTransferred(oldOwner, newOwner) */\n      mload(0x40)\n        /* \"contracts/GunzoZuYukiKoyano.sol\":42395:42401  _owner */\n      swap2\n      and\n      swap2\n        /* \"contracts/GunzoZuYukiKoyano.sol\":42411:42428  _owner = newOwner */\n      swap1\n        /* \"contracts/GunzoZuYukiKoyano.sol\":42395:42401  _owner */\n      dup3\n      swap1\n        /* \"contracts/GunzoZuYukiKoyano.sol\":42443:42483  OwnershipTransferred(oldOwner, newOwner) */\n      0x8be0079c531659141344cd1fd0a4f28419497f9722a3daafe3b4186f6b6457e0\n      swap1\n        /* \"contracts/GunzoZuYukiKoyano.sol\":42376:42392  address oldOwner */\n      0x00\n      swap1\n        /* \"contracts/GunzoZuYukiKoyano.sol\":42443:42483  OwnershipTransferred(oldOwner, newOwner) */\n      log3\n        /* \"contracts/GunzoZuYukiKoyano.sol\":42366:42490  {... */\n      pop\n        /* \"contracts/GunzoZuYukiKoyano.sol\":42321:42490  function _setOwner(address newOwner) private {... */\n      pop\n      jump\t// out\n        /* \"contracts/GunzoZuYukiKoyano.sol\":28301:28409  function _safeMint(address to, uint256 tokenId) internal virtual {... */\n    tag_351:\n        /* \"contracts/GunzoZuYukiKoyano.sol\":28376:28402  _safeMint(to, tokenId, \"\") */\n      tag_302\n        /* \"contracts/GunzoZuYukiKoyano.sol\":28386:28388  to */\n      dup3\n        /* \"contracts/GunzoZuYukiKoyano.sol\":28390:28397  tokenId */\n      dup3\n        /* \"contracts/GunzoZuYukiKoyano.sol\":28376:28402  _safeMint(to, tokenId, \"\") */\n      mload(0x40)\n      dup1\n      0x20\n      add\n      0x40\n      mstore\n      dup1\n      0x00\n      dup2\n      mstore\n      pop\n        /* \"contracts/GunzoZuYukiKoyano.sol\":28376:28385  _safeMint */\n      tag_446\n        /* \"contracts/GunzoZuYukiKoyano.sol\":28376:28402  _safeMint(to, tokenId, \"\") */\n      jump\t// in\n        /* \"contracts/GunzoZuYukiKoyano.sol\":26734:27041  function _safeTransfer(... */\n    tag_373:\n        /* \"contracts/GunzoZuYukiKoyano.sol\":26885:26913  _transfer(from, to, tokenId) */\n      tag_448\n        /* \"contracts/GunzoZuYukiKoyano.sol\":26895:26899  from */\n      dup5\n        /* \"contracts/GunzoZuYukiKoyano.sol\":26901:26903  to */\n      dup5\n        /* \"contracts/GunzoZuYukiKoyano.sol\":26905:26912  tokenId */\n      dup5\n        /* \"contracts/GunzoZuYukiKoyano.sol\":26885:26894  _transfer */\n      tag_246\n        /* \"contracts/GunzoZuYukiKoyano.sol\":26885:26913  _transfer(from, to, tokenId) */\n      jump\t// in\n    tag_448:\n        /* \"contracts/GunzoZuYukiKoyano.sol\":26931:26979  _checkOnERC721Received(from, to, tokenId, _data) */\n      tag_449\n        /* \"contracts/GunzoZuYukiKoyano.sol\":26954:26958  from */\n      dup5\n        /* \"contracts/GunzoZuYukiKoyano.sol\":26960:26962  to */\n      dup5\n        /* \"contracts/GunzoZuYukiKoyano.sol\":26964:26971  tokenId */\n      dup5\n        /* \"contracts/GunzoZuYukiKoyano.sol\":26973:26978  _data */\n      dup5\n        /* \"contracts/GunzoZuYukiKoyano.sol\":26931:26953  _checkOnERC721Received */\n      tag_450\n        /* \"contracts/GunzoZuYukiKoyano.sol\":26931:26979  _checkOnERC721Received(from, to, tokenId, _data) */\n      jump\t// in\n    tag_449:\n        /* \"contracts/GunzoZuYukiKoyano.sol\":26923:27034  require(_checkOnERC721Received(from, to, tokenId, _data), \"ERC721: transfer to non ERC721Receiver implementer\") */\n      tag_372\n      jumpi\n      mload(0x40)\n      shl(0xe5, 0x461bcd)\n      dup2\n      mstore\n      0x04\n      add\n      tag_207\n      swap1\n      tag_453\n      jump\t// in\n        /* \"contracts/GunzoZuYukiKoyano.sol\":43146:43246  function _baseURI() internal view virtual override returns (string memory) {... */\n    tag_385:\n        /* \"contracts/GunzoZuYukiKoyano.sol\":43206:43219  string memory */\n      0x60\n        /* \"contracts/GunzoZuYukiKoyano.sol\":43234:43241  baseURI */\n      0x0b\n        /* \"contracts/GunzoZuYukiKoyano.sol\":43227:43241  return baseURI */\n      dup1\n      sload\n      tag_211\n      swap1\n      tag_212\n      jump\t// in\n        /* \"contracts/GunzoZuYukiKoyano.sol\":8317:9020  function toString(uint256 value) internal pure returns (string memory) {... */\n    tag_389:\n        /* \"contracts/GunzoZuYukiKoyano.sol\":8373:8386  string memory */\n      0x60\n        /* \"contracts/GunzoZuYukiKoyano.sol\":8590:8600  value == 0 */\n      dup2\n        /* \"contracts/GunzoZuYukiKoyano.sol\":8586:8637  if (value == 0) {... */\n      tag_461\n      jumpi\n      pop\n      pop\n        /* \"contracts/GunzoZuYukiKoyano.sol\":8616:8626  return \"0\" */\n      0x40\n      dup1\n      mload\n      dup1\n      dup3\n      add\n      swap1\n      swap2\n      mstore\n      0x01\n      dup2\n      mstore\n      shl(0xfc, 0x03)\n      0x20\n      dup3\n      add\n      mstore\n      swap1\n        /* \"contracts/GunzoZuYukiKoyano.sol\":8317:9020  function toString(uint256 value) internal pure returns (string memory) {... */\n      jump\t// out\n        /* \"contracts/GunzoZuYukiKoyano.sol\":8586:8637  if (value == 0) {... */\n    tag_461:\n        /* \"contracts/GunzoZuYukiKoyano.sol\":8661:8666  value */\n      dup2\n        /* \"contracts/GunzoZuYukiKoyano.sol\":8646:8658  uint256 temp */\n      0x00\n        /* \"contracts/GunzoZuYukiKoyano.sol\":8700:8775  while (temp != 0) {... */\n    tag_462:\n        /* \"contracts/GunzoZuYukiKoyano.sol\":8707:8716  temp != 0 */\n      dup2\n      iszero\n        /* \"contracts/GunzoZuYukiKoyano.sol\":8700:8775  while (temp != 0) {... */\n      tag_463\n      jumpi\n        /* \"contracts/GunzoZuYukiKoyano.sol\":8732:8740  digits++ */\n      dup1\n      tag_464\n      dup2\n      tag_281\n      jump\t// in\n    tag_464:\n      swap2\n      pop\n        /* \"contracts/GunzoZuYukiKoyano.sol\":8754:8764  temp /= 10 */\n      tag_465\n      swap1\n      pop\n        /* \"contracts/GunzoZuYukiKoyano.sol\":8762:8764  10 */\n      0x0a\n        /* \"contracts/GunzoZuYukiKoyano.sol\":8754:8764  temp /= 10 */\n      dup4\n      tag_466\n      jump\t// in\n    tag_465:\n      swap2\n      pop\n        /* \"contracts/GunzoZuYukiKoyano.sol\":8700:8775  while (temp != 0) {... */\n      jump(tag_462)\n    tag_463:\n        /* \"contracts/GunzoZuYukiKoyano.sol\":8784:8803  bytes memory buffer */\n      0x00\n        /* \"contracts/GunzoZuYukiKoyano.sol\":8816:8822  digits */\n      dup2\n        /* \"contracts/GunzoZuYukiKoyano.sol\":8806:8823  new bytes(digits) */\n      0xffffffffffffffff\n      dup2\n      gt\n      iszero\n      tag_468\n      jumpi\n      tag_468\n      tag_271\n      jump\t// in\n    tag_468:\n      mload(0x40)\n      swap1\n      dup1\n      dup3\n      mstore\n      dup1\n      0x1f\n      add\n      not(0x1f)\n      and\n      0x20\n      add\n      dup3\n      add\n      0x40\n      mstore\n      dup1\n      iszero\n      tag_469\n      jumpi\n      0x20\n      dup3\n      add\n      dup2\n      dup1\n      calldatasize\n      dup4\n      calldatacopy\n      add\n      swap1\n      pop\n    tag_469:\n      pop\n        /* \"contracts/GunzoZuYukiKoyano.sol\":8784:8823  bytes memory buffer = new bytes(digits) */\n      swap1\n      pop\n        /* \"contracts/GunzoZuYukiKoyano.sol\":8833:8983  while (value != 0) {... */\n    tag_470:\n        /* \"contracts/GunzoZuYukiKoyano.sol\":8840:8850  value != 0 */\n      dup5\n      iszero\n        /* \"contracts/GunzoZuYukiKoyano.sol\":8833:8983  while (value != 0) {... */\n      tag_428\n      jumpi\n        /* \"contracts/GunzoZuYukiKoyano.sol\":8866:8877  digits -= 1 */\n      tag_472\n        /* \"contracts/GunzoZuYukiKoyano.sol\":8876:8877  1 */\n      0x01\n        /* \"contracts/GunzoZuYukiKoyano.sol\":8866:8877  digits -= 1 */\n      dup4\n      tag_441\n      jump\t// in\n    tag_472:\n      swap2\n      pop\n        /* \"contracts/GunzoZuYukiKoyano.sol\":8934:8944  value % 10 */\n      tag_473\n        /* \"contracts/GunzoZuYukiKoyano.sol\":8942:8944  10 */\n      0x0a\n        /* \"contracts/GunzoZuYukiKoyano.sol\":8934:8939  value */\n      dup7\n        /* \"contracts/GunzoZuYukiKoyano.sol\":8934:8944  value % 10 */\n      tag_474\n      jump\t// in\n    tag_473:\n        /* \"contracts/GunzoZuYukiKoyano.sol\":8921:8945  48 + uint256(value % 10) */\n      tag_475\n      swap1\n        /* \"contracts/GunzoZuYukiKoyano.sol\":8921:8923  48 */\n      0x30\n        /* \"contracts/GunzoZuYukiKoyano.sol\":8921:8945  48 + uint256(value % 10) */\n      tag_339\n      jump\t// in\n    tag_475:\n        /* \"contracts/GunzoZuYukiKoyano.sol\":8908:8947  bytes1(uint8(48 + uint256(value % 10))) */\n      0xf8\n      shl\n        /* \"contracts/GunzoZuYukiKoyano.sol\":8891:8897  buffer */\n      dup2\n        /* \"contracts/GunzoZuYukiKoyano.sol\":8898:8904  digits */\n      dup4\n        /* \"contracts/GunzoZuYukiKoyano.sol\":8891:8905  buffer[digits] */\n      dup2\n      mload\n      dup2\n      lt\n      tag_477\n      jumpi\n      tag_477\n      tag_279\n      jump\t// in\n    tag_477:\n      0x20\n      add\n      add\n        /* \"contracts/GunzoZuYukiKoyano.sol\":8891:8947  buffer[digits] = bytes1(uint8(48 + uint256(value % 10))) */\n      swap1\n      not(sub(shl(0xf8, 0x01), 0x01))\n      and\n      swap1\n      dup2\n      0x00\n      byte\n      swap1\n      mstore8\n      pop\n        /* \"contracts/GunzoZuYukiKoyano.sol\":8961:8972  value /= 10 */\n      tag_478\n        /* \"contracts/GunzoZuYukiKoyano.sol\":8970:8972  10 */\n      0x0a\n        /* \"contracts/GunzoZuYukiKoyano.sol\":8961:8972  value /= 10 */\n      dup7\n      tag_466\n      jump\t// in\n    tag_478:\n      swap5\n      pop\n        /* \"contracts/GunzoZuYukiKoyano.sol\":8833:8983  while (value != 0) {... */\n      jump(tag_470)\n        /* \"contracts/GunzoZuYukiKoyano.sol\":35914:36486  function _beforeTokenTransfer(... */\n    tag_438:\n      sub(shl(0xa0, 0x01), 0x01)\n        /* \"contracts/GunzoZuYukiKoyano.sol\":36113:36131  from == address(0) */\n      dup4\n      and\n        /* \"contracts/GunzoZuYukiKoyano.sol\":36109:36292  if (from == address(0)) {... */\n      tag_483\n      jumpi\n        /* \"contracts/GunzoZuYukiKoyano.sol\":36147:36187  _addTokenToAllTokensEnumeration(tokenId) */\n      tag_484\n        /* \"contracts/GunzoZuYukiKoyano.sol\":36179:36186  tokenId */\n      dup2\n        /* \"contracts/GunzoZuYukiKoyano.sol\":37295:37305  _allTokens */\n      0x08\n        /* \"contracts/GunzoZuYukiKoyano.sol\":37295:37312  _allTokens.length */\n      dup1\n      sload\n        /* \"contracts/GunzoZuYukiKoyano.sol\":37268:37292  _allTokensIndex[tokenId] */\n      0x00\n      dup4\n      dup2\n      mstore\n        /* \"contracts/GunzoZuYukiKoyano.sol\":37268:37283  _allTokensIndex */\n      0x09\n        /* \"contracts/GunzoZuYukiKoyano.sol\":37268:37292  _allTokensIndex[tokenId] */\n      0x20\n      mstore\n      0x40\n      dup2\n      keccak256\n        /* \"contracts/GunzoZuYukiKoyano.sol\":37268:37312  _allTokensIndex[tokenId] = _allTokens.length */\n      dup3\n      swap1\n      sstore\n        /* \"contracts/GunzoZuYukiKoyano.sol\":37322:37346  _allTokens.push(tokenId) */\n      0x01\n      dup3\n      add\n      dup4\n      sstore\n      swap2\n      swap1\n      swap2\n      mstore\n      0xf3f7a9fe364faab93b216da50a3214154f22a0a2b415b23a84c8169e8b636ee3\n      add\n      sstore\n        /* \"contracts/GunzoZuYukiKoyano.sol\":37192:37353  function _addTokenToAllTokensEnumeration(uint256 tokenId) private {... */\n      jump\n        /* \"contracts/GunzoZuYukiKoyano.sol\":36147:36187  _addTokenToAllTokensEnumeration(tokenId) */\n    tag_484:\n        /* \"contracts/GunzoZuYukiKoyano.sol\":36109:36292  if (from == address(0)) {... */\n      jump(tag_488)\n    tag_483:\n        /* \"contracts/GunzoZuYukiKoyano.sol\":36216:36218  to */\n      dup2\n      sub(shl(0xa0, 0x01), 0x01)\n        /* \"contracts/GunzoZuYukiKoyano.sol\":36208:36218  from != to */\n      and\n        /* \"contracts/GunzoZuYukiKoyano.sol\":36208:36212  from */\n      dup4\n      sub(shl(0xa0, 0x01), 0x01)\n        /* \"contracts/GunzoZuYukiKoyano.sol\":36208:36218  from != to */\n      and\n      eq\n        /* \"contracts/GunzoZuYukiKoyano.sol\":36204:36292  if (from != to) {... */\n      tag_488\n      jumpi\n        /* \"contracts/GunzoZuYukiKoyano.sol\":36234:36281  _removeTokenFromOwnerEnumeration(from, tokenId) */\n      tag_488\n        /* \"contracts/GunzoZuYukiKoyano.sol\":36267:36271  from */\n      dup4\n        /* \"contracts/GunzoZuYukiKoyano.sol\":36273:36280  tokenId */\n      dup3\n        /* \"contracts/GunzoZuYukiKoyano.sol\":36234:36266  _removeTokenFromOwnerEnumeration */\n      tag_489\n        /* \"contracts/GunzoZuYukiKoyano.sol\":36234:36281  _removeTokenFromOwnerEnumeration(from, tokenId) */\n      jump\t// in\n    tag_488:\n      sub(shl(0xa0, 0x01), 0x01)\n        /* \"contracts/GunzoZuYukiKoyano.sol\":36305:36321  to == address(0) */\n      dup3\n      and\n        /* \"contracts/GunzoZuYukiKoyano.sol\":36301:36480  if (to == address(0)) {... */\n      tag_490\n      jumpi\n        /* \"contracts/GunzoZuYukiKoyano.sol\":36337:36382  _removeTokenFromAllTokensEnumeration(tokenId) */\n      tag_235\n        /* \"contracts/GunzoZuYukiKoyano.sol\":36374:36381  tokenId */\n      dup2\n        /* \"contracts/GunzoZuYukiKoyano.sol\":36337:36373  _removeTokenFromAllTokensEnumeration */\n      tag_492\n        /* \"contracts/GunzoZuYukiKoyano.sol\":36337:36382  _removeTokenFromAllTokensEnumeration(tokenId) */\n      jump\t// in\n        /* \"contracts/GunzoZuYukiKoyano.sol\":36301:36480  if (to == address(0)) {... */\n    tag_490:\n        /* \"contracts/GunzoZuYukiKoyano.sol\":36409:36413  from */\n      dup3\n      sub(shl(0xa0, 0x01), 0x01)\n        /* \"contracts/GunzoZuYukiKoyano.sol\":36403:36413  to != from */\n      and\n        /* \"contracts/GunzoZuYukiKoyano.sol\":36403:36405  to */\n      dup3\n      sub(shl(0xa0, 0x01), 0x01)\n        /* \"contracts/GunzoZuYukiKoyano.sol\":36403:36413  to != from */\n      and\n      eq\n        /* \"contracts/GunzoZuYukiKoyano.sol\":36399:36480  if (to != from) {... */\n      tag_235\n      jumpi\n        /* \"contracts/GunzoZuYukiKoyano.sol\":36429:36469  _addTokenToOwnerEnumeration(to, tokenId) */\n      tag_235\n        /* \"contracts/GunzoZuYukiKoyano.sol\":36457:36459  to */\n      dup3\n        /* \"contracts/GunzoZuYukiKoyano.sol\":36461:36468  tokenId */\n      dup3\n        /* \"contracts/GunzoZuYukiKoyano.sol\":36429:36456  _addTokenToOwnerEnumeration */\n      tag_496\n        /* \"contracts/GunzoZuYukiKoyano.sol\":36429:36469  _addTokenToOwnerEnumeration(to, tokenId) */\n      jump\t// in\n        /* \"contracts/GunzoZuYukiKoyano.sol\":28630:28941  function _safeMint(... */\n    tag_446:\n        /* \"contracts/GunzoZuYukiKoyano.sol\":28755:28773  _mint(to, tokenId) */\n      tag_498\n        /* \"contracts/GunzoZuYukiKoyano.sol\":28761:28763  to */\n      dup4\n        /* \"contracts/GunzoZuYukiKoyano.sol\":28765:28772  tokenId */\n      dup4\n        /* \"contracts/GunzoZuYukiKoyano.sol\":28755:28760  _mint */\n      tag_499\n        /* \"contracts/GunzoZuYukiKoyano.sol\":28755:28773  _mint(to, tokenId) */\n      jump\t// in\n    tag_498:\n        /* \"contracts/GunzoZuYukiKoyano.sol\":28804:28858  _checkOnERC721Received(address(0), to, tokenId, _data) */\n      tag_500\n        /* \"contracts/GunzoZuYukiKoyano.sol\":28835:28836  0 */\n      0x00\n        /* \"contracts/GunzoZuYukiKoyano.sol\":28839:28841  to */\n      dup5\n        /* \"contracts/GunzoZuYukiKoyano.sol\":28843:28850  tokenId */\n      dup5\n        /* \"contracts/GunzoZuYukiKoyano.sol\":28852:28857  _data */\n      dup5\n        /* \"contracts/GunzoZuYukiKoyano.sol\":28804:28826  _checkOnERC721Received */\n      tag_450\n        /* \"contracts/GunzoZuYukiKoyano.sol\":28804:28858  _checkOnERC721Received(address(0), to, tokenId, _data) */\n      jump\t// in\n    tag_500:\n        /* \"contracts/GunzoZuYukiKoyano.sol\":28783:28934  require(... */\n      tag_235\n      jumpi\n      mload(0x40)\n      shl(0xe5, 0x461bcd)\n      dup2\n      mstore\n      0x04\n      add\n      tag_207\n      swap1\n      tag_453\n      jump\t// in\n        /* \"contracts/GunzoZuYukiKoyano.sol\":31919:32697  function _checkOnERC721Received(... */\n    tag_450:\n        /* \"contracts/GunzoZuYukiKoyano.sol\":32069:32073  bool */\n      0x00\n      sub(shl(0xa0, 0x01), 0x01)\n        /* \"contracts/GunzoZuYukiKoyano.sol\":32089:32102  to.isContract */\n      dup5\n      and\n        /* \"contracts/GunzoZuYukiKoyano.sol\":11077:11097  extcodesize(account) */\n      extcodesize\n        /* \"contracts/GunzoZuYukiKoyano.sol\":11123:11131  size > 0 */\n      iszero\n        /* \"contracts/GunzoZuYukiKoyano.sol\":32085:32691  if (to.isContract()) {... */\n      tag_506\n      jumpi\n        /* \"contracts/GunzoZuYukiKoyano.sol\":32124:32196  IERC721Receiver(to).onERC721Received(_msgSender(), from, tokenId, _data) */\n      mload(0x40)\n      shl(0xe1, 0x0a85bd01)\n      dup2\n      mstore\n      sub(shl(0xa0, 0x01), 0x01)\n        /* \"contracts/GunzoZuYukiKoyano.sol\":32124:32160  IERC721Receiver(to).onERC721Received */\n      dup6\n      and\n      swap1\n      0x150b7a02\n      swap1\n        /* \"contracts/GunzoZuYukiKoyano.sol\":32124:32196  IERC721Receiver(to).onERC721Received(_msgSender(), from, tokenId, _data) */\n      tag_508\n      swap1\n        /* \"contracts/GunzoZuYukiKoyano.sol\":20221:20231  msg.sender */\n      caller\n      swap1\n        /* \"contracts/GunzoZuYukiKoyano.sol\":32175:32179  from */\n      dup10\n      swap1\n        /* \"contracts/GunzoZuYukiKoyano.sol\":32181:32188  tokenId */\n      dup9\n      swap1\n        /* \"contracts/GunzoZuYukiKoyano.sol\":32190:32195  _data */\n      dup9\n      swap1\n        /* \"contracts/GunzoZuYukiKoyano.sol\":32124:32196  IERC721Receiver(to).onERC721Received(_msgSender(), from, tokenId, _data) */\n      0x04\n      add\n      tag_509\n      jump\t// in\n    tag_508:\n      0x20\n      mload(0x40)\n      dup1\n      dup4\n      sub\n      dup2\n      0x00\n      dup8\n      dup1\n      extcodesize\n      iszero\n      dup1\n      iszero\n      tag_510\n      jumpi\n      0x00\n      dup1\n      revert\n    tag_510:\n      pop\n      gas\n      call\n      swap3\n      pop\n      pop\n      pop\n      dup1\n      iszero\n      tag_511\n      jumpi\n      pop\n      0x40\n      dup1\n      mload\n      0x1f\n      returndatasize\n      swap1\n      dup2\n      add\n      not(0x1f)\n      and\n      dup3\n      add\n      swap1\n      swap3\n      mstore\n      tag_512\n      swap2\n      dup2\n      add\n      swap1\n      tag_513\n      jump\t// in\n    tag_512:\n      0x01\n    tag_511:\n        /* \"contracts/GunzoZuYukiKoyano.sol\":32120:32639  try IERC721Receiver(to).onERC721Received(_msgSender(), from, tokenId, _data) returns (bytes4 retval) {... */\n      tag_514\n      jumpi\n      returndatasize\n      dup1\n      dup1\n      iszero\n      tag_519\n      jumpi\n      mload(0x40)\n      swap2\n      pop\n      and(add(returndatasize, 0x3f), not(0x1f))\n      dup3\n      add\n      0x40\n      mstore\n      returndatasize\n      dup3\n      mstore\n      returndatasize\n      0x00\n      0x20\n      dup5\n      add\n      returndatacopy\n      jump(tag_518)\n    tag_519:\n      0x60\n      swap2\n      pop\n    tag_518:\n      pop\n        /* \"contracts/GunzoZuYukiKoyano.sol\":32363:32376  reason.length */\n      dup1\n      mload\n        /* \"contracts/GunzoZuYukiKoyano.sol\":32359:32625  if (reason.length == 0) {... */\n      tag_520\n      jumpi\n        /* \"contracts/GunzoZuYukiKoyano.sol\":32405:32465  revert(\"ERC721: transfer to non ERC721Receiver implementer\") */\n      mload(0x40)\n      shl(0xe5, 0x461bcd)\n      dup2\n      mstore\n      0x04\n      add\n      tag_207\n      swap1\n      tag_453\n      jump\t// in\n        /* \"contracts/GunzoZuYukiKoyano.sol\":32359:32625  if (reason.length == 0) {... */\n    tag_520:\n        /* \"contracts/GunzoZuYukiKoyano.sol\":32577:32583  reason */\n      dup1\n        /* \"contracts/GunzoZuYukiKoyano.sol\":32571:32584  mload(reason) */\n      mload\n        /* \"contracts/GunzoZuYukiKoyano.sol\":32562:32568  reason */\n      dup2\n        /* \"contracts/GunzoZuYukiKoyano.sol\":32558:32560  32 */\n      0x20\n        /* \"contracts/GunzoZuYukiKoyano.sol\":32554:32569  add(32, reason) */\n      add\n        /* \"contracts/GunzoZuYukiKoyano.sol\":32547:32585  revert(add(32, reason), mload(reason)) */\n      revert\n        /* \"contracts/GunzoZuYukiKoyano.sol\":32120:32639  try IERC721Receiver(to).onERC721Received(_msgSender(), from, tokenId, _data) returns (bytes4 retval) {... */\n    tag_514:\n      not(sub(shl(0xe0, 0x01), 0x01))\n        /* \"contracts/GunzoZuYukiKoyano.sol\":32246:32297  retval == IERC721Receiver.onERC721Received.selector */\n      and\n      shl(0xe1, 0x0a85bd01)\n      eq\n      swap1\n      pop\n        /* \"contracts/GunzoZuYukiKoyano.sol\":32239:32297  return retval == IERC721Receiver.onERC721Received.selector */\n      jump(tag_428)\n        /* \"contracts/GunzoZuYukiKoyano.sol\":32085:32691  if (to.isContract()) {... */\n    tag_506:\n      pop\n        /* \"contracts/GunzoZuYukiKoyano.sol\":32676:32680  true */\n      0x01\n        /* \"contracts/GunzoZuYukiKoyano.sol\":31919:32697  function _checkOnERC721Received(... */\n      swap5\n      swap4\n      pop\n      pop\n      pop\n      pop\n      jump\t// out\n        /* \"contracts/GunzoZuYukiKoyano.sol\":37970:38940  function _removeTokenFromOwnerEnumeration(address from, uint256 tokenId) private {... */\n    tag_489:\n        /* \"contracts/GunzoZuYukiKoyano.sol\":38232:38254  uint256 lastTokenIndex */\n      0x00\n        /* \"contracts/GunzoZuYukiKoyano.sol\":38282:38283  1 */\n      0x01\n        /* \"contracts/GunzoZuYukiKoyano.sol\":38257:38279  ERC721.balanceOf(from) */\n      tag_529\n        /* \"contracts/GunzoZuYukiKoyano.sol\":38274:38278  from */\n      dup5\n        /* \"contracts/GunzoZuYukiKoyano.sol\":38257:38273  ERC721.balanceOf */\n      tag_138\n        /* \"contracts/GunzoZuYukiKoyano.sol\":38257:38279  ERC721.balanceOf(from) */\n      jump\t// in\n    tag_529:\n        /* \"contracts/GunzoZuYukiKoyano.sol\":38257:38283  ERC721.balanceOf(from) - 1 */\n      tag_530\n      swap2\n      swap1\n      tag_441\n      jump\t// in\n    tag_530:\n        /* \"contracts/GunzoZuYukiKoyano.sol\":38293:38311  uint256 tokenIndex */\n      0x00\n        /* \"contracts/GunzoZuYukiKoyano.sol\":38314:38340  _ownedTokensIndex[tokenId] */\n      dup4\n      dup2\n      mstore\n        /* \"contracts/GunzoZuYukiKoyano.sol\":38314:38331  _ownedTokensIndex */\n      0x07\n        /* \"contracts/GunzoZuYukiKoyano.sol\":38314:38340  _ownedTokensIndex[tokenId] */\n      0x20\n      mstore\n      0x40\n      swap1\n      keccak256\n      sload\n        /* \"contracts/GunzoZuYukiKoyano.sol\":38232:38283  uint256 lastTokenIndex = ERC721.balanceOf(from) - 1 */\n      swap1\n      swap2\n      pop\n        /* \"contracts/GunzoZuYukiKoyano.sol\":38444:38472  tokenIndex != lastTokenIndex */\n      dup1\n      dup3\n      eq\n        /* \"contracts/GunzoZuYukiKoyano.sol\":38440:38763  if (tokenIndex != lastTokenIndex) {... */\n      tag_531\n      jumpi\n      sub(shl(0xa0, 0x01), 0x01)\n        /* \"contracts/GunzoZuYukiKoyano.sol\":38510:38528  _ownedTokens[from] */\n      dup5\n      and\n        /* \"contracts/GunzoZuYukiKoyano.sol\":38488:38507  uint256 lastTokenId */\n      0x00\n        /* \"contracts/GunzoZuYukiKoyano.sol\":38510:38528  _ownedTokens[from] */\n      swap1\n      dup2\n      mstore\n        /* \"contracts/GunzoZuYukiKoyano.sol\":38510:38522  _ownedTokens */\n      0x06\n        /* \"contracts/GunzoZuYukiKoyano.sol\":38510:38528  _ownedTokens[from] */\n      0x20\n      swap1\n      dup2\n      mstore\n      0x40\n      dup1\n      dup4\n      keccak256\n        /* \"contracts/GunzoZuYukiKoyano.sol\":38510:38544  _ownedTokens[from][lastTokenIndex] */\n      dup6\n      dup5\n      mstore\n      dup3\n      mstore\n      dup1\n      dup4\n      keccak256\n      sload\n        /* \"contracts/GunzoZuYukiKoyano.sol\":38559:38589  _ownedTokens[from][tokenIndex] */\n      dup5\n      dup5\n      mstore\n      dup2\n      dup5\n      keccak256\n        /* \"contracts/GunzoZuYukiKoyano.sol\":38559:38603  _ownedTokens[from][tokenIndex] = lastTokenId */\n      dup2\n      swap1\n      sstore\n        /* \"contracts/GunzoZuYukiKoyano.sol\":38675:38705  _ownedTokensIndex[lastTokenId] */\n      dup4\n      mstore\n        /* \"contracts/GunzoZuYukiKoyano.sol\":38675:38692  _ownedTokensIndex */\n      0x07\n        /* \"contracts/GunzoZuYukiKoyano.sol\":38675:38705  _ownedTokensIndex[lastTokenId] */\n      swap1\n      swap2\n      mstore\n      swap1\n      keccak256\n        /* \"contracts/GunzoZuYukiKoyano.sol\":38675:38718  _ownedTokensIndex[lastTokenId] = tokenIndex */\n      dup2\n      swap1\n      sstore\n        /* \"contracts/GunzoZuYukiKoyano.sol\":38440:38763  if (tokenIndex != lastTokenIndex) {... */\n    tag_531:\n      pop\n        /* \"contracts/GunzoZuYukiKoyano.sol\":38856:38882  _ownedTokensIndex[tokenId] */\n      0x00\n      swap2\n      dup3\n      mstore\n        /* \"contracts/GunzoZuYukiKoyano.sol\":38856:38873  _ownedTokensIndex */\n      0x07\n        /* \"contracts/GunzoZuYukiKoyano.sol\":38856:38882  _ownedTokensIndex[tokenId] */\n      0x20\n      swap1\n      dup2\n      mstore\n      0x40\n      dup1\n      dup5\n      keccak256\n        /* \"contracts/GunzoZuYukiKoyano.sol\":38849:38882  delete _ownedTokensIndex[tokenId] */\n      dup5\n      swap1\n      sstore\n      sub(shl(0xa0, 0x01), 0x01)\n        /* \"contracts/GunzoZuYukiKoyano.sol\":38899:38917  _ownedTokens[from] */\n      swap1\n      swap5\n      and\n      dup4\n      mstore\n        /* \"contracts/GunzoZuYukiKoyano.sol\":38899:38911  _ownedTokens */\n      0x06\n        /* \"contracts/GunzoZuYukiKoyano.sol\":38899:38917  _ownedTokens[from] */\n      dup2\n      mstore\n      dup4\n      dup4\n      keccak256\n        /* \"contracts/GunzoZuYukiKoyano.sol\":38899:38933  _ownedTokens[from][lastTokenIndex] */\n      swap2\n      dup4\n      mstore\n      mstore\n      swap1\n      dup2\n      keccak256\n        /* \"contracts/GunzoZuYukiKoyano.sol\":38892:38933  delete _ownedTokens[from][lastTokenIndex] */\n      sstore\n        /* \"contracts/GunzoZuYukiKoyano.sol\":37970:38940  function _removeTokenFromOwnerEnumeration(address from, uint256 tokenId) private {... */\n      jump\t// out\n        /* \"contracts/GunzoZuYukiKoyano.sol\":39228:40289  function _removeTokenFromAllTokensEnumeration(uint256 tokenId) private {... */\n    tag_492:\n        /* \"contracts/GunzoZuYukiKoyano.sol\":39502:39512  _allTokens */\n      0x08\n        /* \"contracts/GunzoZuYukiKoyano.sol\":39502:39519  _allTokens.length */\n      sload\n        /* \"contracts/GunzoZuYukiKoyano.sol\":39477:39499  uint256 lastTokenIndex */\n      0x00\n      swap1\n        /* \"contracts/GunzoZuYukiKoyano.sol\":39502:39523  _allTokens.length - 1 */\n      tag_533\n      swap1\n        /* \"contracts/GunzoZuYukiKoyano.sol\":39522:39523  1 */\n      0x01\n      swap1\n        /* \"contracts/GunzoZuYukiKoyano.sol\":39502:39523  _allTokens.length - 1 */\n      tag_441\n      jump\t// in\n    tag_533:\n        /* \"contracts/GunzoZuYukiKoyano.sol\":39533:39551  uint256 tokenIndex */\n      0x00\n        /* \"contracts/GunzoZuYukiKoyano.sol\":39554:39578  _allTokensIndex[tokenId] */\n      dup4\n      dup2\n      mstore\n        /* \"contracts/GunzoZuYukiKoyano.sol\":39554:39569  _allTokensIndex */\n      0x09\n        /* \"contracts/GunzoZuYukiKoyano.sol\":39554:39578  _allTokensIndex[tokenId] */\n      0x20\n      mstore\n      0x40\n      dup2\n      keccak256\n      sload\n        /* \"contracts/GunzoZuYukiKoyano.sol\":39922:39932  _allTokens */\n      0x08\n        /* \"contracts/GunzoZuYukiKoyano.sol\":39922:39948  _allTokens[lastTokenIndex] */\n      dup1\n      sload\n        /* \"contracts/GunzoZuYukiKoyano.sol\":39477:39523  uint256 lastTokenIndex = _allTokens.length - 1 */\n      swap4\n      swap5\n      pop\n        /* \"contracts/GunzoZuYukiKoyano.sol\":39554:39578  _allTokensIndex[tokenId] */\n      swap1\n      swap3\n        /* \"contracts/GunzoZuYukiKoyano.sol\":39477:39523  uint256 lastTokenIndex = _allTokens.length - 1 */\n      dup5\n      swap1\n        /* \"contracts/GunzoZuYukiKoyano.sol\":39922:39948  _allTokens[lastTokenIndex] */\n      dup2\n      lt\n      tag_535\n      jumpi\n      tag_535\n      tag_279\n      jump\t// in\n    tag_535:\n      swap1\n      0x00\n      mstore\n      keccak256(0x00, 0x20)\n      add\n      sload\n        /* \"contracts/GunzoZuYukiKoyano.sol\":39900:39948  uint256 lastTokenId = _allTokens[lastTokenIndex] */\n      swap1\n      pop\n        /* \"contracts/GunzoZuYukiKoyano.sol\":39984:39995  lastTokenId */\n      dup1\n        /* \"contracts/GunzoZuYukiKoyano.sol\":39959:39969  _allTokens */\n      0x08\n        /* \"contracts/GunzoZuYukiKoyano.sol\":39970:39980  tokenIndex */\n      dup4\n        /* \"contracts/GunzoZuYukiKoyano.sol\":39959:39981  _allTokens[tokenIndex] */\n      dup2\n      sload\n      dup2\n      lt\n      tag_538\n      jumpi\n      tag_538\n      tag_279\n      jump\t// in\n    tag_538:\n      0x00\n      swap2\n      dup3\n      mstore\n      0x20\n      dup1\n      dup4\n      keccak256\n      swap1\n      swap2\n      add\n        /* \"contracts/GunzoZuYukiKoyano.sol\":39959:39995  _allTokens[tokenIndex] = lastTokenId */\n      swap3\n      swap1\n      swap3\n      sstore\n        /* \"contracts/GunzoZuYukiKoyano.sol\":40063:40091  _allTokensIndex[lastTokenId] */\n      dup3\n      dup2\n      mstore\n        /* \"contracts/GunzoZuYukiKoyano.sol\":40063:40078  _allTokensIndex */\n      0x09\n        /* \"contracts/GunzoZuYukiKoyano.sol\":40063:40091  _allTokensIndex[lastTokenId] */\n      swap1\n      swap2\n      mstore\n      0x40\n      dup1\n      dup3\n      keccak256\n        /* \"contracts/GunzoZuYukiKoyano.sol\":40063:40104  _allTokensIndex[lastTokenId] = tokenIndex */\n      dup5\n      swap1\n      sstore\n        /* \"contracts/GunzoZuYukiKoyano.sol\":40232:40256  _allTokensIndex[tokenId] */\n      dup6\n      dup3\n      mstore\n      dup2\n      keccak256\n        /* \"contracts/GunzoZuYukiKoyano.sol\":40225:40256  delete _allTokensIndex[tokenId] */\n      sstore\n        /* \"contracts/GunzoZuYukiKoyano.sol\":40266:40276  _allTokens */\n      0x08\n        /* \"contracts/GunzoZuYukiKoyano.sol\":40266:40282  _allTokens.pop() */\n      dup1\n      sload\n      dup1\n      tag_541\n      jumpi\n      tag_541\n      tag_542\n      jump\t// in\n    tag_541:\n      0x01\n      swap1\n      sub\n      dup2\n      dup2\n      swap1\n      0x00\n      mstore\n      keccak256(0x00, 0x20)\n      add\n      0x00\n      swap1\n      sstore\n      swap1\n      sstore\n        /* \"contracts/GunzoZuYukiKoyano.sol\":39299:40289  {... */\n      pop\n      pop\n      pop\n        /* \"contracts/GunzoZuYukiKoyano.sol\":39228:40289  function _removeTokenFromAllTokensEnumeration(uint256 tokenId) private {... */\n      pop\n      jump\t// out\n        /* \"contracts/GunzoZuYukiKoyano.sol\":36780:36997  function _addTokenToOwnerEnumeration(address to, uint256 tokenId) private {... */\n    tag_496:\n        /* \"contracts/GunzoZuYukiKoyano.sol\":36864:36878  uint256 length */\n      0x00\n        /* \"contracts/GunzoZuYukiKoyano.sol\":36881:36901  ERC721.balanceOf(to) */\n      tag_545\n        /* \"contracts/GunzoZuYukiKoyano.sol\":36898:36900  to */\n      dup4\n        /* \"contracts/GunzoZuYukiKoyano.sol\":36881:36897  ERC721.balanceOf */\n      tag_138\n        /* \"contracts/GunzoZuYukiKoyano.sol\":36881:36901  ERC721.balanceOf(to) */\n      jump\t// in\n    tag_545:\n      sub(shl(0xa0, 0x01), 0x01)\n        /* \"contracts/GunzoZuYukiKoyano.sol\":36911:36927  _ownedTokens[to] */\n      swap1\n      swap4\n      and\n      0x00\n      swap1\n      dup2\n      mstore\n        /* \"contracts/GunzoZuYukiKoyano.sol\":36911:36923  _ownedTokens */\n      0x06\n        /* \"contracts/GunzoZuYukiKoyano.sol\":36911:36927  _ownedTokens[to] */\n      0x20\n      swap1\n      dup2\n      mstore\n      0x40\n      dup1\n      dup4\n      keccak256\n        /* \"contracts/GunzoZuYukiKoyano.sol\":36911:36935  _ownedTokens[to][length] */\n      dup7\n      dup5\n      mstore\n      dup3\n      mstore\n      dup1\n      dup4\n      keccak256\n        /* \"contracts/GunzoZuYukiKoyano.sol\":36911:36945  _ownedTokens[to][length] = tokenId */\n      dup6\n      swap1\n      sstore\n        /* \"contracts/GunzoZuYukiKoyano.sol\":36955:36981  _ownedTokensIndex[tokenId] */\n      swap4\n      dup3\n      mstore\n        /* \"contracts/GunzoZuYukiKoyano.sol\":36955:36972  _ownedTokensIndex */\n      0x07\n        /* \"contracts/GunzoZuYukiKoyano.sol\":36955:36981  _ownedTokensIndex[tokenId] */\n      swap1\n      mstore\n      swap2\n      swap1\n      swap2\n      keccak256\n        /* \"contracts/GunzoZuYukiKoyano.sol\":36955:36990  _ownedTokensIndex[tokenId] = length */\n      swap2\n      swap1\n      swap2\n      sstore\n      pop\n        /* \"contracts/GunzoZuYukiKoyano.sol\":36780:36997  function _addTokenToOwnerEnumeration(address to, uint256 tokenId) private {... */\n      jump\t// out\n        /* \"contracts/GunzoZuYukiKoyano.sol\":29263:29635  function _mint(address to, uint256 tokenId) internal virtual {... */\n    tag_499:\n      sub(shl(0xa0, 0x01), 0x01)\n        /* \"contracts/GunzoZuYukiKoyano.sol\":29342:29358  to != address(0) */\n      dup3\n      and\n        /* \"contracts/GunzoZuYukiKoyano.sol\":29334:29395  require(to != address(0), \"ERC721: mint to the zero address\") */\n      tag_547\n      jumpi\n      mload(0x40)\n      shl(0xe5, 0x461bcd)\n      dup2\n      mstore\n        /* \"#utility.yul\":12273:12275   */\n      0x20\n        /* \"contracts/GunzoZuYukiKoyano.sol\":29334:29395  require(to != address(0), \"ERC721: mint to the zero address\") */\n      0x04\n      dup3\n      add\n        /* \"#utility.yul\":12255:12276   */\n      dup2\n      swap1\n      mstore\n        /* \"#utility.yul\":12292:12310   */\n      0x24\n      dup3\n      add\n        /* \"#utility.yul\":12285:12315   */\n      mstore\n        /* \"#utility.yul\":12351:12385   */\n      0x4552433732313a206d696e7420746f20746865207a65726f2061646472657373\n        /* \"#utility.yul\":12331:12349   */\n      0x44\n      dup3\n      add\n        /* \"#utility.yul\":12324:12386   */\n      mstore\n        /* \"#utility.yul\":12403:12421   */\n      0x64\n      add\n        /* \"contracts/GunzoZuYukiKoyano.sol\":29334:29395  require(to != address(0), \"ERC721: mint to the zero address\") */\n      tag_207\n        /* \"#utility.yul\":12071:12427   */\n      jump\n        /* \"contracts/GunzoZuYukiKoyano.sol\":29334:29395  require(to != address(0), \"ERC721: mint to the zero address\") */\n    tag_547:\n        /* \"contracts/GunzoZuYukiKoyano.sol\":27409:27413  bool */\n      0x00\n        /* \"contracts/GunzoZuYukiKoyano.sol\":27432:27448  _owners[tokenId] */\n      dup2\n      dup2\n      mstore\n        /* \"contracts/GunzoZuYukiKoyano.sol\":27432:27439  _owners */\n      0x02\n        /* \"contracts/GunzoZuYukiKoyano.sol\":27432:27448  _owners[tokenId] */\n      0x20\n      mstore\n      0x40\n      swap1\n      keccak256\n      sload\n      sub(shl(0xa0, 0x01), 0x01)\n      and\n        /* \"contracts/GunzoZuYukiKoyano.sol\":27432:27462  _owners[tokenId] != address(0) */\n      iszero\n        /* \"contracts/GunzoZuYukiKoyano.sol\":29405:29463  require(!_exists(tokenId), \"ERC721: token already minted\") */\n      tag_551\n      jumpi\n      mload(0x40)\n      shl(0xe5, 0x461bcd)\n      dup2\n      mstore\n        /* \"#utility.yul\":9498:9500   */\n      0x20\n        /* \"contracts/GunzoZuYukiKoyano.sol\":29405:29463  require(!_exists(tokenId), \"ERC721: token already minted\") */\n      0x04\n      dup3\n      add\n        /* \"#utility.yul\":9480:9501   */\n      mstore\n        /* \"#utility.yul\":9537:9539   */\n      0x1c\n        /* \"#utility.yul\":9517:9535   */\n      0x24\n      dup3\n      add\n        /* \"#utility.yul\":9510:9540   */\n      mstore\n        /* \"#utility.yul\":9576:9606   */\n      0x4552433732313a20746f6b656e20616c7265616479206d696e74656400000000\n        /* \"#utility.yul\":9556:9574   */\n      0x44\n      dup3\n      add\n        /* \"#utility.yul\":9549:9607   */\n      mstore\n        /* \"#utility.yul\":9624:9642   */\n      0x64\n      add\n        /* \"contracts/GunzoZuYukiKoyano.sol\":29405:29463  require(!_exists(tokenId), \"ERC721: token already minted\") */\n      tag_207\n        /* \"#utility.yul\":9296:9648   */\n      jump\n        /* \"contracts/GunzoZuYukiKoyano.sol\":29405:29463  require(!_exists(tokenId), \"ERC721: token already minted\") */\n    tag_551:\n        /* \"contracts/GunzoZuYukiKoyano.sol\":29474:29519  _beforeTokenTransfer(address(0), to, tokenId) */\n      tag_554\n        /* \"contracts/GunzoZuYukiKoyano.sol\":29503:29504  0 */\n      0x00\n        /* \"contracts/GunzoZuYukiKoyano.sol\":29507:29509  to */\n      dup4\n        /* \"contracts/GunzoZuYukiKoyano.sol\":29511:29518  tokenId */\n      dup4\n        /* \"contracts/GunzoZuYukiKoyano.sol\":29474:29494  _beforeTokenTransfer */\n      tag_438\n        /* \"contracts/GunzoZuYukiKoyano.sol\":29474:29519  _beforeTokenTransfer(address(0), to, tokenId) */\n      jump\t// in\n    tag_554:\n      sub(shl(0xa0, 0x01), 0x01)\n        /* \"contracts/GunzoZuYukiKoyano.sol\":29530:29543  _balances[to] */\n      dup3\n      and\n      0x00\n      swap1\n      dup2\n      mstore\n        /* \"contracts/GunzoZuYukiKoyano.sol\":29530:29539  _balances */\n      0x03\n        /* \"contracts/GunzoZuYukiKoyano.sol\":29530:29543  _balances[to] */\n      0x20\n      mstore\n      0x40\n      dup2\n      keccak256\n        /* \"contracts/GunzoZuYukiKoyano.sol\":29530:29548  _balances[to] += 1 */\n      dup1\n      sload\n        /* \"contracts/GunzoZuYukiKoyano.sol\":29547:29548  1 */\n      0x01\n      swap3\n        /* \"contracts/GunzoZuYukiKoyano.sol\":29530:29543  _balances[to] */\n      swap1\n        /* \"contracts/GunzoZuYukiKoyano.sol\":29530:29548  _balances[to] += 1 */\n      tag_555\n      swap1\n        /* \"contracts/GunzoZuYukiKoyano.sol\":29547:29548  1 */\n      dup5\n      swap1\n        /* \"contracts/GunzoZuYukiKoyano.sol\":29530:29548  _balances[to] += 1 */\n      tag_339\n      jump\t// in\n    tag_555:\n      swap1\n      swap2\n      sstore\n      pop\n      pop\n        /* \"contracts/GunzoZuYukiKoyano.sol\":29558:29574  _owners[tokenId] */\n      0x00\n      dup2\n      dup2\n      mstore\n        /* \"contracts/GunzoZuYukiKoyano.sol\":29558:29565  _owners */\n      0x02\n        /* \"contracts/GunzoZuYukiKoyano.sol\":29558:29574  _owners[tokenId] */\n      0x20\n      mstore\n      0x40\n      dup1\n      dup3\n      keccak256\n        /* \"contracts/GunzoZuYukiKoyano.sol\":29558:29579  _owners[tokenId] = to */\n      dup1\n      sload\n      not(sub(shl(0xa0, 0x01), 0x01))\n      and\n      sub(shl(0xa0, 0x01), 0x01)\n      dup7\n      and\n      swap1\n      dup2\n      or\n      swap1\n      swap2\n      sstore\n        /* \"contracts/GunzoZuYukiKoyano.sol\":29595:29628  Transfer(address(0), to, tokenId) */\n      swap1\n      mload\n        /* \"contracts/GunzoZuYukiKoyano.sol\":29558:29574  _owners[tokenId] */\n      dup4\n      swap3\n      swap1\n        /* \"contracts/GunzoZuYukiKoyano.sol\":29595:29628  Transfer(address(0), to, tokenId) */\n      0xddf252ad1be2c89b69c2b068fc378daa952ba7f163c4a11628f55a4df523b3ef\n      swap1\n        /* \"contracts/GunzoZuYukiKoyano.sol\":29558:29574  _owners[tokenId] */\n      dup3\n      swap1\n        /* \"contracts/GunzoZuYukiKoyano.sol\":29595:29628  Transfer(address(0), to, tokenId) */\n      log4\n        /* \"contracts/GunzoZuYukiKoyano.sol\":29263:29635  function _mint(address to, uint256 tokenId) internal virtual {... */\n      pop\n      pop\n      jump\t// out\n    tag_303:\n      dup3\n      dup1\n      sload\n      tag_557\n      swap1\n      tag_212\n      jump\t// in\n    tag_557:\n      swap1\n      0x00\n      mstore\n      keccak256(0x00, 0x20)\n      swap1\n      0x1f\n      add\n      0x20\n      swap1\n      div\n      dup2\n      add\n      swap3\n      dup3\n      tag_559\n      jumpi\n      0x00\n      dup6\n      sstore\n      jump(tag_562)\n    tag_559:\n      dup3\n      0x1f\n      lt\n      tag_560\n      jumpi\n      dup1\n      mload\n      not(0xff)\n      and\n      dup4\n      dup1\n      add\n      or\n      dup6\n      sstore\n      jump(tag_562)\n    tag_560:\n      dup3\n      dup1\n      add\n      0x01\n      add\n      dup6\n      sstore\n      dup3\n      iszero\n      tag_562\n      jumpi\n      swap2\n      dup3\n      add\n    tag_561:\n      dup3\n      dup2\n      gt\n      iszero\n      tag_562\n      jumpi\n      dup3\n      mload\n      dup3\n      sstore\n      swap2\n      0x20\n      add\n      swap2\n      swap1\n      0x01\n      add\n      swap1\n      jump(tag_561)\n    tag_562:\n      pop\n      tag_563\n      swap3\n      swap2\n      pop\n      tag_564\n      jump\t// in\n    tag_563:\n      pop\n      swap1\n      jump\t// out\n    tag_564:\n    tag_565:\n      dup1\n      dup3\n      gt\n      iszero\n      tag_563\n      jumpi\n      0x00\n      dup2\n      sstore\n      0x01\n      add\n      jump(tag_565)\n        /* \"#utility.yul\":14:645   */\n    tag_568:\n        /* \"#utility.yul\":78:83   */\n      0x00\n        /* \"#utility.yul\":108:126   */\n      0xffffffffffffffff\n        /* \"#utility.yul\":149:151   */\n      dup1\n        /* \"#utility.yul\":141:147   */\n      dup5\n        /* \"#utility.yul\":138:152   */\n      gt\n        /* \"#utility.yul\":135:175   */\n      iszero\n      tag_571\n      jumpi\n        /* \"#utility.yul\":155:173   */\n      tag_571\n      tag_271\n      jump\t// in\n    tag_571:\n        /* \"#utility.yul\":230:232   */\n      0x40\n        /* \"#utility.yul\":224:233   */\n      mload\n        /* \"#utility.yul\":198:200   */\n      0x1f\n        /* \"#utility.yul\":284:299   */\n      dup6\n      add\n      not(0x1f)\n        /* \"#utility.yul\":280:304   */\n      swap1\n      dup2\n      and\n        /* \"#utility.yul\":306:308   */\n      0x3f\n        /* \"#utility.yul\":276:309   */\n      add\n        /* \"#utility.yul\":272:314   */\n      and\n        /* \"#utility.yul\":260:315   */\n      dup2\n      add\n      swap1\n        /* \"#utility.yul\":330:348   */\n      dup3\n      dup3\n      gt\n        /* \"#utility.yul\":350:372   */\n      dup2\n      dup4\n      lt\n        /* \"#utility.yul\":327:373   */\n      or\n        /* \"#utility.yul\":324:396   */\n      iszero\n      tag_573\n      jumpi\n        /* \"#utility.yul\":376:394   */\n      tag_573\n      tag_271\n      jump\t// in\n    tag_573:\n        /* \"#utility.yul\":416:426   */\n      dup2\n        /* \"#utility.yul\":412:414   */\n      0x40\n        /* \"#utility.yul\":405:427   */\n      mstore\n        /* \"#utility.yul\":445:451   */\n      dup1\n        /* \"#utility.yul\":436:451   */\n      swap4\n      pop\n        /* \"#utility.yul\":475:481   */\n      dup6\n        /* \"#utility.yul\":467:473   */\n      dup2\n        /* \"#utility.yul\":460:482   */\n      mstore\n        /* \"#utility.yul\":515:518   */\n      dup7\n        /* \"#utility.yul\":506:512   */\n      dup7\n        /* \"#utility.yul\":501:504   */\n      dup7\n        /* \"#utility.yul\":497:513   */\n      add\n        /* \"#utility.yul\":494:519   */\n      gt\n        /* \"#utility.yul\":491:536   */\n      iszero\n      tag_574\n      jumpi\n        /* \"#utility.yul\":532:533   */\n      0x00\n        /* \"#utility.yul\":529:530   */\n      dup1\n        /* \"#utility.yul\":522:534   */\n      revert\n        /* \"#utility.yul\":491:536   */\n    tag_574:\n        /* \"#utility.yul\":582:588   */\n      dup6\n        /* \"#utility.yul\":577:580   */\n      dup6\n        /* \"#utility.yul\":570:574   */\n      0x20\n        /* \"#utility.yul\":562:568   */\n      dup4\n        /* \"#utility.yul\":558:575   */\n      add\n        /* \"#utility.yul\":545:589   */\n      calldatacopy\n        /* \"#utility.yul\":637:638   */\n      0x00\n        /* \"#utility.yul\":630:634   */\n      0x20\n        /* \"#utility.yul\":621:627   */\n      dup8\n        /* \"#utility.yul\":613:619   */\n      dup4\n        /* \"#utility.yul\":609:628   */\n      add\n        /* \"#utility.yul\":605:635   */\n      add\n        /* \"#utility.yul\":598:639   */\n      mstore\n      pop\n      pop\n      pop\n        /* \"#utility.yul\":14:645   */\n      swap4\n      swap3\n      pop\n      pop\n      pop\n      jump\t// out\n        /* \"#utility.yul\":650:823   */\n    tag_575:\n        /* \"#utility.yul\":718:738   */\n      dup1\n      calldataload\n      sub(shl(0xa0, 0x01), 0x01)\n        /* \"#utility.yul\":767:798   */\n      dup2\n      and\n        /* \"#utility.yul\":757:799   */\n      dup2\n      eq\n        /* \"#utility.yul\":747:817   */\n      tag_577\n      jumpi\n        /* \"#utility.yul\":813:814   */\n      0x00\n        /* \"#utility.yul\":810:811   */\n      dup1\n        /* \"#utility.yul\":803:815   */\n      revert\n        /* \"#utility.yul\":747:817   */\n    tag_577:\n        /* \"#utility.yul\":650:823   */\n      swap2\n      swap1\n      pop\n      jump\t// out\n        /* \"#utility.yul\":828:988   */\n    tag_578:\n        /* \"#utility.yul\":893:913   */\n      dup1\n      calldataload\n        /* \"#utility.yul\":949:962   */\n      dup1\n      iszero\n        /* \"#utility.yul\":942:963   */\n      iszero\n        /* \"#utility.yul\":932:964   */\n      dup2\n      eq\n        /* \"#utility.yul\":922:982   */\n      tag_577\n      jumpi\n        /* \"#utility.yul\":978:979   */\n      0x00\n        /* \"#utility.yul\":975:976   */\n      dup1\n        /* \"#utility.yul\":968:980   */\n      revert\n        /* \"#utility.yul\":993:1179   */\n    tag_104:\n        /* \"#utility.yul\":1052:1058   */\n      0x00\n        /* \"#utility.yul\":1105:1107   */\n      0x20\n        /* \"#utility.yul\":1093:1102   */\n      dup3\n        /* \"#utility.yul\":1084:1091   */\n      dup5\n        /* \"#utility.yul\":1080:1103   */\n      sub\n        /* \"#utility.yul\":1076:1108   */\n      slt\n        /* \"#utility.yul\":1073:1125   */\n      iszero\n      tag_582\n      jumpi\n        /* \"#utility.yul\":1121:1122   */\n      0x00\n        /* \"#utility.yul\":1118:1119   */\n      dup1\n        /* \"#utility.yul\":1111:1123   */\n      revert\n        /* \"#utility.yul\":1073:1125   */\n    tag_582:\n        /* \"#utility.yul\":1144:1173   */\n      tag_387\n        /* \"#utility.yul\":1163:1172   */\n      dup3\n        /* \"#utility.yul\":1144:1173   */\n      tag_575\n      jump\t// in\n        /* \"#utility.yul\":1184:1444   */\n    tag_191:\n        /* \"#utility.yul\":1252:1258   */\n      0x00\n        /* \"#utility.yul\":1260:1266   */\n      dup1\n        /* \"#utility.yul\":1313:1315   */\n      0x40\n        /* \"#utility.yul\":1301:1310   */\n      dup4\n        /* \"#utility.yul\":1292:1299   */\n      dup6\n        /* \"#utility.yul\":1288:1311   */\n      sub\n        /* \"#utility.yul\":1284:1316   */\n      slt\n        /* \"#utility.yul\":1281:1333   */\n      iszero\n      tag_585\n      jumpi\n        /* \"#utility.yul\":1329:1330   */\n      0x00\n        /* \"#utility.yul\":1326:1327   */\n      dup1\n        /* \"#utility.yul\":1319:1331   */\n      revert\n        /* \"#utility.yul\":1281:1333   */\n    tag_585:\n        /* \"#utility.yul\":1352:1381   */\n      tag_586\n        /* \"#utility.yul\":1371:1380   */\n      dup4\n        /* \"#utility.yul\":1352:1381   */\n      tag_575\n      jump\t// in\n    tag_586:\n        /* \"#utility.yul\":1342:1381   */\n      swap2\n      pop\n        /* \"#utility.yul\":1400:1438   */\n      tag_587\n        /* \"#utility.yul\":1434:1436   */\n      0x20\n        /* \"#utility.yul\":1423:1432   */\n      dup5\n        /* \"#utility.yul\":1419:1437   */\n      add\n        /* \"#utility.yul\":1400:1438   */\n      tag_575\n      jump\t// in\n    tag_587:\n        /* \"#utility.yul\":1390:1438   */\n      swap1\n      pop\n        /* \"#utility.yul\":1184:1444   */\n      swap3\n      pop\n      swap3\n      swap1\n      pop\n      jump\t// out\n        /* \"#utility.yul\":1449:1777   */\n    tag_88:\n        /* \"#utility.yul\":1526:1532   */\n      0x00\n        /* \"#utility.yul\":1534:1540   */\n      dup1\n        /* \"#utility.yul\":1542:1548   */\n      0x00\n        /* \"#utility.yul\":1595:1597   */\n      0x60\n        /* \"#utility.yul\":1583:1592   */\n      dup5\n        /* \"#utility.yul\":1574:1581   */\n      dup7\n        /* \"#utility.yul\":1570:1593   */\n      sub\n        /* \"#utility.yul\":1566:1598   */\n      slt\n        /* \"#utility.yul\":1563:1615   */\n      iszero\n      tag_589\n      jumpi\n        /* \"#utility.yul\":1611:1612   */\n      0x00\n        /* \"#utility.yul\":1608:1609   */\n      dup1\n        /* \"#utility.yul\":1601:1613   */\n      revert\n        /* \"#utility.yul\":1563:1615   */\n    tag_589:\n        /* \"#utility.yul\":1634:1663   */\n      tag_590\n        /* \"#utility.yul\":1653:1662   */\n      dup5\n        /* \"#utility.yul\":1634:1663   */\n      tag_575\n      jump\t// in\n    tag_590:\n        /* \"#utility.yul\":1624:1663   */\n      swap3\n      pop\n        /* \"#utility.yul\":1682:1720   */\n      tag_591\n        /* \"#utility.yul\":1716:1718   */\n      0x20\n        /* \"#utility.yul\":1705:1714   */\n      dup6\n        /* \"#utility.yul\":1701:1719   */\n      add\n        /* \"#utility.yul\":1682:1720   */\n      tag_575\n      jump\t// in\n    tag_591:\n        /* \"#utility.yul\":1672:1720   */\n      swap2\n      pop\n        /* \"#utility.yul\":1767:1769   */\n      0x40\n        /* \"#utility.yul\":1756:1765   */\n      dup5\n        /* \"#utility.yul\":1752:1770   */\n      add\n        /* \"#utility.yul\":1739:1771   */\n      calldataload\n        /* \"#utility.yul\":1729:1771   */\n      swap1\n      pop\n        /* \"#utility.yul\":1449:1777   */\n      swap3\n      pop\n      swap3\n      pop\n      swap3\n      jump\t// out\n        /* \"#utility.yul\":1782:2448   */\n    tag_169:\n        /* \"#utility.yul\":1877:1883   */\n      0x00\n        /* \"#utility.yul\":1885:1891   */\n      dup1\n        /* \"#utility.yul\":1893:1899   */\n      0x00\n        /* \"#utility.yul\":1901:1907   */\n      dup1\n        /* \"#utility.yul\":1954:1957   */\n      0x80\n        /* \"#utility.yul\":1942:1951   */\n      dup6\n        /* \"#utility.yul\":1933:1940   */\n      dup8\n        /* \"#utility.yul\":1929:1952   */\n      sub\n        /* \"#utility.yul\":1925:1958   */\n      slt\n        /* \"#utility.yul\":1922:1975   */\n      iszero\n      tag_593\n      jumpi\n        /* \"#utility.yul\":1971:1972   */\n      0x00\n        /* \"#utility.yul\":1968:1969   */\n      dup1\n        /* \"#utility.yul\":1961:1973   */\n      revert\n        /* \"#utility.yul\":1922:1975   */\n    tag_593:\n        /* \"#utility.yul\":1994:2023   */\n      tag_594\n        /* \"#utility.yul\":2013:2022   */\n      dup6\n        /* \"#utility.yul\":1994:2023   */\n      tag_575\n      jump\t// in\n    tag_594:\n        /* \"#utility.yul\":1984:2023   */\n      swap4\n      pop\n        /* \"#utility.yul\":2042:2080   */\n      tag_595\n        /* \"#utility.yul\":2076:2078   */\n      0x20\n        /* \"#utility.yul\":2065:2074   */\n      dup7\n        /* \"#utility.yul\":2061:2079   */\n      add\n        /* \"#utility.yul\":2042:2080   */\n      tag_575\n      jump\t// in\n    tag_595:\n        /* \"#utility.yul\":2032:2080   */\n      swap3\n      pop\n        /* \"#utility.yul\":2127:2129   */\n      0x40\n        /* \"#utility.yul\":2116:2125   */\n      dup6\n        /* \"#utility.yul\":2112:2130   */\n      add\n        /* \"#utility.yul\":2099:2131   */\n      calldataload\n        /* \"#utility.yul\":2089:2131   */\n      swap2\n      pop\n        /* \"#utility.yul\":2182:2184   */\n      0x60\n        /* \"#utility.yul\":2171:2180   */\n      dup6\n        /* \"#utility.yul\":2167:2185   */\n      add\n        /* \"#utility.yul\":2154:2186   */\n      calldataload\n        /* \"#utility.yul\":2209:2227   */\n      0xffffffffffffffff\n        /* \"#utility.yul\":2201:2207   */\n      dup2\n        /* \"#utility.yul\":2198:2228   */\n      gt\n        /* \"#utility.yul\":2195:2245   */\n      iszero\n      tag_596\n      jumpi\n        /* \"#utility.yul\":2241:2242   */\n      0x00\n        /* \"#utility.yul\":2238:2239   */\n      dup1\n        /* \"#utility.yul\":2231:2243   */\n      revert\n        /* \"#utility.yul\":2195:2245   */\n    tag_596:\n        /* \"#utility.yul\":2264:2286   */\n      dup6\n      add\n        /* \"#utility.yul\":2317:2321   */\n      0x1f\n        /* \"#utility.yul\":2309:2322   */\n      dup2\n      add\n        /* \"#utility.yul\":2305:2332   */\n      dup8\n      sgt\n        /* \"#utility.yul\":2295:2350   */\n      tag_597\n      jumpi\n        /* \"#utility.yul\":2346:2347   */\n      0x00\n        /* \"#utility.yul\":2343:2344   */\n      dup1\n        /* \"#utility.yul\":2336:2348   */\n      revert\n        /* \"#utility.yul\":2295:2350   */\n    tag_597:\n        /* \"#utility.yul\":2369:2442   */\n      tag_598\n        /* \"#utility.yul\":2434:2441   */\n      dup8\n        /* \"#utility.yul\":2429:2431   */\n      dup3\n        /* \"#utility.yul\":2416:2432   */\n      calldataload\n        /* \"#utility.yul\":2411:2413   */\n      0x20\n        /* \"#utility.yul\":2407:2409   */\n      dup5\n        /* \"#utility.yul\":2403:2414   */\n      add\n        /* \"#utility.yul\":2369:2442   */\n      tag_568\n      jump\t// in\n    tag_598:\n        /* \"#utility.yul\":2359:2442   */\n      swap2\n      pop\n      pop\n        /* \"#utility.yul\":1782:2448   */\n      swap3\n      swap6\n      swap2\n      swap5\n      pop\n      swap3\n      pop\n      jump\t// out\n        /* \"#utility.yul\":2453:2707   */\n    tag_161:\n        /* \"#utility.yul\":2518:2524   */\n      0x00\n        /* \"#utility.yul\":2526:2532   */\n      dup1\n        /* \"#utility.yul\":2579:2581   */\n      0x40\n        /* \"#utility.yul\":2567:2576   */\n      dup4\n        /* \"#utility.yul\":2558:2565   */\n      dup6\n        /* \"#utility.yul\":2554:2577   */\n      sub\n        /* \"#utility.yul\":2550:2582   */\n      slt\n        /* \"#utility.yul\":2547:2599   */\n      iszero\n      tag_600\n      jumpi\n        /* \"#utility.yul\":2595:2596   */\n      0x00\n        /* \"#utility.yul\":2592:2593   */\n      dup1\n        /* \"#utility.yul\":2585:2597   */\n      revert\n        /* \"#utility.yul\":2547:2599   */\n    tag_600:\n        /* \"#utility.yul\":2618:2647   */\n      tag_601\n        /* \"#utility.yul\":2637:2646   */\n      dup4\n        /* \"#utility.yul\":2618:2647   */\n      tag_575\n      jump\t// in\n    tag_601:\n        /* \"#utility.yul\":2608:2647   */\n      swap2\n      pop\n        /* \"#utility.yul\":2666:2701   */\n      tag_587\n        /* \"#utility.yul\":2697:2699   */\n      0x20\n        /* \"#utility.yul\":2686:2695   */\n      dup5\n        /* \"#utility.yul\":2682:2700   */\n      add\n        /* \"#utility.yul\":2666:2701   */\n      tag_578\n      jump\t// in\n        /* \"#utility.yul\":2712:2966   */\n    tag_70:\n        /* \"#utility.yul\":2780:2786   */\n      0x00\n        /* \"#utility.yul\":2788:2794   */\n      dup1\n        /* \"#utility.yul\":2841:2843   */\n      0x40\n        /* \"#utility.yul\":2829:2838   */\n      dup4\n        /* \"#utility.yul\":2820:2827   */\n      dup6\n        /* \"#utility.yul\":2816:2839   */\n      sub\n        /* \"#utility.yul\":2812:2844   */\n      slt\n        /* \"#utility.yul\":2809:2861   */\n      iszero\n      tag_604\n      jumpi\n        /* \"#utility.yul\":2857:2858   */\n      0x00\n        /* \"#utility.yul\":2854:2855   */\n      dup1\n        /* \"#utility.yul\":2847:2859   */\n      revert\n        /* \"#utility.yul\":2809:2861   */\n    tag_604:\n        /* \"#utility.yul\":2880:2909   */\n      tag_605\n        /* \"#utility.yul\":2899:2908   */\n      dup4\n        /* \"#utility.yul\":2880:2909   */\n      tag_575\n      jump\t// in\n    tag_605:\n        /* \"#utility.yul\":2870:2909   */\n      swap5\n        /* \"#utility.yul\":2956:2958   */\n      0x20\n        /* \"#utility.yul\":2941:2959   */\n      swap4\n      swap1\n      swap4\n      add\n        /* \"#utility.yul\":2928:2960   */\n      calldataload\n      swap4\n      pop\n      pop\n      pop\n        /* \"#utility.yul\":2712:2966   */\n      jump\t// out\n        /* \"#utility.yul\":2971:3151   */\n    tag_53:\n        /* \"#utility.yul\":3027:3033   */\n      0x00\n        /* \"#utility.yul\":3080:3082   */\n      0x20\n        /* \"#utility.yul\":3068:3077   */\n      dup3\n        /* \"#utility.yul\":3059:3066   */\n      dup5\n        /* \"#utility.yul\":3055:3078   */\n      sub\n        /* \"#utility.yul\":3051:3083   */\n      slt\n        /* \"#utility.yul\":3048:3100   */\n      iszero\n      tag_607\n      jumpi\n        /* \"#utility.yul\":3096:3097   */\n      0x00\n        /* \"#utility.yul\":3093:3094   */\n      dup1\n        /* \"#utility.yul\":3086:3098   */\n      revert\n        /* \"#utility.yul\":3048:3100   */\n    tag_607:\n        /* \"#utility.yul\":3119:3145   */\n      tag_387\n        /* \"#utility.yul\":3135:3144   */\n      dup3\n        /* \"#utility.yul\":3119:3145   */\n      tag_578\n      jump\t// in\n        /* \"#utility.yul\":3156:3401   */\n    tag_46:\n        /* \"#utility.yul\":3214:3220   */\n      0x00\n        /* \"#utility.yul\":3267:3269   */\n      0x20\n        /* \"#utility.yul\":3255:3264   */\n      dup3\n        /* \"#utility.yul\":3246:3253   */\n      dup5\n        /* \"#utility.yul\":3242:3265   */\n      sub\n        /* \"#utility.yul\":3238:3270   */\n      slt\n        /* \"#utility.yul\":3235:3287   */\n      iszero\n      tag_610\n      jumpi\n        /* \"#utility.yul\":3283:3284   */\n      0x00\n        /* \"#utility.yul\":3280:3281   */\n      dup1\n        /* \"#utility.yul\":3273:3285   */\n      revert\n        /* \"#utility.yul\":3235:3287   */\n    tag_610:\n        /* \"#utility.yul\":3322:3331   */\n      dup2\n        /* \"#utility.yul\":3309:3332   */\n      calldataload\n        /* \"#utility.yul\":3341:3371   */\n      tag_387\n        /* \"#utility.yul\":3365:3370   */\n      dup2\n        /* \"#utility.yul\":3341:3371   */\n      tag_612\n      jump\t// in\n        /* \"#utility.yul\":3406:3655   */\n    tag_513:\n        /* \"#utility.yul\":3475:3481   */\n      0x00\n        /* \"#utility.yul\":3528:3530   */\n      0x20\n        /* \"#utility.yul\":3516:3525   */\n      dup3\n        /* \"#utility.yul\":3507:3514   */\n      dup5\n        /* \"#utility.yul\":3503:3526   */\n      sub\n        /* \"#utility.yul\":3499:3531   */\n      slt\n        /* \"#utility.yul\":3496:3548   */\n      iszero\n      tag_614\n      jumpi\n        /* \"#utility.yul\":3544:3545   */\n      0x00\n        /* \"#utility.yul\":3541:3542   */\n      dup1\n        /* \"#utility.yul\":3534:3546   */\n      revert\n        /* \"#utility.yul\":3496:3548   */\n    tag_614:\n        /* \"#utility.yul\":3576:3585   */\n      dup2\n        /* \"#utility.yul\":3570:3586   */\n      mload\n        /* \"#utility.yul\":3595:3625   */\n      tag_387\n        /* \"#utility.yul\":3619:3624   */\n      dup2\n        /* \"#utility.yul\":3595:3625   */\n      tag_612\n      jump\t// in\n        /* \"#utility.yul\":3660:4110   */\n    tag_124:\n        /* \"#utility.yul\":3729:3735   */\n      0x00\n        /* \"#utility.yul\":3782:3784   */\n      0x20\n        /* \"#utility.yul\":3770:3779   */\n      dup3\n        /* \"#utility.yul\":3761:3768   */\n      dup5\n        /* \"#utility.yul\":3757:3780   */\n      sub\n        /* \"#utility.yul\":3753:3785   */\n      slt\n        /* \"#utility.yul\":3750:3802   */\n      iszero\n      tag_617\n      jumpi\n        /* \"#utility.yul\":3798:3799   */\n      0x00\n        /* \"#utility.yul\":3795:3796   */\n      dup1\n        /* \"#utility.yul\":3788:3800   */\n      revert\n        /* \"#utility.yul\":3750:3802   */\n    tag_617:\n        /* \"#utility.yul\":3838:3847   */\n      dup2\n        /* \"#utility.yul\":3825:3848   */\n      calldataload\n        /* \"#utility.yul\":3871:3889   */\n      0xffffffffffffffff\n        /* \"#utility.yul\":3863:3869   */\n      dup2\n        /* \"#utility.yul\":3860:3890   */\n      gt\n        /* \"#utility.yul\":3857:3907   */\n      iszero\n      tag_618\n      jumpi\n        /* \"#utility.yul\":3903:3904   */\n      0x00\n        /* \"#utility.yul\":3900:3901   */\n      dup1\n        /* \"#utility.yul\":3893:3905   */\n      revert\n        /* \"#utility.yul\":3857:3907   */\n    tag_618:\n        /* \"#utility.yul\":3926:3948   */\n      dup3\n      add\n        /* \"#utility.yul\":3979:3983   */\n      0x1f\n        /* \"#utility.yul\":3971:3984   */\n      dup2\n      add\n        /* \"#utility.yul\":3967:3994   */\n      dup5\n      sgt\n        /* \"#utility.yul\":3957:4012   */\n      tag_619\n      jumpi\n        /* \"#utility.yul\":4008:4009   */\n      0x00\n        /* \"#utility.yul\":4005:4006   */\n      dup1\n        /* \"#utility.yul\":3998:4010   */\n      revert\n        /* \"#utility.yul\":3957:4012   */\n    tag_619:\n        /* \"#utility.yul\":4031:4104   */\n      tag_428\n        /* \"#utility.yul\":4096:4103   */\n      dup5\n        /* \"#utility.yul\":4091:4093   */\n      dup3\n        /* \"#utility.yul\":4078:4094   */\n      calldataload\n        /* \"#utility.yul\":4073:4075   */\n      0x20\n        /* \"#utility.yul\":4069:4071   */\n      dup5\n        /* \"#utility.yul\":4065:4076   */\n      add\n        /* \"#utility.yul\":4031:4104   */\n      tag_568\n      jump\t// in\n        /* \"#utility.yul\":4115:4295   */\n    tag_63:\n        /* \"#utility.yul\":4174:4180   */\n      0x00\n        /* \"#utility.yul\":4227:4229   */\n      0x20\n        /* \"#utility.yul\":4215:4224   */\n      dup3\n        /* \"#utility.yul\":4206:4213   */\n      dup5\n        /* \"#utility.yul\":4202:4225   */\n      sub\n        /* \"#utility.yul\":4198:4230   */\n      slt\n        /* \"#utility.yul\":4195:4247   */\n      iszero\n      tag_622\n      jumpi\n        /* \"#utility.yul\":4243:4244   */\n      0x00\n        /* \"#utility.yul\":4240:4241   */\n      dup1\n        /* \"#utility.yul\":4233:4245   */\n      revert\n        /* \"#utility.yul\":4195:4247   */\n    tag_622:\n      pop\n        /* \"#utility.yul\":4266:4289   */\n      calldataload\n      swap2\n        /* \"#utility.yul\":4115:4295   */\n      swap1\n      pop\n      jump\t// out\n        /* \"#utility.yul\":4300:4557   */\n    tag_623:\n        /* \"#utility.yul\":4341:4344   */\n      0x00\n        /* \"#utility.yul\":4379:4384   */\n      dup2\n        /* \"#utility.yul\":4373:4385   */\n      mload\n        /* \"#utility.yul\":4406:4412   */\n      dup1\n        /* \"#utility.yul\":4401:4404   */\n      dup5\n        /* \"#utility.yul\":4394:4413   */\n      mstore\n        /* \"#utility.yul\":4422:4485   */\n      tag_625\n        /* \"#utility.yul\":4478:4484   */\n      dup2\n        /* \"#utility.yul\":4471:4475   */\n      0x20\n        /* \"#utility.yul\":4466:4469   */\n      dup7\n        /* \"#utility.yul\":4462:4476   */\n      add\n        /* \"#utility.yul\":4455:4459   */\n      0x20\n        /* \"#utility.yul\":4448:4453   */\n      dup7\n        /* \"#utility.yul\":4444:4460   */\n      add\n        /* \"#utility.yul\":4422:4485   */\n      tag_626\n      jump\t// in\n    tag_625:\n        /* \"#utility.yul\":4539:4541   */\n      0x1f\n        /* \"#utility.yul\":4518:4533   */\n      add\n      not(0x1f)\n        /* \"#utility.yul\":4514:4543   */\n      and\n        /* \"#utility.yul\":4505:4544   */\n      swap3\n      swap1\n      swap3\n      add\n        /* \"#utility.yul\":4546:4550   */\n      0x20\n        /* \"#utility.yul\":4501:4551   */\n      add\n      swap3\n        /* \"#utility.yul\":4300:4557   */\n      swap2\n      pop\n      pop\n      jump\t// out\n        /* \"#utility.yul\":4562:6089   */\n    tag_391:\n        /* \"#utility.yul\":4786:4789   */\n      0x00\n        /* \"#utility.yul\":4824:4830   */\n      dup5\n        /* \"#utility.yul\":4818:4831   */\n      mload\n        /* \"#utility.yul\":4850:4854   */\n      0x20\n        /* \"#utility.yul\":4863:4914   */\n      tag_628\n        /* \"#utility.yul\":4907:4913   */\n      dup3\n        /* \"#utility.yul\":4902:4905   */\n      dup6\n        /* \"#utility.yul\":4897:4899   */\n      dup4\n        /* \"#utility.yul\":4889:4895   */\n      dup11\n        /* \"#utility.yul\":4885:4900   */\n      add\n        /* \"#utility.yul\":4863:4914   */\n      tag_626\n      jump\t// in\n    tag_628:\n        /* \"#utility.yul\":4977:4990   */\n      dup6\n      mload\n        /* \"#utility.yul\":4936:4952   */\n      swap2\n      dup5\n      add\n      swap2\n        /* \"#utility.yul\":4999:5054   */\n      tag_629\n        /* \"#utility.yul\":4977:4990   */\n      dup2\n        /* \"#utility.yul\":4936:4952   */\n      dup5\n        /* \"#utility.yul\":5021:5036   */\n      dup5\n      dup11\n      add\n        /* \"#utility.yul\":4999:5054   */\n      tag_626\n      jump\t// in\n    tag_629:\n        /* \"#utility.yul\":5143:5156   */\n      dup6\n      sload\n        /* \"#utility.yul\":5076:5096   */\n      swap3\n      add\n      swap2\n        /* \"#utility.yul\":5116:5117   */\n      0x00\n      swap1\n        /* \"#utility.yul\":5203:5204   */\n      0x01\n        /* \"#utility.yul\":5225:5243   */\n      dup2\n      dup2\n      shr\n      swap1\n        /* \"#utility.yul\":5278:5296   */\n      dup1\n      dup4\n      and\n      dup1\n        /* \"#utility.yul\":5305:5398   */\n      tag_630\n      jumpi\n        /* \"#utility.yul\":5383:5387   */\n      0x7f\n        /* \"#utility.yul\":5373:5381   */\n      dup4\n        /* \"#utility.yul\":5369:5388   */\n      and\n        /* \"#utility.yul\":5357:5388   */\n      swap3\n      pop\n        /* \"#utility.yul\":5305:5398   */\n    tag_630:\n        /* \"#utility.yul\":5446:5448   */\n      dup6\n        /* \"#utility.yul\":5436:5444   */\n      dup4\n        /* \"#utility.yul\":5433:5449   */\n      lt\n        /* \"#utility.yul\":5413:5431   */\n      dup2\n        /* \"#utility.yul\":5410:5450   */\n      eq\n        /* \"#utility.yul\":5407:5574   */\n      iszero\n      tag_631\n      jumpi\n      shl(0xe0, 0x4e487b71)\n        /* \"#utility.yul\":5473:5506   */\n      dup6\n      mstore\n        /* \"#utility.yul\":5529:5533   */\n      0x22\n        /* \"#utility.yul\":5526:5527   */\n      0x04\n        /* \"#utility.yul\":5519:5534   */\n      mstore\n        /* \"#utility.yul\":5559:5563   */\n      0x24\n        /* \"#utility.yul\":5480:5483   */\n      dup6\n        /* \"#utility.yul\":5547:5564   */\n      revert\n        /* \"#utility.yul\":5407:5574   */\n    tag_631:\n        /* \"#utility.yul\":5590:5608   */\n      dup1\n        /* \"#utility.yul\":5617:5727   */\n      dup1\n      iszero\n      tag_633\n      jumpi\n        /* \"#utility.yul\":5741:5742   */\n      0x01\n        /* \"#utility.yul\":5736:6064   */\n      dup2\n      eq\n      tag_634\n      jumpi\n        /* \"#utility.yul\":5583:6064   */\n      jump(tag_632)\n        /* \"#utility.yul\":5617:5727   */\n    tag_633:\n      not(0xff)\n        /* \"#utility.yul\":5652:5676   */\n      dup6\n      and\n        /* \"#utility.yul\":5638:5677   */\n      dup9\n      mstore\n        /* \"#utility.yul\":5697:5717   */\n      dup4\n      dup9\n      add\n      swap6\n      pop\n        /* \"#utility.yul\":5617:5727   */\n      jump(tag_632)\n        /* \"#utility.yul\":5736:6064   */\n    tag_634:\n        /* \"#utility.yul\":15520:15521   */\n      0x00\n        /* \"#utility.yul\":15513:15527   */\n      dup12\n      dup2\n      mstore\n        /* \"#utility.yul\":15557:15561   */\n      0x20\n        /* \"#utility.yul\":15544:15562   */\n      swap1\n      keccak256\n        /* \"#utility.yul\":5831:5832   */\n      0x00\n        /* \"#utility.yul\":5845:6014   */\n    tag_637:\n        /* \"#utility.yul\":5859:5867   */\n      dup6\n        /* \"#utility.yul\":5856:5857   */\n      dup2\n        /* \"#utility.yul\":5853:5868   */\n      lt\n        /* \"#utility.yul\":5845:6014   */\n      iszero\n      tag_639\n      jumpi\n        /* \"#utility.yul\":5941:5955   */\n      dup2\n      sload\n        /* \"#utility.yul\":5926:5939   */\n      dup11\n      dup3\n      add\n        /* \"#utility.yul\":5919:5956   */\n      mstore\n        /* \"#utility.yul\":5984:6000   */\n      swap1\n      dup5\n      add\n      swap1\n        /* \"#utility.yul\":5876:5886   */\n      dup9\n      add\n        /* \"#utility.yul\":5845:6014   */\n      jump(tag_637)\n    tag_639:\n        /* \"#utility.yul\":5849:5852   */\n      pop\n      pop\n        /* \"#utility.yul\":6045:6053   */\n      dup4\n        /* \"#utility.yul\":6038:6043   */\n      dup9\n        /* \"#utility.yul\":6034:6054   */\n      add\n        /* \"#utility.yul\":6027:6054   */\n      swap6\n      pop\n        /* \"#utility.yul\":5583:6064   */\n    tag_632:\n      pop\n        /* \"#utility.yul\":6080:6083   */\n      swap4\n      swap12\n        /* \"#utility.yul\":4562:6089   */\n      swap11\n      pop\n      pop\n      pop\n      pop\n      pop\n      pop\n      pop\n      pop\n      pop\n      pop\n      pop\n      jump\t// out\n        /* \"#utility.yul\":6512:7000   */\n    tag_509:\n      sub(shl(0xa0, 0x01), 0x01)\n        /* \"#utility.yul\":6781:6796   */\n      dup6\n      dup2\n      and\n        /* \"#utility.yul\":6763:6797   */\n      dup3\n      mstore\n        /* \"#utility.yul\":6833:6848   */\n      dup5\n      and\n        /* \"#utility.yul\":6828:6830   */\n      0x20\n        /* \"#utility.yul\":6813:6831   */\n      dup3\n      add\n        /* \"#utility.yul\":6806:6849   */\n      mstore\n        /* \"#utility.yul\":6880:6882   */\n      0x40\n        /* \"#utility.yul\":6865:6883   */\n      dup2\n      add\n        /* \"#utility.yul\":6858:6892   */\n      dup4\n      swap1\n      mstore\n        /* \"#utility.yul\":6928:6931   */\n      0x80\n        /* \"#utility.yul\":6923:6925   */\n      0x60\n        /* \"#utility.yul\":6908:6926   */\n      dup3\n      add\n        /* \"#utility.yul\":6901:6932   */\n      dup2\n      swap1\n      mstore\n        /* \"#utility.yul\":6706:6710   */\n      0x00\n      swap1\n        /* \"#utility.yul\":6949:6994   */\n      tag_643\n      swap1\n        /* \"#utility.yul\":6974:6993   */\n      dup4\n      add\n        /* \"#utility.yul\":6966:6972   */\n      dup5\n        /* \"#utility.yul\":6949:6994   */\n      tag_623\n      jump\t// in\n    tag_643:\n        /* \"#utility.yul\":6941:6994   */\n      swap7\n        /* \"#utility.yul\":6512:7000   */\n      swap6\n      pop\n      pop\n      pop\n      pop\n      pop\n      pop\n      jump\t// out\n        /* \"#utility.yul\":7005:7637   */\n    tag_107:\n        /* \"#utility.yul\":7176:7178   */\n      0x20\n        /* \"#utility.yul\":7228:7249   */\n      dup1\n      dup3\n      mstore\n        /* \"#utility.yul\":7298:7311   */\n      dup3\n      mload\n        /* \"#utility.yul\":7201:7219   */\n      dup3\n      dup3\n      add\n        /* \"#utility.yul\":7320:7342   */\n      dup2\n      swap1\n      mstore\n        /* \"#utility.yul\":7147:7151   */\n      0x00\n      swap2\n        /* \"#utility.yul\":7176:7178   */\n      swap1\n        /* \"#utility.yul\":7399:7414   */\n      dup5\n      dup3\n      add\n      swap1\n        /* \"#utility.yul\":7373:7375   */\n      0x40\n        /* \"#utility.yul\":7358:7376   */\n      dup6\n      add\n      swap1\n        /* \"#utility.yul\":7147:7151   */\n      dup5\n        /* \"#utility.yul\":7442:7611   */\n    tag_645:\n        /* \"#utility.yul\":7456:7462   */\n      dup2\n        /* \"#utility.yul\":7453:7454   */\n      dup2\n        /* \"#utility.yul\":7450:7463   */\n      lt\n        /* \"#utility.yul\":7442:7611   */\n      iszero\n      tag_647\n      jumpi\n        /* \"#utility.yul\":7517:7530   */\n      dup4\n      mload\n        /* \"#utility.yul\":7505:7531   */\n      dup4\n      mstore\n        /* \"#utility.yul\":7586:7601   */\n      swap3\n      dup5\n      add\n      swap3\n        /* \"#utility.yul\":7551:7563   */\n      swap2\n      dup5\n      add\n      swap2\n        /* \"#utility.yul\":7478:7479   */\n      0x01\n        /* \"#utility.yul\":7471:7480   */\n      add\n        /* \"#utility.yul\":7442:7611   */\n      jump(tag_645)\n    tag_647:\n      pop\n        /* \"#utility.yul\":7628:7631   */\n      swap1\n      swap7\n        /* \"#utility.yul\":7005:7637   */\n      swap6\n      pop\n      pop\n      pop\n      pop\n      pop\n      pop\n      jump\t// out\n        /* \"#utility.yul\":7834:8053   */\n    tag_59:\n        /* \"#utility.yul\":7983:7985   */\n      0x20\n        /* \"#utility.yul\":7972:7981   */\n      dup2\n        /* \"#utility.yul\":7965:7986   */\n      mstore\n        /* \"#utility.yul\":7946:7950   */\n      0x00\n        /* \"#utility.yul\":8003:8047   */\n      tag_387\n        /* \"#utility.yul\":8043:8045   */\n      0x20\n        /* \"#utility.yul\":8032:8041   */\n      dup4\n        /* \"#utility.yul\":8028:8046   */\n      add\n        /* \"#utility.yul\":8020:8026   */\n      dup5\n        /* \"#utility.yul\":8003:8047   */\n      tag_623\n      jump\t// in\n        /* \"#utility.yul\":8470:8884   */\n    tag_453:\n        /* \"#utility.yul\":8672:8674   */\n      0x20\n        /* \"#utility.yul\":8654:8675   */\n      dup1\n      dup3\n      mstore\n        /* \"#utility.yul\":8711:8713   */\n      0x32\n        /* \"#utility.yul\":8691:8709   */\n      swap1\n      dup3\n      add\n        /* \"#utility.yul\":8684:8714   */\n      mstore\n        /* \"#utility.yul\":8750:8784   */\n      0x4552433732313a207472616e7366657220746f206e6f6e204552433732315265\n        /* \"#utility.yul\":8745:8747   */\n      0x40\n        /* \"#utility.yul\":8730:8748   */\n      dup3\n      add\n        /* \"#utility.yul\":8723:8785   */\n      mstore\n      shl(0x71, 0x31b2b4bb32b91034b6b83632b6b2b73a32b9)\n        /* \"#utility.yul\":8816:8818   */\n      0x60\n        /* \"#utility.yul\":8801:8819   */\n      dup3\n      add\n        /* \"#utility.yul\":8794:8842   */\n      mstore\n        /* \"#utility.yul\":8874:8877   */\n      0x80\n        /* \"#utility.yul\":8859:8878   */\n      add\n      swap1\n        /* \"#utility.yul\":8470:8884   */\n      jump\t// out\n        /* \"#utility.yul\":12845:13201   */\n    tag_208:\n        /* \"#utility.yul\":13047:13049   */\n      0x20\n        /* \"#utility.yul\":13029:13050   */\n      dup1\n      dup3\n      mstore\n        /* \"#utility.yul\":13066:13084   */\n      dup2\n      dup2\n      add\n        /* \"#utility.yul\":13059:13089   */\n      mstore\n        /* \"#utility.yul\":13125:13159   */\n      0x4f776e61626c653a2063616c6c6572206973206e6f7420746865206f776e6572\n        /* \"#utility.yul\":13120:13122   */\n      0x40\n        /* \"#utility.yul\":13105:13123   */\n      dup3\n      add\n        /* \"#utility.yul\":13098:13160   */\n      mstore\n        /* \"#utility.yul\":13192:13194   */\n      0x60\n        /* \"#utility.yul\":13177:13195   */\n      add\n      swap1\n        /* \"#utility.yul\":12845:13201   */\n      jump\t// out\n        /* \"#utility.yul\":14434:14847   */\n    tag_244:\n        /* \"#utility.yul\":14636:14638   */\n      0x20\n        /* \"#utility.yul\":14618:14639   */\n      dup1\n      dup3\n      mstore\n        /* \"#utility.yul\":14675:14677   */\n      0x31\n        /* \"#utility.yul\":14655:14673   */\n      swap1\n      dup3\n      add\n        /* \"#utility.yul\":14648:14678   */\n      mstore\n        /* \"#utility.yul\":14714:14748   */\n      0x4552433732313a207472616e736665722063616c6c6572206973206e6f74206f\n        /* \"#utility.yul\":14709:14711   */\n      0x40\n        /* \"#utility.yul\":14694:14712   */\n      dup3\n      add\n        /* \"#utility.yul\":14687:14749   */\n      mstore\n      shl(0x7a, 0x1ddb995c881b9bdc88185c1c1c9bdd9959)\n        /* \"#utility.yul\":14780:14782   */\n      0x60\n        /* \"#utility.yul\":14765:14783   */\n      dup3\n      add\n        /* \"#utility.yul\":14758:14805   */\n      mstore\n        /* \"#utility.yul\":14837:14840   */\n      0x80\n        /* \"#utility.yul\":14822:14841   */\n      add\n      swap1\n        /* \"#utility.yul\":14434:14847   */\n      jump\t// out\n        /* \"#utility.yul\":15573:15701   */\n    tag_339:\n        /* \"#utility.yul\":15613:15616   */\n      0x00\n        /* \"#utility.yul\":15644:15645   */\n      dup3\n        /* \"#utility.yul\":15640:15646   */\n      not\n        /* \"#utility.yul\":15637:15638   */\n      dup3\n        /* \"#utility.yul\":15634:15647   */\n      gt\n        /* \"#utility.yul\":15631:15670   */\n      iszero\n      tag_673\n      jumpi\n        /* \"#utility.yul\":15650:15668   */\n      tag_673\n      tag_674\n      jump\t// in\n    tag_673:\n      pop\n        /* \"#utility.yul\":15686:15695   */\n      add\n      swap1\n        /* \"#utility.yul\":15573:15701   */\n      jump\t// out\n        /* \"#utility.yul\":15706:15826   */\n    tag_466:\n        /* \"#utility.yul\":15746:15747   */\n      0x00\n        /* \"#utility.yul\":15772:15773   */\n      dup3\n        /* \"#utility.yul\":15762:15797   */\n      tag_677\n      jumpi\n        /* \"#utility.yul\":15777:15795   */\n      tag_677\n      tag_678\n      jump\t// in\n    tag_677:\n      pop\n        /* \"#utility.yul\":15811:15820   */\n      div\n      swap1\n        /* \"#utility.yul\":15706:15826   */\n      jump\t// out\n        /* \"#utility.yul\":15831:15999   */\n    tag_344:\n        /* \"#utility.yul\":15871:15878   */\n      0x00\n        /* \"#utility.yul\":15937:15938   */\n      dup2\n        /* \"#utility.yul\":15933:15934   */\n      0x00\n        /* \"#utility.yul\":15929:15935   */\n      not\n        /* \"#utility.yul\":15925:15939   */\n      div\n        /* \"#utility.yul\":15922:15923   */\n      dup4\n        /* \"#utility.yul\":15919:15940   */\n      gt\n        /* \"#utility.yul\":15914:15915   */\n      dup3\n        /* \"#utility.yul\":15907:15916   */\n      iszero\n        /* \"#utility.yul\":15900:15917   */\n      iszero\n        /* \"#utility.yul\":15896:15941   */\n      and\n        /* \"#utility.yul\":15893:15964   */\n      iszero\n      tag_681\n      jumpi\n        /* \"#utility.yul\":15944:15962   */\n      tag_681\n      tag_674\n      jump\t// in\n    tag_681:\n      pop\n        /* \"#utility.yul\":15984:15993   */\n      mul\n      swap1\n        /* \"#utility.yul\":15831:15999   */\n      jump\t// out\n        /* \"#utility.yul\":16004:16129   */\n    tag_441:\n        /* \"#utility.yul\":16044:16048   */\n      0x00\n        /* \"#utility.yul\":16072:16073   */\n      dup3\n        /* \"#utility.yul\":16069:16070   */\n      dup3\n        /* \"#utility.yul\":16066:16074   */\n      lt\n        /* \"#utility.yul\":16063:16097   */\n      iszero\n      tag_684\n      jumpi\n        /* \"#utility.yul\":16077:16095   */\n      tag_684\n      tag_674\n      jump\t// in\n    tag_684:\n      pop\n        /* \"#utility.yul\":16114:16123   */\n      sub\n      swap1\n        /* \"#utility.yul\":16004:16129   */\n      jump\t// out\n        /* \"#utility.yul\":16134:16392   */\n    tag_626:\n        /* \"#utility.yul\":16206:16207   */\n      0x00\n        /* \"#utility.yul\":16216:16329   */\n    tag_686:\n        /* \"#utility.yul\":16230:16236   */\n      dup4\n        /* \"#utility.yul\":16227:16228   */\n      dup2\n        /* \"#utility.yul\":16224:16237   */\n      lt\n        /* \"#utility.yul\":16216:16329   */\n      iszero\n      tag_688\n      jumpi\n        /* \"#utility.yul\":16306:16317   */\n      dup2\n      dup2\n      add\n        /* \"#utility.yul\":16300:16318   */\n      mload\n        /* \"#utility.yul\":16287:16298   */\n      dup4\n      dup3\n      add\n        /* \"#utility.yul\":16280:16319   */\n      mstore\n        /* \"#utility.yul\":16252:16254   */\n      0x20\n        /* \"#utility.yul\":16245:16255   */\n      add\n        /* \"#utility.yul\":16216:16329   */\n      jump(tag_686)\n    tag_688:\n        /* \"#utility.yul\":16347:16353   */\n      dup4\n        /* \"#utility.yul\":16344:16345   */\n      dup2\n        /* \"#utility.yul\":16341:16354   */\n      gt\n        /* \"#utility.yul\":16338:16386   */\n      iszero\n      tag_372\n      jumpi\n      pop\n      pop\n        /* \"#utility.yul\":16382:16383   */\n      0x00\n        /* \"#utility.yul\":16364:16380   */\n      swap2\n      add\n        /* \"#utility.yul\":16357:16384   */\n      mstore\n        /* \"#utility.yul\":16134:16392   */\n      jump\t// out\n        /* \"#utility.yul\":16397:16777   */\n    tag_212:\n        /* \"#utility.yul\":16476:16477   */\n      0x01\n        /* \"#utility.yul\":16472:16484   */\n      dup2\n      dup2\n      shr\n      swap1\n        /* \"#utility.yul\":16519:16531   */\n      dup3\n      and\n      dup1\n        /* \"#utility.yul\":16540:16601   */\n      tag_691\n      jumpi\n        /* \"#utility.yul\":16594:16598   */\n      0x7f\n        /* \"#utility.yul\":16586:16592   */\n      dup3\n        /* \"#utility.yul\":16582:16599   */\n      and\n        /* \"#utility.yul\":16572:16599   */\n      swap2\n      pop\n        /* \"#utility.yul\":16540:16601   */\n    tag_691:\n        /* \"#utility.yul\":16647:16649   */\n      0x20\n        /* \"#utility.yul\":16639:16645   */\n      dup3\n        /* \"#utility.yul\":16636:16650   */\n      lt\n        /* \"#utility.yul\":16616:16634   */\n      dup2\n        /* \"#utility.yul\":16613:16651   */\n      eq\n        /* \"#utility.yul\":16610:16771   */\n      iszero\n      tag_692\n      jumpi\n        /* \"#utility.yul\":16693:16703   */\n      0x4e487b71\n        /* \"#utility.yul\":16688:16691   */\n      0xe0\n        /* \"#utility.yul\":16684:16704   */\n      shl\n        /* \"#utility.yul\":16681:16682   */\n      0x00\n        /* \"#utility.yul\":16674:16705   */\n      mstore\n        /* \"#utility.yul\":16728:16732   */\n      0x22\n        /* \"#utility.yul\":16725:16726   */\n      0x04\n        /* \"#utility.yul\":16718:16733   */\n      mstore\n        /* \"#utility.yul\":16756:16760   */\n      0x24\n        /* \"#utility.yul\":16753:16754   */\n      0x00\n        /* \"#utility.yul\":16746:16761   */\n      revert\n        /* \"#utility.yul\":16610:16771   */\n    tag_692:\n      pop\n        /* \"#utility.yul\":16397:16777   */\n      swap2\n      swap1\n      pop\n      jump\t// out\n        /* \"#utility.yul\":16782:16917   */\n    tag_281:\n        /* \"#utility.yul\":16821:16824   */\n      0x00\n      not(0x00)\n        /* \"#utility.yul\":16842:16859   */\n      dup3\n      eq\n        /* \"#utility.yul\":16839:16882   */\n      iszero\n      tag_695\n      jumpi\n        /* \"#utility.yul\":16862:16880   */\n      tag_695\n      tag_674\n      jump\t// in\n    tag_695:\n      pop\n        /* \"#utility.yul\":16909:16910   */\n      0x01\n        /* \"#utility.yul\":16898:16911   */\n      add\n      swap1\n        /* \"#utility.yul\":16782:16917   */\n      jump\t// out\n        /* \"#utility.yul\":16922:17034   */\n    tag_474:\n        /* \"#utility.yul\":16954:16955   */\n      0x00\n        /* \"#utility.yul\":16980:16981   */\n      dup3\n        /* \"#utility.yul\":16970:17005   */\n      tag_698\n      jumpi\n        /* \"#utility.yul\":16985:17003   */\n      tag_698\n      tag_678\n      jump\t// in\n    tag_698:\n      pop\n        /* \"#utility.yul\":17019:17028   */\n      mod\n      swap1\n        /* \"#utility.yul\":16922:17034   */\n      jump\t// out\n        /* \"#utility.yul\":17039:17166   */\n    tag_674:\n        /* \"#utility.yul\":17100:17110   */\n      0x4e487b71\n        /* \"#utility.yul\":17095:17098   */\n      0xe0\n        /* \"#utility.yul\":17091:17111   */\n      shl\n        /* \"#utility.yul\":17088:17089   */\n      0x00\n        /* \"#utility.yul\":17081:17112   */\n      mstore\n        /* \"#utility.yul\":17131:17135   */\n      0x11\n        /* \"#utility.yul\":17128:17129   */\n      0x04\n        /* \"#utility.yul\":17121:17136   */\n      mstore\n        /* \"#utility.yul\":17155:17159   */\n      0x24\n        /* \"#utility.yul\":17152:17153   */\n      0x00\n        /* \"#utility.yul\":17145:17160   */\n      revert\n        /* \"#utility.yul\":17171:17298   */\n    tag_678:\n        /* \"#utility.yul\":17232:17242   */\n      0x4e487b71\n        /* \"#utility.yul\":17227:17230   */\n      0xe0\n        /* \"#utility.yul\":17223:17243   */\n      shl\n        /* \"#utility.yul\":17220:17221   */\n      0x00\n        /* \"#utility.yul\":17213:17244   */\n      mstore\n        /* \"#utility.yul\":17263:17267   */\n      0x12\n        /* \"#utility.yul\":17260:17261   */\n      0x04\n        /* \"#utility.yul\":17253:17268   */\n      mstore\n        /* \"#utility.yul\":17287:17291   */\n      0x24\n        /* \"#utility.yul\":17284:17285   */\n      0x00\n        /* \"#utility.yul\":17277:17292   */\n      revert\n        /* \"#utility.yul\":17303:17430   */\n    tag_542:\n        /* \"#utility.yul\":17364:17374   */\n      0x4e487b71\n        /* \"#utility.yul\":17359:17362   */\n      0xe0\n        /* \"#utility.yul\":17355:17375   */\n      shl\n        /* \"#utility.yul\":17352:17353   */\n      0x00\n        /* \"#utility.yul\":17345:17376   */\n      mstore\n        /* \"#utility.yul\":17395:17399   */\n      0x31\n        /* \"#utility.yul\":17392:17393   */\n      0x04\n        /* \"#utility.yul\":17385:17400   */\n      mstore\n        /* \"#utility.yul\":17419:17423   */\n      0x24\n        /* \"#utility.yul\":17416:17417   */\n      0x00\n        /* \"#utility.yul\":17409:17424   */\n      revert\n        /* \"#utility.yul\":17435:17562   */\n    tag_279:\n        /* \"#utility.yul\":17496:17506   */\n      0x4e487b71\n        /* \"#utility.yul\":17491:17494   */\n      0xe0\n        /* \"#utility.yul\":17487:17507   */\n      shl\n        /* \"#utility.yul\":17484:17485   */\n      0x00\n        /* \"#utility.yul\":17477:17508   */\n      mstore\n        /* \"#utility.yul\":17527:17531   */\n      0x32\n        /* \"#utility.yul\":17524:17525   */\n      0x04\n        /* \"#utility.yul\":17517:17532   */\n      mstore\n        /* \"#utility.yul\":17551:17555   */\n      0x24\n        /* \"#utility.yul\":17548:17549   */\n      0x00\n        /* \"#utility.yul\":17541:17556   */\n      revert\n        /* \"#utility.yul\":17567:17694   */\n    tag_271:\n        /* \"#utility.yul\":17628:17638   */\n      0x4e487b71\n        /* \"#utility.yul\":17623:17626   */\n      0xe0\n        /* \"#utility.yul\":17619:17639   */\n      shl\n        /* \"#utility.yul\":17616:17617   */\n      0x00\n        /* \"#utility.yul\":17609:17640   */\n      mstore\n        /* \"#utility.yul\":17659:17663   */\n      0x41\n        /* \"#utility.yul\":17656:17657   */\n      0x04\n        /* \"#utility.yul\":17649:17664   */\n      mstore\n        /* \"#utility.yul\":17683:17687   */\n      0x24\n        /* \"#utility.yul\":17680:17681   */\n      0x00\n        /* \"#utility.yul\":17673:17688   */\n      revert\n        /* \"#utility.yul\":17699:17830   */\n    tag_612:\n      not(sub(shl(0xe0, 0x01), 0x01))\n        /* \"#utility.yul\":17773:17805   */\n      dup2\n      and\n        /* \"#utility.yul\":17763:17806   */\n      dup2\n      eq\n        /* \"#utility.yul\":17753:17824   */\n      tag_264\n      jumpi\n        /* \"#utility.yul\":17820:17821   */\n      0x00\n        /* \"#utility.yul\":17817:17818   */\n      dup1\n        /* \"#utility.yul\":17810:17822   */\n      revert\n\n    auxdata: 0xa2646970667358221220d031905120c918e385ba16f0ebe07d5f02beabe92decf2dc6eec4a77822ee17864736f6c63430008070033\n}\n",
				"bytecode": {
					"linkReferences": {},
					"object": "60c06040526005608081905264173539b7b760d91b60a09081526200002891600c9190620001aa565b5068056bc75e2d63100000600d55610378600e819055600f556010805461ffff191690553480156200005957600080fd5b50604051620026d2380380620026d28339810160408190526200007c9162000307565b82518390839062000095906000906020850190620001aa565b508051620000ab906001906020840190620001aa565b505050620000c8620000c2620000dc60201b60201c565b620000e0565b620000d38162000132565b505050620003eb565b3390565b600a80546001600160a01b038381166001600160a01b0319831681179093556040519116919082907f8be0079c531659141344cd1fd0a4f28419497f9722a3daafe3b4186f6b6457e090600090a35050565b600a546001600160a01b03163314620001915760405162461bcd60e51b815260206004820181905260248201527f4f776e61626c653a2063616c6c6572206973206e6f7420746865206f776e6572604482015260640160405180910390fd5b8051620001a690600b906020840190620001aa565b5050565b828054620001b89062000398565b90600052602060002090601f016020900481019282620001dc576000855562000227565b82601f10620001f757805160ff191683800117855562000227565b8280016001018555821562000227579182015b82811115620002275782518255916020019190600101906200020a565b506200023592915062000239565b5090565b5b808211156200023557600081556001016200023a565b600082601f8301126200026257600080fd5b81516001600160401b03808211156200027f576200027f620003d5565b604051601f8301601f19908116603f01168101908282118183101715620002aa57620002aa620003d5565b81604052838152602092508683858801011115620002c757600080fd5b600091505b83821015620002eb5785820183015181830184015290820190620002cc565b83821115620002fd5760008385830101525b9695505050505050565b6000806000606084860312156200031d57600080fd5b83516001600160401b03808211156200033557600080fd5b620003438783880162000250565b945060208601519150808211156200035a57600080fd5b620003688783880162000250565b935060408601519150808211156200037f57600080fd5b506200038e8682870162000250565b9150509250925092565b600181811c90821680620003ad57607f821691505b60208210811415620003cf57634e487b7160e01b600052602260045260246000fd5b50919050565b634e487b7160e01b600052604160045260246000fd5b6122d780620003fb6000396000f3fe6080604052600436106101f95760003560e01c80635c975abb1161010d578063a22cb465116100a0578063c87b56dd1161006f578063c87b56dd14610571578063d5abeb0114610591578063da3ef23f146105a7578063e985e9c5146105c7578063f2fde38b1461061057600080fd5b8063a22cb46514610507578063a475b5dd14610527578063b88d4fde1461053c578063c66828621461055c57600080fd5b80637f00c7a6116100dc5780637f00c7a6146104a15780638da5cb5b146104c157806395d89b41146104df578063a0712d68146104f457600080fd5b80635c975abb146104325780636352211e1461044c57806370a082311461046c578063715018a61461048c57600080fd5b806323b872dd11610190578063438b63001161015f578063438b63001461038657806344a0d68a146103b35780634f6ccce7146103d357806351830227146103f357806355f804b31461041257600080fd5b806323b872dd1461031e5780632f745c591461033e5780633ccfd60b1461035e57806342842e0e1461036657600080fd5b8063095ea7b3116101cc578063095ea7b3146102af57806313faede6146102cf57806318160ddd146102f3578063239c70ae1461030857600080fd5b806301ffc9a7146101fe57806302329a291461023357806306fdde0314610255578063081812fc14610277575b600080fd5b34801561020a57600080fd5b5061021e610219366004611e2d565b610630565b60405190151581526020015b60405180910390f35b34801561023f57600080fd5b5061025361024e366004611e12565b61065b565b005b34801561026157600080fd5b5061026a6106a1565b60405161022a919061203a565b34801561028357600080fd5b50610297610292366004611eb0565b610733565b6040516001600160a01b03909116815260200161022a565b3480156102bb57600080fd5b506102536102ca366004611de8565b6107c8565b3480156102db57600080fd5b506102e5600d5481565b60405190815260200161022a565b3480156102ff57600080fd5b506008546102e5565b34801561031457600080fd5b506102e5600f5481565b34801561032a57600080fd5b50610253610339366004611d06565b6108de565b34801561034a57600080fd5b506102e5610359366004611de8565b61090f565b6102536109a5565b34801561037257600080fd5b50610253610381366004611d06565b610a43565b34801561039257600080fd5b506103a66103a1366004611cb8565b610a5e565b60405161022a9190611ff6565b3480156103bf57600080fd5b506102536103ce366004611eb0565b610b00565b3480156103df57600080fd5b506102e56103ee366004611eb0565b610b2f565b3480156103ff57600080fd5b5060105461021e90610100900460ff1681565b34801561041e57600080fd5b5061025361042d366004611e67565b610bc2565b34801561043e57600080fd5b5060105461021e9060ff1681565b34801561045857600080fd5b50610297610467366004611eb0565b610c03565b34801561047857600080fd5b506102e5610487366004611cb8565b610c7a565b34801561049857600080fd5b50610253610d01565b3480156104ad57600080fd5b506102536104bc366004611eb0565b610d37565b3480156104cd57600080fd5b50600a546001600160a01b0316610297565b3480156104eb57600080fd5b5061026a610d66565b610253610502366004611eb0565b610d75565b34801561051357600080fd5b50610253610522366004611dbe565b610e22565b34801561053357600080fd5b50610253610ee7565b34801561054857600080fd5b50610253610557366004611d42565b610f22565b34801561056857600080fd5b5061026a610f5a565b34801561057d57600080fd5b5061026a61058c366004611eb0565b610fe8565b34801561059d57600080fd5b506102e5600e5481565b3480156105b357600080fd5b506102536105c2366004611e67565b6110c6565b3480156105d357600080fd5b5061021e6105e2366004611cd3565b6001600160a01b03918216600090815260056020908152604080832093909416825291909152205460ff1690565b34801561061c57600080fd5b5061025361062b366004611cb8565b611103565b60006001600160e01b0319821663780e9d6360e01b148061065557506106558261119b565b92915050565b600a546001600160a01b0316331461068e5760405162461bcd60e51b81526004016106859061209f565b60405180910390fd5b6010805460ff1916911515919091179055565b6060600080546106b0906121b3565b80601f01602080910402602001604051908101604052809291908181526020018280546106dc906121b3565b80156107295780601f106106fe57610100808354040283529160200191610729565b820191906000526020600020905b81548152906001019060200180831161070c57829003601f168201915b5050505050905090565b6000818152600260205260408120546001600160a01b03166107ac5760405162461bcd60e51b815260206004820152602c60248201527f4552433732313a20617070726f76656420717565727920666f72206e6f6e657860448201526b34b9ba32b73a103a37b5b2b760a11b6064820152608401610685565b506000908152600460205260409020546001600160a01b031690565b60006107d382610c03565b9050806001600160a01b0316836001600160a01b031614156108415760405162461bcd60e51b815260206004820152602160248201527f4552433732313a20617070726f76616c20746f2063757272656e74206f776e656044820152603960f91b6064820152608401610685565b336001600160a01b038216148061085d575061085d81336105e2565b6108cf5760405162461bcd60e51b815260206004820152603860248201527f4552433732313a20617070726f76652063616c6c6572206973206e6f74206f7760448201527f6e6572206e6f7220617070726f76656420666f7220616c6c00000000000000006064820152608401610685565b6108d983836111eb565b505050565b6108e83382611259565b6109045760405162461bcd60e51b8152600401610685906120d4565b6108d9838383611350565b600061091a83610c7a565b821061097c5760405162461bcd60e51b815260206004820152602b60248201527f455243373231456e756d657261626c653a206f776e657220696e646578206f7560448201526a74206f6620626f756e647360a81b6064820152608401610685565b506001600160a01b03919091166000908152600660209081526040808320938352929052205490565b600a546001600160a01b031633146109cf5760405162461bcd60e51b81526004016106859061209f565b60006109e3600a546001600160a01b031690565b6001600160a01b03164760405160006040518083038185875af1925050503d8060008114610a2d576040519150601f19603f3d011682016040523d82523d6000602084013e610a32565b606091505b5050905080610a4057600080fd5b50565b6108d983838360405180602001604052806000815250610f22565b60606000610a6b83610c7a565b905060008167ffffffffffffffff811115610a8857610a88612275565b604051908082528060200260200182016040528015610ab1578160200160208202803683370190505b50905060005b82811015610af857610ac9858261090f565b828281518110610adb57610adb61225f565b602090810291909101015280610af0816121ee565b915050610ab7565b509392505050565b600a546001600160a01b03163314610b2a5760405162461bcd60e51b81526004016106859061209f565b600d55565b6000610b3a60085490565b8210610b9d5760405162461bcd60e51b815260206004820152602c60248201527f455243373231456e756d657261626c653a20676c6f62616c20696e646578206f60448201526b7574206f6620626f756e647360a01b6064820152608401610685565b60088281548110610bb057610bb061225f565b90600052602060002001549050919050565b600a546001600160a01b03163314610bec5760405162461bcd60e51b81526004016106859061209f565b8051610bff90600b906020840190611b7d565b5050565b6000818152600260205260408120546001600160a01b0316806106555760405162461bcd60e51b815260206004820152602960248201527f4552433732313a206f776e657220717565727920666f72206e6f6e657869737460448201526832b73a103a37b5b2b760b91b6064820152608401610685565b60006001600160a01b038216610ce55760405162461bcd60e51b815260206004820152602a60248201527f4552433732313a2062616c616e636520717565727920666f7220746865207a65604482015269726f206164647265737360b01b6064820152608401610685565b506001600160a01b031660009081526003602052604090205490565b600a546001600160a01b03163314610d2b5760405162461bcd60e51b81526004016106859061209f565b610d3560006114fb565b565b600a546001600160a01b03163314610d615760405162461bcd60e51b81526004016106859061209f565b600f55565b6060600180546106b0906121b3565b6000610d8060085490565b60105490915060ff1615610d9357600080fd5b60008211610da057600080fd5b600f54821115610daf57600080fd5b600e54610dbc8383612125565b1115610dc757600080fd5b600a546001600160a01b03163314610df35781600d54610de79190612151565b341015610df357600080fd5b60015b8281116108d957610e1033610e0b8385612125565b61154d565b80610e1a816121ee565b915050610df6565b6001600160a01b038216331415610e7b5760405162461bcd60e51b815260206004820152601960248201527f4552433732313a20617070726f766520746f2063616c6c6572000000000000006044820152606401610685565b3360008181526005602090815260408083206001600160a01b03871680855290835292819020805460ff191686151590811790915590519081529192917f17307eab39ab6107e8899845ad3d59bd9653f200f220920489ca2b5937696c31910160405180910390a35050565b600a546001600160a01b03163314610f115760405162461bcd60e51b81526004016106859061209f565b6010805461ff001916610100179055565b610f2c3383611259565b610f485760405162461bcd60e51b8152600401610685906120d4565b610f5484848484611567565b50505050565b600c8054610f67906121b3565b80601f0160208091040260200160405190810160405280929190818152602001828054610f93906121b3565b8015610fe05780601f10610fb557610100808354040283529160200191610fe0565b820191906000526020600020905b815481529060010190602001808311610fc357829003601f168201915b505050505081565b6000818152600260205260409020546060906001600160a01b03166110675760405162461bcd60e51b815260206004820152602f60248201527f4552433732314d657461646174613a2055524920717565727920666f72206e6f60448201526e3732bc34b9ba32b73a103a37b5b2b760891b6064820152608401610685565b600061107161159a565b9050600081511161109157604051806020016040528060008152506110bf565b8061109b846115a9565b600c6040516020016110af93929190611ef5565b6040516020818303038152906040525b9392505050565b600a546001600160a01b031633146110f05760405162461bcd60e51b81526004016106859061209f565b8051610bff90600c906020840190611b7d565b600a546001600160a01b0316331461112d5760405162461bcd60e51b81526004016106859061209f565b6001600160a01b0381166111925760405162461bcd60e51b815260206004820152602660248201527f4f776e61626c653a206e6577206f776e657220697320746865207a65726f206160448201526564647265737360d01b6064820152608401610685565b610a40816114fb565b60006001600160e01b031982166380ac58cd60e01b14806111cc57506001600160e01b03198216635b5e139f60e01b145b8061065557506301ffc9a760e01b6001600160e01b0319831614610655565b600081815260046020526040902080546001600160a01b0319166001600160a01b038416908117909155819061122082610c03565b6001600160a01b03167f8c5be1e5ebec7d5bd14f71427d1e84f3dd0314c0f7b2291e5b200ac8c7c3b92560405160405180910390a45050565b6000818152600260205260408120546001600160a01b03166112d25760405162461bcd60e51b815260206004820152602c60248201527f4552433732313a206f70657261746f7220717565727920666f72206e6f6e657860448201526b34b9ba32b73a103a37b5b2b760a11b6064820152608401610685565b60006112dd83610c03565b9050806001600160a01b0316846001600160a01b031614806113185750836001600160a01b031661130d84610733565b6001600160a01b0316145b8061134857506001600160a01b0380821660009081526005602090815260408083209388168352929052205460ff165b949350505050565b826001600160a01b031661136382610c03565b6001600160a01b0316146113cb5760405162461bcd60e51b815260206004820152602960248201527f4552433732313a207472616e73666572206f6620746f6b656e2074686174206960448201526839903737ba1037bbb760b91b6064820152608401610685565b6001600160a01b03821661142d5760405162461bcd60e51b8152602060048201526024808201527f4552433732313a207472616e7366657220746f20746865207a65726f206164646044820152637265737360e01b6064820152608401610685565b6114388383836116a7565b6114436000826111eb565b6001600160a01b038316600090815260036020526040812080546001929061146c908490612170565b90915550506001600160a01b038216600090815260036020526040812080546001929061149a908490612125565b909155505060008181526002602052604080822080546001600160a01b0319166001600160a01b0386811691821790925591518493918716917fddf252ad1be2c89b69c2b068fc378daa952ba7f163c4a11628f55a4df523b3ef91a4505050565b600a80546001600160a01b038381166001600160a01b0319831681179093556040519116919082907f8be0079c531659141344cd1fd0a4f28419497f9722a3daafe3b4186f6b6457e090600090a35050565b610bff82826040518060200160405280600081525061175f565b611572848484611350565b61157e84848484611792565b610f545760405162461bcd60e51b81526004016106859061204d565b6060600b80546106b0906121b3565b6060816115cd5750506040805180820190915260018152600360fc1b602082015290565b8160005b81156115f757806115e1816121ee565b91506115f09050600a8361213d565b91506115d1565b60008167ffffffffffffffff81111561161257611612612275565b6040519080825280601f01601f19166020018201604052801561163c576020820181803683370190505b5090505b841561134857611651600183612170565b915061165e600a86612209565b611669906030612125565b60f81b81838151811061167e5761167e61225f565b60200101906001600160f81b031916908160001a9053506116a0600a8661213d565b9450611640565b6001600160a01b038316611702576116fd81600880546000838152600960205260408120829055600182018355919091527ff3f7a9fe364faab93b216da50a3214154f22a0a2b415b23a84c8169e8b636ee30155565b611725565b816001600160a01b0316836001600160a01b03161461172557611725838261189f565b6001600160a01b03821661173c576108d98161193c565b826001600160a01b0316826001600160a01b0316146108d9576108d982826119eb565b6117698383611a2f565b6117766000848484611792565b6108d95760405162461bcd60e51b81526004016106859061204d565b60006001600160a01b0384163b1561189457604051630a85bd0160e11b81526001600160a01b0385169063150b7a02906117d6903390899088908890600401611fb9565b602060405180830381600087803b1580156117f057600080fd5b505af1925050508015611820575060408051601f3d908101601f1916820190925261181d91810190611e4a565b60015b61187a573d80801561184e576040519150601f19603f3d011682016040523d82523d6000602084013e611853565b606091505b5080516118725760405162461bcd60e51b81526004016106859061204d565b805181602001fd5b6001600160e01b031916630a85bd0160e11b149050611348565b506001949350505050565b600060016118ac84610c7a565b6118b69190612170565b600083815260076020526040902054909150808214611909576001600160a01b03841660009081526006602090815260408083208584528252808320548484528184208190558352600790915290208190555b5060009182526007602090815260408084208490556001600160a01b039094168352600681528383209183525290812055565b60085460009061194e90600190612170565b600083815260096020526040812054600880549394509092849081106119765761197661225f565b9060005260206000200154905080600883815481106119975761199761225f565b60009182526020808320909101929092558281526009909152604080822084905585825281205560088054806119cf576119cf612249565b6001900381819060005260206000200160009055905550505050565b60006119f683610c7a565b6001600160a01b039093166000908152600660209081526040808320868452825280832085905593825260079052919091209190915550565b6001600160a01b038216611a855760405162461bcd60e51b815260206004820181905260248201527f4552433732313a206d696e7420746f20746865207a65726f20616464726573736044820152606401610685565b6000818152600260205260409020546001600160a01b031615611aea5760405162461bcd60e51b815260206004820152601c60248201527f4552433732313a20746f6b656e20616c7265616479206d696e746564000000006044820152606401610685565b611af6600083836116a7565b6001600160a01b0382166000908152600360205260408120805460019290611b1f908490612125565b909155505060008181526002602052604080822080546001600160a01b0319166001600160a01b03861690811790915590518392907fddf252ad1be2c89b69c2b068fc378daa952ba7f163c4a11628f55a4df523b3ef908290a45050565b828054611b89906121b3565b90600052602060002090601f016020900481019282611bab5760008555611bf1565b82601f10611bc457805160ff1916838001178555611bf1565b82800160010185558215611bf1579182015b82811115611bf1578251825591602001919060010190611bd6565b50611bfd929150611c01565b5090565b5b80821115611bfd5760008155600101611c02565b600067ffffffffffffffff80841115611c3157611c31612275565b604051601f8501601f19908116603f01168101908282118183101715611c5957611c59612275565b81604052809350858152868686011115611c7257600080fd5b858560208301376000602087830101525050509392505050565b80356001600160a01b0381168114611ca357600080fd5b919050565b80358015158114611ca357600080fd5b600060208284031215611cca57600080fd5b6110bf82611c8c565b60008060408385031215611ce657600080fd5b611cef83611c8c565b9150611cfd60208401611c8c565b90509250929050565b600080600060608486031215611d1b57600080fd5b611d2484611c8c565b9250611d3260208501611c8c565b9150604084013590509250925092565b60008060008060808587031215611d5857600080fd5b611d6185611c8c565b9350611d6f60208601611c8c565b925060408501359150606085013567ffffffffffffffff811115611d9257600080fd5b8501601f81018713611da357600080fd5b611db287823560208401611c16565b91505092959194509250565b60008060408385031215611dd157600080fd5b611dda83611c8c565b9150611cfd60208401611ca8565b60008060408385031215611dfb57600080fd5b611e0483611c8c565b946020939093013593505050565b600060208284031215611e2457600080fd5b6110bf82611ca8565b600060208284031215611e3f57600080fd5b81356110bf8161228b565b600060208284031215611e5c57600080fd5b81516110bf8161228b565b600060208284031215611e7957600080fd5b813567ffffffffffffffff811115611e9057600080fd5b8201601f81018413611ea157600080fd5b61134884823560208401611c16565b600060208284031215611ec257600080fd5b5035919050565b60008151808452611ee1816020860160208601612187565b601f01601f19169290920160200192915050565b600084516020611f088285838a01612187565b855191840191611f1b8184848a01612187565b8554920191600090600181811c9080831680611f3857607f831692505b858310811415611f5657634e487b7160e01b85526022600452602485fd5b808015611f6a5760018114611f7b57611fa8565b60ff19851688528388019550611fa8565b60008b81526020902060005b85811015611fa05781548a820152908401908801611f87565b505083880195505b50939b9a5050505050505050505050565b6001600160a01b0385811682528416602082015260408101839052608060608201819052600090611fec90830184611ec9565b9695505050505050565b6020808252825182820181905260009190848201906040850190845b8181101561202e57835183529284019291840191600101612012565b50909695505050505050565b6020815260006110bf6020830184611ec9565b60208082526032908201527f4552433732313a207472616e7366657220746f206e6f6e20455243373231526560408201527131b2b4bb32b91034b6b83632b6b2b73a32b960711b606082015260800190565b6020808252818101527f4f776e61626c653a2063616c6c6572206973206e6f7420746865206f776e6572604082015260600190565b60208082526031908201527f4552433732313a207472616e736665722063616c6c6572206973206e6f74206f6040820152701ddb995c881b9bdc88185c1c1c9bdd9959607a1b606082015260800190565b600082198211156121385761213861221d565b500190565b60008261214c5761214c612233565b500490565b600081600019048311821515161561216b5761216b61221d565b500290565b6000828210156121825761218261221d565b500390565b60005b838110156121a257818101518382015260200161218a565b83811115610f545750506000910152565b600181811c908216806121c757607f821691505b602082108114156121e857634e487b7160e01b600052602260045260246000fd5b50919050565b60006000198214156122025761220261221d565b5060010190565b60008261221857612218612233565b500690565b634e487b7160e01b600052601160045260246000fd5b634e487b7160e01b600052601260045260246000fd5b634e487b7160e01b600052603160045260246000fd5b634e487b7160e01b600052603260045260246000fd5b634e487b7160e01b600052604160045260246000fd5b6001600160e01b031981168114610a4057600080fdfea2646970667358221220d031905120c918e385ba16f0ebe07d5f02beabe92decf2dc6eec4a77822ee17864736f6c63430008070033",
					"opcodes": "PUSH1 0xC0 PUSH1 0x40 MSTORE PUSH1 0x5 PUSH1 0x80 DUP2 SWAP1 MSTORE PUSH5 0x173539B7B7 PUSH1 0xD9 SHL PUSH1 0xA0 SWAP1 DUP2 MSTORE PUSH3 0x28 SWAP2 PUSH1 0xC SWAP2 SWAP1 PUSH3 0x1AA JUMP JUMPDEST POP PUSH9 0x56BC75E2D63100000 PUSH1 0xD SSTORE PUSH2 0x378 PUSH1 0xE DUP2 SWAP1 SSTORE PUSH1 0xF SSTORE PUSH1 0x10 DUP1 SLOAD PUSH2 0xFFFF NOT AND SWAP1 SSTORE CALLVALUE DUP1 ISZERO PUSH3 0x59 JUMPI PUSH1 0x0 DUP1 REVERT JUMPDEST POP PUSH1 0x40 MLOAD PUSH3 0x26D2 CODESIZE SUB DUP1 PUSH3 0x26D2 DUP4 CODECOPY DUP2 ADD PUSH1 0x40 DUP2 SWAP1 MSTORE PUSH3 0x7C SWAP2 PUSH3 0x307 JUMP JUMPDEST DUP3 MLOAD DUP4 SWAP1 DUP4 SWAP1 PUSH3 0x95 SWAP1 PUSH1 0x0 SWAP1 PUSH1 0x20 DUP6 ADD SWAP1 PUSH3 0x1AA JUMP JUMPDEST POP DUP1 MLOAD PUSH3 0xAB SWAP1 PUSH1 0x1 SWAP1 PUSH1 0x20 DUP5 ADD SWAP1 PUSH3 0x1AA JUMP JUMPDEST POP POP POP PUSH3 0xC8 PUSH3 0xC2 PUSH3 0xDC PUSH1 0x20 SHL PUSH1 0x20 SHR JUMP JUMPDEST PUSH3 0xE0 JUMP JUMPDEST PUSH3 0xD3 DUP2 PUSH3 0x132 JUMP JUMPDEST POP POP POP PUSH3 0x3EB JUMP JUMPDEST CALLER SWAP1 JUMP JUMPDEST PUSH1 0xA DUP1 SLOAD PUSH1 0x1 PUSH1 0x1 PUSH1 0xA0 SHL SUB DUP4 DUP2 AND PUSH1 0x1 PUSH1 0x1 PUSH1 0xA0 SHL SUB NOT DUP4 AND DUP2 OR SWAP1 SWAP4 SSTORE PUSH1 0x40 MLOAD SWAP2 AND SWAP2 SWAP1 DUP3 SWAP1 PUSH32 0x8BE0079C531659141344CD1FD0A4F28419497F9722A3DAAFE3B4186F6B6457E0 SWAP1 PUSH1 0x0 SWAP1 LOG3 POP POP JUMP JUMPDEST PUSH1 0xA SLOAD PUSH1 0x1 PUSH1 0x1 PUSH1 0xA0 SHL SUB AND CALLER EQ PUSH3 0x191 JUMPI PUSH1 0x40 MLOAD PUSH3 0x461BCD PUSH1 0xE5 SHL DUP2 MSTORE PUSH1 0x20 PUSH1 0x4 DUP3 ADD DUP2 SWAP1 MSTORE PUSH1 0x24 DUP3 ADD MSTORE PUSH32 0x4F776E61626C653A2063616C6C6572206973206E6F7420746865206F776E6572 PUSH1 0x44 DUP3 ADD MSTORE PUSH1 0x64 ADD PUSH1 0x40 MLOAD DUP1 SWAP2 SUB SWAP1 REVERT JUMPDEST DUP1 MLOAD PUSH3 0x1A6 SWAP1 PUSH1 0xB SWAP1 PUSH1 0x20 DUP5 ADD SWAP1 PUSH3 0x1AA JUMP JUMPDEST POP POP JUMP JUMPDEST DUP3 DUP1 SLOAD PUSH3 0x1B8 SWAP1 PUSH3 0x398 JUMP JUMPDEST SWAP1 PUSH1 0x0 MSTORE PUSH1 0x20 PUSH1 0x0 KECCAK256 SWAP1 PUSH1 0x1F ADD PUSH1 0x20 SWAP1 DIV DUP2 ADD SWAP3 DUP3 PUSH3 0x1DC JUMPI PUSH1 0x0 DUP6 SSTORE PUSH3 0x227 JUMP JUMPDEST DUP3 PUSH1 0x1F LT PUSH3 0x1F7 JUMPI DUP1 MLOAD PUSH1 0xFF NOT AND DUP4 DUP1 ADD OR DUP6 SSTORE PUSH3 0x227 JUMP JUMPDEST DUP3 DUP1 ADD PUSH1 0x1 ADD DUP6 SSTORE DUP3 ISZERO PUSH3 0x227 JUMPI SWAP2 DUP3 ADD JUMPDEST DUP3 DUP2 GT ISZERO PUSH3 0x227 JUMPI DUP3 MLOAD DUP3 SSTORE SWAP2 PUSH1 0x20 ADD SWAP2 SWAP1 PUSH1 0x1 ADD SWAP1 PUSH3 0x20A JUMP JUMPDEST POP PUSH3 0x235 SWAP3 SWAP2 POP PUSH3 0x239 JUMP JUMPDEST POP SWAP1 JUMP JUMPDEST JUMPDEST DUP1 DUP3 GT ISZERO PUSH3 0x235 JUMPI PUSH1 0x0 DUP2 SSTORE PUSH1 0x1 ADD PUSH3 0x23A JUMP JUMPDEST PUSH1 0x0 DUP3 PUSH1 0x1F DUP4 ADD SLT PUSH3 0x262 JUMPI PUSH1 0x0 DUP1 REVERT JUMPDEST DUP2 MLOAD PUSH1 0x1 PUSH1 0x1 PUSH1 0x40 SHL SUB DUP1 DUP3 GT ISZERO PUSH3 0x27F JUMPI PUSH3 0x27F PUSH3 0x3D5 JUMP JUMPDEST PUSH1 0x40 MLOAD PUSH1 0x1F DUP4 ADD PUSH1 0x1F NOT SWAP1 DUP2 AND PUSH1 0x3F ADD AND DUP2 ADD SWAP1 DUP3 DUP3 GT DUP2 DUP4 LT OR ISZERO PUSH3 0x2AA JUMPI PUSH3 0x2AA PUSH3 0x3D5 JUMP JUMPDEST DUP2 PUSH1 0x40 MSTORE DUP4 DUP2 MSTORE PUSH1 0x20 SWAP3 POP DUP7 DUP4 DUP6 DUP9 ADD ADD GT ISZERO PUSH3 0x2C7 JUMPI PUSH1 0x0 DUP1 REVERT JUMPDEST PUSH1 0x0 SWAP2 POP JUMPDEST DUP4 DUP3 LT ISZERO PUSH3 0x2EB JUMPI DUP6 DUP3 ADD DUP4 ADD MLOAD DUP2 DUP4 ADD DUP5 ADD MSTORE SWAP1 DUP3 ADD SWAP1 PUSH3 0x2CC JUMP JUMPDEST DUP4 DUP3 GT ISZERO PUSH3 0x2FD JUMPI PUSH1 0x0 DUP4 DUP6 DUP4 ADD ADD MSTORE JUMPDEST SWAP7 SWAP6 POP POP POP POP POP POP JUMP JUMPDEST PUSH1 0x0 DUP1 PUSH1 0x0 PUSH1 0x60 DUP5 DUP7 SUB SLT ISZERO PUSH3 0x31D JUMPI PUSH1 0x0 DUP1 REVERT JUMPDEST DUP4 MLOAD PUSH1 0x1 PUSH1 0x1 PUSH1 0x40 SHL SUB DUP1 DUP3 GT ISZERO PUSH3 0x335 JUMPI PUSH1 0x0 DUP1 REVERT JUMPDEST PUSH3 0x343 DUP8 DUP4 DUP9 ADD PUSH3 0x250 JUMP JUMPDEST SWAP5 POP PUSH1 0x20 DUP7 ADD MLOAD SWAP2 POP DUP1 DUP3 GT ISZERO PUSH3 0x35A JUMPI PUSH1 0x0 DUP1 REVERT JUMPDEST PUSH3 0x368 DUP8 DUP4 DUP9 ADD PUSH3 0x250 JUMP JUMPDEST SWAP4 POP PUSH1 0x40 DUP7 ADD MLOAD SWAP2 POP DUP1 DUP3 GT ISZERO PUSH3 0x37F JUMPI PUSH1 0x0 DUP1 REVERT JUMPDEST POP PUSH3 0x38E DUP7 DUP3 DUP8 ADD PUSH3 0x250 JUMP JUMPDEST SWAP2 POP POP SWAP3 POP SWAP3 POP SWAP3 JUMP JUMPDEST PUSH1 0x1 DUP2 DUP2 SHR SWAP1 DUP3 AND DUP1 PUSH3 0x3AD JUMPI PUSH1 0x7F DUP3 AND SWAP2 POP JUMPDEST PUSH1 0x20 DUP3 LT DUP2 EQ ISZERO PUSH3 0x3CF JUMPI PUSH4 0x4E487B71 PUSH1 0xE0 SHL PUSH1 0x0 MSTORE PUSH1 0x22 PUSH1 0x4 MSTORE PUSH1 0x24 PUSH1 0x0 REVERT JUMPDEST POP SWAP2 SWAP1 POP JUMP JUMPDEST PUSH4 0x4E487B71 PUSH1 0xE0 SHL PUSH1 0x0 MSTORE PUSH1 0x41 PUSH1 0x4 MSTORE PUSH1 0x24 PUSH1 0x0 REVERT JUMPDEST PUSH2 0x22D7 DUP1 PUSH3 0x3FB PUSH1 0x0 CODECOPY PUSH1 0x0 RETURN INVALID PUSH1 0x80 PUSH1 0x40 MSTORE PUSH1 0x4 CALLDATASIZE LT PUSH2 0x1F9 JUMPI PUSH1 0x0 CALLDATALOAD PUSH1 0xE0 SHR DUP1 PUSH4 0x5C975ABB GT PUSH2 0x10D JUMPI DUP1 PUSH4 0xA22CB465 GT PUSH2 0xA0 JUMPI DUP1 PUSH4 0xC87B56DD GT PUSH2 0x6F JUMPI DUP1 PUSH4 0xC87B56DD EQ PUSH2 0x571 JUMPI DUP1 PUSH4 0xD5ABEB01 EQ PUSH2 0x591 JUMPI DUP1 PUSH4 0xDA3EF23F EQ PUSH2 0x5A7 JUMPI DUP1 PUSH4 0xE985E9C5 EQ PUSH2 0x5C7 JUMPI DUP1 PUSH4 0xF2FDE38B EQ PUSH2 0x610 JUMPI PUSH1 0x0 DUP1 REVERT JUMPDEST DUP1 PUSH4 0xA22CB465 EQ PUSH2 0x507 JUMPI DUP1 PUSH4 0xA475B5DD EQ PUSH2 0x527 JUMPI DUP1 PUSH4 0xB88D4FDE EQ PUSH2 0x53C JUMPI DUP1 PUSH4 0xC6682862 EQ PUSH2 0x55C JUMPI PUSH1 0x0 DUP1 REVERT JUMPDEST DUP1 PUSH4 0x7F00C7A6 GT PUSH2 0xDC JUMPI DUP1 PUSH4 0x7F00C7A6 EQ PUSH2 0x4A1 JUMPI DUP1 PUSH4 0x8DA5CB5B EQ PUSH2 0x4C1 JUMPI DUP1 PUSH4 0x95D89B41 EQ PUSH2 0x4DF JUMPI DUP1 PUSH4 0xA0712D68 EQ PUSH2 0x4F4 JUMPI PUSH1 0x0 DUP1 REVERT JUMPDEST DUP1 PUSH4 0x5C975ABB EQ PUSH2 0x432 JUMPI DUP1 PUSH4 0x6352211E EQ PUSH2 0x44C JUMPI DUP1 PUSH4 0x70A08231 EQ PUSH2 0x46C JUMPI DUP1 PUSH4 0x715018A6 EQ PUSH2 0x48C JUMPI PUSH1 0x0 DUP1 REVERT JUMPDEST DUP1 PUSH4 0x23B872DD GT PUSH2 0x190 JUMPI DUP1 PUSH4 0x438B6300 GT PUSH2 0x15F JUMPI DUP1 PUSH4 0x438B6300 EQ PUSH2 0x386 JUMPI DUP1 PUSH4 0x44A0D68A EQ PUSH2 0x3B3 JUMPI DUP1 PUSH4 0x4F6CCCE7 EQ PUSH2 0x3D3 JUMPI DUP1 PUSH4 0x51830227 EQ PUSH2 0x3F3 JUMPI DUP1 PUSH4 0x55F804B3 EQ PUSH2 0x412 JUMPI PUSH1 0x0 DUP1 REVERT JUMPDEST DUP1 PUSH4 0x23B872DD EQ PUSH2 0x31E JUMPI DUP1 PUSH4 0x2F745C59 EQ PUSH2 0x33E JUMPI DUP1 PUSH4 0x3CCFD60B EQ PUSH2 0x35E JUMPI DUP1 PUSH4 0x42842E0E EQ PUSH2 0x366 JUMPI PUSH1 0x0 DUP1 REVERT JUMPDEST DUP1 PUSH4 0x95EA7B3 GT PUSH2 0x1CC JUMPI DUP1 PUSH4 0x95EA7B3 EQ PUSH2 0x2AF JUMPI DUP1 PUSH4 0x13FAEDE6 EQ PUSH2 0x2CF JUMPI DUP1 PUSH4 0x18160DDD EQ PUSH2 0x2F3 JUMPI DUP1 PUSH4 0x239C70AE EQ PUSH2 0x308 JUMPI PUSH1 0x0 DUP1 REVERT JUMPDEST DUP1 PUSH4 0x1FFC9A7 EQ PUSH2 0x1FE JUMPI DUP1 PUSH4 0x2329A29 EQ PUSH2 0x233 JUMPI DUP1 PUSH4 0x6FDDE03 EQ PUSH2 0x255 JUMPI DUP1 PUSH4 0x81812FC EQ PUSH2 0x277 JUMPI JUMPDEST PUSH1 0x0 DUP1 REVERT JUMPDEST CALLVALUE DUP1 ISZERO PUSH2 0x20A JUMPI PUSH1 0x0 DUP1 REVERT JUMPDEST POP PUSH2 0x21E PUSH2 0x219 CALLDATASIZE PUSH1 0x4 PUSH2 0x1E2D JUMP JUMPDEST PUSH2 0x630 JUMP JUMPDEST PUSH1 0x40 MLOAD SWAP1 ISZERO ISZERO DUP2 MSTORE PUSH1 0x20 ADD JUMPDEST PUSH1 0x40 MLOAD DUP1 SWAP2 SUB SWAP1 RETURN JUMPDEST CALLVALUE DUP1 ISZERO PUSH2 0x23F JUMPI PUSH1 0x0 DUP1 REVERT JUMPDEST POP PUSH2 0x253 PUSH2 0x24E CALLDATASIZE PUSH1 0x4 PUSH2 0x1E12 JUMP JUMPDEST PUSH2 0x65B JUMP JUMPDEST STOP JUMPDEST CALLVALUE DUP1 ISZERO PUSH2 0x261 JUMPI PUSH1 0x0 DUP1 REVERT JUMPDEST POP PUSH2 0x26A PUSH2 0x6A1 JUMP JUMPDEST PUSH1 0x40 MLOAD PUSH2 0x22A SWAP2 SWAP1 PUSH2 0x203A JUMP JUMPDEST CALLVALUE DUP1 ISZERO PUSH2 0x283 JUMPI PUSH1 0x0 DUP1 REVERT JUMPDEST POP PUSH2 0x297 PUSH2 0x292 CALLDATASIZE PUSH1 0x4 PUSH2 0x1EB0 JUMP JUMPDEST PUSH2 0x733 JUMP JUMPDEST PUSH1 0x40 MLOAD PUSH1 0x1 PUSH1 0x1 PUSH1 0xA0 SHL SUB SWAP1 SWAP2 AND DUP2 MSTORE PUSH1 0x20 ADD PUSH2 0x22A JUMP JUMPDEST CALLVALUE DUP1 ISZERO PUSH2 0x2BB JUMPI PUSH1 0x0 DUP1 REVERT JUMPDEST POP PUSH2 0x253 PUSH2 0x2CA CALLDATASIZE PUSH1 0x4 PUSH2 0x1DE8 JUMP JUMPDEST PUSH2 0x7C8 JUMP JUMPDEST CALLVALUE DUP1 ISZERO PUSH2 0x2DB JUMPI PUSH1 0x0 DUP1 REVERT JUMPDEST POP PUSH2 0x2E5 PUSH1 0xD SLOAD DUP2 JUMP JUMPDEST PUSH1 0x40 MLOAD SWAP1 DUP2 MSTORE PUSH1 0x20 ADD PUSH2 0x22A JUMP JUMPDEST CALLVALUE DUP1 ISZERO PUSH2 0x2FF JUMPI PUSH1 0x0 DUP1 REVERT JUMPDEST POP PUSH1 0x8 SLOAD PUSH2 0x2E5 JUMP JUMPDEST CALLVALUE DUP1 ISZERO PUSH2 0x314 JUMPI PUSH1 0x0 DUP1 REVERT JUMPDEST POP PUSH2 0x2E5 PUSH1 0xF SLOAD DUP2 JUMP JUMPDEST CALLVALUE DUP1 ISZERO PUSH2 0x32A JUMPI PUSH1 0x0 DUP1 REVERT JUMPDEST POP PUSH2 0x253 PUSH2 0x339 CALLDATASIZE PUSH1 0x4 PUSH2 0x1D06 JUMP JUMPDEST PUSH2 0x8DE JUMP JUMPDEST CALLVALUE DUP1 ISZERO PUSH2 0x34A JUMPI PUSH1 0x0 DUP1 REVERT JUMPDEST POP PUSH2 0x2E5 PUSH2 0x359 CALLDATASIZE PUSH1 0x4 PUSH2 0x1DE8 JUMP JUMPDEST PUSH2 0x90F JUMP JUMPDEST PUSH2 0x253 PUSH2 0x9A5 JUMP JUMPDEST CALLVALUE DUP1 ISZERO PUSH2 0x372 JUMPI PUSH1 0x0 DUP1 REVERT JUMPDEST POP PUSH2 0x253 PUSH2 0x381 CALLDATASIZE PUSH1 0x4 PUSH2 0x1D06 JUMP JUMPDEST PUSH2 0xA43 JUMP JUMPDEST CALLVALUE DUP1 ISZERO PUSH2 0x392 JUMPI PUSH1 0x0 DUP1 REVERT JUMPDEST POP PUSH2 0x3A6 PUSH2 0x3A1 CALLDATASIZE PUSH1 0x4 PUSH2 0x1CB8 JUMP JUMPDEST PUSH2 0xA5E JUMP JUMPDEST PUSH1 0x40 MLOAD PUSH2 0x22A SWAP2 SWAP1 PUSH2 0x1FF6 JUMP JUMPDEST CALLVALUE DUP1 ISZERO PUSH2 0x3BF JUMPI PUSH1 0x0 DUP1 REVERT JUMPDEST POP PUSH2 0x253 PUSH2 0x3CE CALLDATASIZE PUSH1 0x4 PUSH2 0x1EB0 JUMP JUMPDEST PUSH2 0xB00 JUMP JUMPDEST CALLVALUE DUP1 ISZERO PUSH2 0x3DF JUMPI PUSH1 0x0 DUP1 REVERT JUMPDEST POP PUSH2 0x2E5 PUSH2 0x3EE CALLDATASIZE PUSH1 0x4 PUSH2 0x1EB0 JUMP JUMPDEST PUSH2 0xB2F JUMP JUMPDEST CALLVALUE DUP1 ISZERO PUSH2 0x3FF JUMPI PUSH1 0x0 DUP1 REVERT JUMPDEST POP PUSH1 0x10 SLOAD PUSH2 0x21E SWAP1 PUSH2 0x100 SWAP1 DIV PUSH1 0xFF AND DUP2 JUMP JUMPDEST CALLVALUE DUP1 ISZERO PUSH2 0x41E JUMPI PUSH1 0x0 DUP1 REVERT JUMPDEST POP PUSH2 0x253 PUSH2 0x42D CALLDATASIZE PUSH1 0x4 PUSH2 0x1E67 JUMP JUMPDEST PUSH2 0xBC2 JUMP JUMPDEST CALLVALUE DUP1 ISZERO PUSH2 0x43E JUMPI PUSH1 0x0 DUP1 REVERT JUMPDEST POP PUSH1 0x10 SLOAD PUSH2 0x21E SWAP1 PUSH1 0xFF AND DUP2 JUMP JUMPDEST CALLVALUE DUP1 ISZERO PUSH2 0x458 JUMPI PUSH1 0x0 DUP1 REVERT JUMPDEST POP PUSH2 0x297 PUSH2 0x467 CALLDATASIZE PUSH1 0x4 PUSH2 0x1EB0 JUMP JUMPDEST PUSH2 0xC03 JUMP JUMPDEST CALLVALUE DUP1 ISZERO PUSH2 0x478 JUMPI PUSH1 0x0 DUP1 REVERT JUMPDEST POP PUSH2 0x2E5 PUSH2 0x487 CALLDATASIZE PUSH1 0x4 PUSH2 0x1CB8 JUMP JUMPDEST PUSH2 0xC7A JUMP JUMPDEST CALLVALUE DUP1 ISZERO PUSH2 0x498 JUMPI PUSH1 0x0 DUP1 REVERT JUMPDEST POP PUSH2 0x253 PUSH2 0xD01 JUMP JUMPDEST CALLVALUE DUP1 ISZERO PUSH2 0x4AD JUMPI PUSH1 0x0 DUP1 REVERT JUMPDEST POP PUSH2 0x253 PUSH2 0x4BC CALLDATASIZE PUSH1 0x4 PUSH2 0x1EB0 JUMP JUMPDEST PUSH2 0xD37 JUMP JUMPDEST CALLVALUE DUP1 ISZERO PUSH2 0x4CD JUMPI PUSH1 0x0 DUP1 REVERT JUMPDEST POP PUSH1 0xA SLOAD PUSH1 0x1 PUSH1 0x1 PUSH1 0xA0 SHL SUB AND PUSH2 0x297 JUMP JUMPDEST CALLVALUE DUP1 ISZERO PUSH2 0x4EB JUMPI PUSH1 0x0 DUP1 REVERT JUMPDEST POP PUSH2 0x26A PUSH2 0xD66 JUMP JUMPDEST PUSH2 0x253 PUSH2 0x502 CALLDATASIZE PUSH1 0x4 PUSH2 0x1EB0 JUMP JUMPDEST PUSH2 0xD75 JUMP JUMPDEST CALLVALUE DUP1 ISZERO PUSH2 0x513 JUMPI PUSH1 0x0 DUP1 REVERT JUMPDEST POP PUSH2 0x253 PUSH2 0x522 CALLDATASIZE PUSH1 0x4 PUSH2 0x1DBE JUMP JUMPDEST PUSH2 0xE22 JUMP JUMPDEST CALLVALUE DUP1 ISZERO PUSH2 0x533 JUMPI PUSH1 0x0 DUP1 REVERT JUMPDEST POP PUSH2 0x253 PUSH2 0xEE7 JUMP JUMPDEST CALLVALUE DUP1 ISZERO PUSH2 0x548 JUMPI PUSH1 0x0 DUP1 REVERT JUMPDEST POP PUSH2 0x253 PUSH2 0x557 CALLDATASIZE PUSH1 0x4 PUSH2 0x1D42 JUMP JUMPDEST PUSH2 0xF22 JUMP JUMPDEST CALLVALUE DUP1 ISZERO PUSH2 0x568 JUMPI PUSH1 0x0 DUP1 REVERT JUMPDEST POP PUSH2 0x26A PUSH2 0xF5A JUMP JUMPDEST CALLVALUE DUP1 ISZERO PUSH2 0x57D JUMPI PUSH1 0x0 DUP1 REVERT JUMPDEST POP PUSH2 0x26A PUSH2 0x58C CALLDATASIZE PUSH1 0x4 PUSH2 0x1EB0 JUMP JUMPDEST PUSH2 0xFE8 JUMP JUMPDEST CALLVALUE DUP1 ISZERO PUSH2 0x59D JUMPI PUSH1 0x0 DUP1 REVERT JUMPDEST POP PUSH2 0x2E5 PUSH1 0xE SLOAD DUP2 JUMP JUMPDEST CALLVALUE DUP1 ISZERO PUSH2 0x5B3 JUMPI PUSH1 0x0 DUP1 REVERT JUMPDEST POP PUSH2 0x253 PUSH2 0x5C2 CALLDATASIZE PUSH1 0x4 PUSH2 0x1E67 JUMP JUMPDEST PUSH2 0x10C6 JUMP JUMPDEST CALLVALUE DUP1 ISZERO PUSH2 0x5D3 JUMPI PUSH1 0x0 DUP1 REVERT JUMPDEST POP PUSH2 0x21E PUSH2 0x5E2 CALLDATASIZE PUSH1 0x4 PUSH2 0x1CD3 JUMP JUMPDEST PUSH1 0x1 PUSH1 0x1 PUSH1 0xA0 SHL SUB SWAP2 DUP3 AND PUSH1 0x0 SWAP1 DUP2 MSTORE PUSH1 0x5 PUSH1 0x20 SWAP1 DUP2 MSTORE PUSH1 0x40 DUP1 DUP4 KECCAK256 SWAP4 SWAP1 SWAP5 AND DUP3 MSTORE SWAP2 SWAP1 SWAP2 MSTORE KECCAK256 SLOAD PUSH1 0xFF AND SWAP1 JUMP JUMPDEST CALLVALUE DUP1 ISZERO PUSH2 0x61C JUMPI PUSH1 0x0 DUP1 REVERT JUMPDEST POP PUSH2 0x253 PUSH2 0x62B CALLDATASIZE PUSH1 0x4 PUSH2 0x1CB8 JUMP JUMPDEST PUSH2 0x1103 JUMP JUMPDEST PUSH1 0x0 PUSH1 0x1 PUSH1 0x1 PUSH1 0xE0 SHL SUB NOT DUP3 AND PUSH4 0x780E9D63 PUSH1 0xE0 SHL EQ DUP1 PUSH2 0x655 JUMPI POP PUSH2 0x655 DUP3 PUSH2 0x119B JUMP JUMPDEST SWAP3 SWAP2 POP POP JUMP JUMPDEST PUSH1 0xA SLOAD PUSH1 0x1 PUSH1 0x1 PUSH1 0xA0 SHL SUB AND CALLER EQ PUSH2 0x68E JUMPI PUSH1 0x40 MLOAD PUSH3 0x461BCD PUSH1 0xE5 SHL DUP2 MSTORE PUSH1 0x4 ADD PUSH2 0x685 SWAP1 PUSH2 0x209F JUMP JUMPDEST PUSH1 0x40 MLOAD DUP1 SWAP2 SUB SWAP1 REVERT JUMPDEST PUSH1 0x10 DUP1 SLOAD PUSH1 0xFF NOT AND SWAP2 ISZERO ISZERO SWAP2 SWAP1 SWAP2 OR SWAP1 SSTORE JUMP JUMPDEST PUSH1 0x60 PUSH1 0x0 DUP1 SLOAD PUSH2 0x6B0 SWAP1 PUSH2 0x21B3 JUMP JUMPDEST DUP1 PUSH1 0x1F ADD PUSH1 0x20 DUP1 SWAP2 DIV MUL PUSH1 0x20 ADD PUSH1 0x40 MLOAD SWAP1 DUP2 ADD PUSH1 0x40 MSTORE DUP1 SWAP3 SWAP2 SWAP1 DUP2 DUP2 MSTORE PUSH1 0x20 ADD DUP3 DUP1 SLOAD PUSH2 0x6DC SWAP1 PUSH2 0x21B3 JUMP JUMPDEST DUP1 ISZERO PUSH2 0x729 JUMPI DUP1 PUSH1 0x1F LT PUSH2 0x6FE JUMPI PUSH2 0x100 DUP1 DUP4 SLOAD DIV MUL DUP4 MSTORE SWAP2 PUSH1 0x20 ADD SWAP2 PUSH2 0x729 JUMP JUMPDEST DUP3 ADD SWAP2 SWAP1 PUSH1 0x0 MSTORE PUSH1 0x20 PUSH1 0x0 KECCAK256 SWAP1 JUMPDEST DUP2 SLOAD DUP2 MSTORE SWAP1 PUSH1 0x1 ADD SWAP1 PUSH1 0x20 ADD DUP1 DUP4 GT PUSH2 0x70C JUMPI DUP3 SWAP1 SUB PUSH1 0x1F AND DUP3 ADD SWAP2 JUMPDEST POP POP POP POP POP SWAP1 POP SWAP1 JUMP JUMPDEST PUSH1 0x0 DUP2 DUP2 MSTORE PUSH1 0x2 PUSH1 0x20 MSTORE PUSH1 0x40 DUP2 KECCAK256 SLOAD PUSH1 0x1 PUSH1 0x1 PUSH1 0xA0 SHL SUB AND PUSH2 0x7AC JUMPI PUSH1 0x40 MLOAD PUSH3 0x461BCD PUSH1 0xE5 SHL DUP2 MSTORE PUSH1 0x20 PUSH1 0x4 DUP3 ADD MSTORE PUSH1 0x2C PUSH1 0x24 DUP3 ADD MSTORE PUSH32 0x4552433732313A20617070726F76656420717565727920666F72206E6F6E6578 PUSH1 0x44 DUP3 ADD MSTORE PUSH12 0x34B9BA32B73A103A37B5B2B7 PUSH1 0xA1 SHL PUSH1 0x64 DUP3 ADD MSTORE PUSH1 0x84 ADD PUSH2 0x685 JUMP JUMPDEST POP PUSH1 0x0 SWAP1 DUP2 MSTORE PUSH1 0x4 PUSH1 0x20 MSTORE PUSH1 0x40 SWAP1 KECCAK256 SLOAD PUSH1 0x1 PUSH1 0x1 PUSH1 0xA0 SHL SUB AND SWAP1 JUMP JUMPDEST PUSH1 0x0 PUSH2 0x7D3 DUP3 PUSH2 0xC03 JUMP JUMPDEST SWAP1 POP DUP1 PUSH1 0x1 PUSH1 0x1 PUSH1 0xA0 SHL SUB AND DUP4 PUSH1 0x1 PUSH1 0x1 PUSH1 0xA0 SHL SUB AND EQ ISZERO PUSH2 0x841 JUMPI PUSH1 0x40 MLOAD PUSH3 0x461BCD PUSH1 0xE5 SHL DUP2 MSTORE PUSH1 0x20 PUSH1 0x4 DUP3 ADD MSTORE PUSH1 0x21 PUSH1 0x24 DUP3 ADD MSTORE PUSH32 0x4552433732313A20617070726F76616C20746F2063757272656E74206F776E65 PUSH1 0x44 DUP3 ADD MSTORE PUSH1 0x39 PUSH1 0xF9 SHL PUSH1 0x64 DUP3 ADD MSTORE PUSH1 0x84 ADD PUSH2 0x685 JUMP JUMPDEST CALLER PUSH1 0x1 PUSH1 0x1 PUSH1 0xA0 SHL SUB DUP3 AND EQ DUP1 PUSH2 0x85D JUMPI POP PUSH2 0x85D DUP2 CALLER PUSH2 0x5E2 JUMP JUMPDEST PUSH2 0x8CF JUMPI PUSH1 0x40 MLOAD PUSH3 0x461BCD PUSH1 0xE5 SHL DUP2 MSTORE PUSH1 0x20 PUSH1 0x4 DUP3 ADD MSTORE PUSH1 0x38 PUSH1 0x24 DUP3 ADD MSTORE PUSH32 0x4552433732313A20617070726F76652063616C6C6572206973206E6F74206F77 PUSH1 0x44 DUP3 ADD MSTORE PUSH32 0x6E6572206E6F7220617070726F76656420666F7220616C6C0000000000000000 PUSH1 0x64 DUP3 ADD MSTORE PUSH1 0x84 ADD PUSH2 0x685 JUMP JUMPDEST PUSH2 0x8D9 DUP4 DUP4 PUSH2 0x11EB JUMP JUMPDEST POP POP POP JUMP JUMPDEST PUSH2 0x8E8 CALLER DUP3 PUSH2 0x1259 JUMP JUMPDEST PUSH2 0x904 JUMPI PUSH1 0x40 MLOAD PUSH3 0x461BCD PUSH1 0xE5 SHL DUP2 MSTORE PUSH1 0x4 ADD PUSH2 0x685 SWAP1 PUSH2 0x20D4 JUMP JUMPDEST PUSH2 0x8D9 DUP4 DUP4 DUP4 PUSH2 0x1350 JUMP JUMPDEST PUSH1 0x0 PUSH2 0x91A DUP4 PUSH2 0xC7A JUMP JUMPDEST DUP3 LT PUSH2 0x97C JUMPI PUSH1 0x40 MLOAD PUSH3 0x461BCD PUSH1 0xE5 SHL DUP2 MSTORE PUSH1 0x20 PUSH1 0x4 DUP3 ADD MSTORE PUSH1 0x2B PUSH1 0x24 DUP3 ADD MSTORE PUSH32 0x455243373231456E756D657261626C653A206F776E657220696E646578206F75 PUSH1 0x44 DUP3 ADD MSTORE PUSH11 0x74206F6620626F756E6473 PUSH1 0xA8 SHL PUSH1 0x64 DUP3 ADD MSTORE PUSH1 0x84 ADD PUSH2 0x685 JUMP JUMPDEST POP PUSH1 0x1 PUSH1 0x1 PUSH1 0xA0 SHL SUB SWAP2 SWAP1 SWAP2 AND PUSH1 0x0 SWAP1 DUP2 MSTORE PUSH1 0x6 PUSH1 0x20 SWAP1 DUP2 MSTORE PUSH1 0x40 DUP1 DUP4 KECCAK256 SWAP4 DUP4 MSTORE SWAP3 SWAP1 MSTORE KECCAK256 SLOAD SWAP1 JUMP JUMPDEST PUSH1 0xA SLOAD PUSH1 0x1 PUSH1 0x1 PUSH1 0xA0 SHL SUB AND CALLER EQ PUSH2 0x9CF JUMPI PUSH1 0x40 MLOAD PUSH3 0x461BCD PUSH1 0xE5 SHL DUP2 MSTORE PUSH1 0x4 ADD PUSH2 0x685 SWAP1 PUSH2 0x209F JUMP JUMPDEST PUSH1 0x0 PUSH2 0x9E3 PUSH1 0xA SLOAD PUSH1 0x1 PUSH1 0x1 PUSH1 0xA0 SHL SUB AND SWAP1 JUMP JUMPDEST PUSH1 0x1 PUSH1 0x1 PUSH1 0xA0 SHL SUB AND SELFBALANCE PUSH1 0x40 MLOAD PUSH1 0x0 PUSH1 0x40 MLOAD DUP1 DUP4 SUB DUP2 DUP6 DUP8 GAS CALL SWAP3 POP POP POP RETURNDATASIZE DUP1 PUSH1 0x0 DUP2 EQ PUSH2 0xA2D JUMPI PUSH1 0x40 MLOAD SWAP2 POP PUSH1 0x1F NOT PUSH1 0x3F RETURNDATASIZE ADD AND DUP3 ADD PUSH1 0x40 MSTORE RETURNDATASIZE DUP3 MSTORE RETURNDATASIZE PUSH1 0x0 PUSH1 0x20 DUP5 ADD RETURNDATACOPY PUSH2 0xA32 JUMP JUMPDEST PUSH1 0x60 SWAP2 POP JUMPDEST POP POP SWAP1 POP DUP1 PUSH2 0xA40 JUMPI PUSH1 0x0 DUP1 REVERT JUMPDEST POP JUMP JUMPDEST PUSH2 0x8D9 DUP4 DUP4 DUP4 PUSH1 0x40 MLOAD DUP1 PUSH1 0x20 ADD PUSH1 0x40 MSTORE DUP1 PUSH1 0x0 DUP2 MSTORE POP PUSH2 0xF22 JUMP JUMPDEST PUSH1 0x60 PUSH1 0x0 PUSH2 0xA6B DUP4 PUSH2 0xC7A JUMP JUMPDEST SWAP1 POP PUSH1 0x0 DUP2 PUSH8 0xFFFFFFFFFFFFFFFF DUP2 GT ISZERO PUSH2 0xA88 JUMPI PUSH2 0xA88 PUSH2 0x2275 JUMP JUMPDEST PUSH1 0x40 MLOAD SWAP1 DUP1 DUP3 MSTORE DUP1 PUSH1 0x20 MUL PUSH1 0x20 ADD DUP3 ADD PUSH1 0x40 MSTORE DUP1 ISZERO PUSH2 0xAB1 JUMPI DUP2 PUSH1 0x20 ADD PUSH1 0x20 DUP3 MUL DUP1 CALLDATASIZE DUP4 CALLDATACOPY ADD SWAP1 POP JUMPDEST POP SWAP1 POP PUSH1 0x0 JUMPDEST DUP3 DUP2 LT ISZERO PUSH2 0xAF8 JUMPI PUSH2 0xAC9 DUP6 DUP3 PUSH2 0x90F JUMP JUMPDEST DUP3 DUP3 DUP2 MLOAD DUP2 LT PUSH2 0xADB JUMPI PUSH2 0xADB PUSH2 0x225F JUMP JUMPDEST PUSH1 0x20 SWAP1 DUP2 MUL SWAP2 SWAP1 SWAP2 ADD ADD MSTORE DUP1 PUSH2 0xAF0 DUP2 PUSH2 0x21EE JUMP JUMPDEST SWAP2 POP POP PUSH2 0xAB7 JUMP JUMPDEST POP SWAP4 SWAP3 POP POP POP JUMP JUMPDEST PUSH1 0xA SLOAD PUSH1 0x1 PUSH1 0x1 PUSH1 0xA0 SHL SUB AND CALLER EQ PUSH2 0xB2A JUMPI PUSH1 0x40 MLOAD PUSH3 0x461BCD PUSH1 0xE5 SHL DUP2 MSTORE PUSH1 0x4 ADD PUSH2 0x685 SWAP1 PUSH2 0x209F JUMP JUMPDEST PUSH1 0xD SSTORE JUMP JUMPDEST PUSH1 0x0 PUSH2 0xB3A PUSH1 0x8 SLOAD SWAP1 JUMP JUMPDEST DUP3 LT PUSH2 0xB9D JUMPI PUSH1 0x40 MLOAD PUSH3 0x461BCD PUSH1 0xE5 SHL DUP2 MSTORE PUSH1 0x20 PUSH1 0x4 DUP3 ADD MSTORE PUSH1 0x2C PUSH1 0x24 DUP3 ADD MSTORE PUSH32 0x455243373231456E756D657261626C653A20676C6F62616C20696E646578206F PUSH1 0x44 DUP3 ADD MSTORE PUSH12 0x7574206F6620626F756E6473 PUSH1 0xA0 SHL PUSH1 0x64 DUP3 ADD MSTORE PUSH1 0x84 ADD PUSH2 0x685 JUMP JUMPDEST PUSH1 0x8 DUP3 DUP2 SLOAD DUP2 LT PUSH2 0xBB0 JUMPI PUSH2 0xBB0 PUSH2 0x225F JUMP JUMPDEST SWAP1 PUSH1 0x0 MSTORE PUSH1 0x20 PUSH1 0x0 KECCAK256 ADD SLOAD SWAP1 POP SWAP2 SWAP1 POP JUMP JUMPDEST PUSH1 0xA SLOAD PUSH1 0x1 PUSH1 0x1 PUSH1 0xA0 SHL SUB AND CALLER EQ PUSH2 0xBEC JUMPI PUSH1 0x40 MLOAD PUSH3 0x461BCD PUSH1 0xE5 SHL DUP2 MSTORE PUSH1 0x4 ADD PUSH2 0x685 SWAP1 PUSH2 0x209F JUMP JUMPDEST DUP1 MLOAD PUSH2 0xBFF SWAP1 PUSH1 0xB SWAP1 PUSH1 0x20 DUP5 ADD SWAP1 PUSH2 0x1B7D JUMP JUMPDEST POP POP JUMP JUMPDEST PUSH1 0x0 DUP2 DUP2 MSTORE PUSH1 0x2 PUSH1 0x20 MSTORE PUSH1 0x40 DUP2 KECCAK256 SLOAD PUSH1 0x1 PUSH1 0x1 PUSH1 0xA0 SHL SUB AND DUP1 PUSH2 0x655 JUMPI PUSH1 0x40 MLOAD PUSH3 0x461BCD PUSH1 0xE5 SHL DUP2 MSTORE PUSH1 0x20 PUSH1 0x4 DUP3 ADD MSTORE PUSH1 0x29 PUSH1 0x24 DUP3 ADD MSTORE PUSH32 0x4552433732313A206F776E657220717565727920666F72206E6F6E6578697374 PUSH1 0x44 DUP3 ADD MSTORE PUSH9 0x32B73A103A37B5B2B7 PUSH1 0xB9 SHL PUSH1 0x64 DUP3 ADD MSTORE PUSH1 0x84 ADD PUSH2 0x685 JUMP JUMPDEST PUSH1 0x0 PUSH1 0x1 PUSH1 0x1 PUSH1 0xA0 SHL SUB DUP3 AND PUSH2 0xCE5 JUMPI PUSH1 0x40 MLOAD PUSH3 0x461BCD PUSH1 0xE5 SHL DUP2 MSTORE PUSH1 0x20 PUSH1 0x4 DUP3 ADD MSTORE PUSH1 0x2A PUSH1 0x24 DUP3 ADD MSTORE PUSH32 0x4552433732313A2062616C616E636520717565727920666F7220746865207A65 PUSH1 0x44 DUP3 ADD MSTORE PUSH10 0x726F2061646472657373 PUSH1 0xB0 SHL PUSH1 0x64 DUP3 ADD MSTORE PUSH1 0x84 ADD PUSH2 0x685 JUMP JUMPDEST POP PUSH1 0x1 PUSH1 0x1 PUSH1 0xA0 SHL SUB AND PUSH1 0x0 SWAP1 DUP2 MSTORE PUSH1 0x3 PUSH1 0x20 MSTORE PUSH1 0x40 SWAP1 KECCAK256 SLOAD SWAP1 JUMP JUMPDEST PUSH1 0xA SLOAD PUSH1 0x1 PUSH1 0x1 PUSH1 0xA0 SHL SUB AND CALLER EQ PUSH2 0xD2B JUMPI PUSH1 0x40 MLOAD PUSH3 0x461BCD PUSH1 0xE5 SHL DUP2 MSTORE PUSH1 0x4 ADD PUSH2 0x685 SWAP1 PUSH2 0x209F JUMP JUMPDEST PUSH2 0xD35 PUSH1 0x0 PUSH2 0x14FB JUMP JUMPDEST JUMP JUMPDEST PUSH1 0xA SLOAD PUSH1 0x1 PUSH1 0x1 PUSH1 0xA0 SHL SUB AND CALLER EQ PUSH2 0xD61 JUMPI PUSH1 0x40 MLOAD PUSH3 0x461BCD PUSH1 0xE5 SHL DUP2 MSTORE PUSH1 0x4 ADD PUSH2 0x685 SWAP1 PUSH2 0x209F JUMP JUMPDEST PUSH1 0xF SSTORE JUMP JUMPDEST PUSH1 0x60 PUSH1 0x1 DUP1 SLOAD PUSH2 0x6B0 SWAP1 PUSH2 0x21B3 JUMP JUMPDEST PUSH1 0x0 PUSH2 0xD80 PUSH1 0x8 SLOAD SWAP1 JUMP JUMPDEST PUSH1 0x10 SLOAD SWAP1 SWAP2 POP PUSH1 0xFF AND ISZERO PUSH2 0xD93 JUMPI PUSH1 0x0 DUP1 REVERT JUMPDEST PUSH1 0x0 DUP3 GT PUSH2 0xDA0 JUMPI PUSH1 0x0 DUP1 REVERT JUMPDEST PUSH1 0xF SLOAD DUP3 GT ISZERO PUSH2 0xDAF JUMPI PUSH1 0x0 DUP1 REVERT JUMPDEST PUSH1 0xE SLOAD PUSH2 0xDBC DUP4 DUP4 PUSH2 0x2125 JUMP JUMPDEST GT ISZERO PUSH2 0xDC7 JUMPI PUSH1 0x0 DUP1 REVERT JUMPDEST PUSH1 0xA SLOAD PUSH1 0x1 PUSH1 0x1 PUSH1 0xA0 SHL SUB AND CALLER EQ PUSH2 0xDF3 JUMPI DUP2 PUSH1 0xD SLOAD PUSH2 0xDE7 SWAP2 SWAP1 PUSH2 0x2151 JUMP JUMPDEST CALLVALUE LT ISZERO PUSH2 0xDF3 JUMPI PUSH1 0x0 DUP1 REVERT JUMPDEST PUSH1 0x1 JUMPDEST DUP3 DUP2 GT PUSH2 0x8D9 JUMPI PUSH2 0xE10 CALLER PUSH2 0xE0B DUP4 DUP6 PUSH2 0x2125 JUMP JUMPDEST PUSH2 0x154D JUMP JUMPDEST DUP1 PUSH2 0xE1A DUP2 PUSH2 0x21EE JUMP JUMPDEST SWAP2 POP POP PUSH2 0xDF6 JUMP JUMPDEST PUSH1 0x1 PUSH1 0x1 PUSH1 0xA0 SHL SUB DUP3 AND CALLER EQ ISZERO PUSH2 0xE7B JUMPI PUSH1 0x40 MLOAD PUSH3 0x461BCD PUSH1 0xE5 SHL DUP2 MSTORE PUSH1 0x20 PUSH1 0x4 DUP3 ADD MSTORE PUSH1 0x19 PUSH1 0x24 DUP3 ADD MSTORE PUSH32 0x4552433732313A20617070726F766520746F2063616C6C657200000000000000 PUSH1 0x44 DUP3 ADD MSTORE PUSH1 0x64 ADD PUSH2 0x685 JUMP JUMPDEST CALLER PUSH1 0x0 DUP2 DUP2 MSTORE PUSH1 0x5 PUSH1 0x20 SWAP1 DUP2 MSTORE PUSH1 0x40 DUP1 DUP4 KECCAK256 PUSH1 0x1 PUSH1 0x1 PUSH1 0xA0 SHL SUB DUP8 AND DUP1 DUP6 MSTORE SWAP1 DUP4 MSTORE SWAP3 DUP2 SWAP1 KECCAK256 DUP1 SLOAD PUSH1 0xFF NOT AND DUP7 ISZERO ISZERO SWAP1 DUP2 OR SWAP1 SWAP2 SSTORE SWAP1 MLOAD SWAP1 DUP2 MSTORE SWAP2 SWAP3 SWAP2 PUSH32 0x17307EAB39AB6107E8899845AD3D59BD9653F200F220920489CA2B5937696C31 SWAP2 ADD PUSH1 0x40 MLOAD DUP1 SWAP2 SUB SWAP1 LOG3 POP POP JUMP JUMPDEST PUSH1 0xA SLOAD PUSH1 0x1 PUSH1 0x1 PUSH1 0xA0 SHL SUB AND CALLER EQ PUSH2 0xF11 JUMPI PUSH1 0x40 MLOAD PUSH3 0x461BCD PUSH1 0xE5 SHL DUP2 MSTORE PUSH1 0x4 ADD PUSH2 0x685 SWAP1 PUSH2 0x209F JUMP JUMPDEST PUSH1 0x10 DUP1 SLOAD PUSH2 0xFF00 NOT AND PUSH2 0x100 OR SWAP1 SSTORE JUMP JUMPDEST PUSH2 0xF2C CALLER DUP4 PUSH2 0x1259 JUMP JUMPDEST PUSH2 0xF48 JUMPI PUSH1 0x40 MLOAD PUSH3 0x461BCD PUSH1 0xE5 SHL DUP2 MSTORE PUSH1 0x4 ADD PUSH2 0x685 SWAP1 PUSH2 0x20D4 JUMP JUMPDEST PUSH2 0xF54 DUP5 DUP5 DUP5 DUP5 PUSH2 0x1567 JUMP JUMPDEST POP POP POP POP JUMP JUMPDEST PUSH1 0xC DUP1 SLOAD PUSH2 0xF67 SWAP1 PUSH2 0x21B3 JUMP JUMPDEST DUP1 PUSH1 0x1F ADD PUSH1 0x20 DUP1 SWAP2 DIV MUL PUSH1 0x20 ADD PUSH1 0x40 MLOAD SWAP1 DUP2 ADD PUSH1 0x40 MSTORE DUP1 SWAP3 SWAP2 SWAP1 DUP2 DUP2 MSTORE PUSH1 0x20 ADD DUP3 DUP1 SLOAD PUSH2 0xF93 SWAP1 PUSH2 0x21B3 JUMP JUMPDEST DUP1 ISZERO PUSH2 0xFE0 JUMPI DUP1 PUSH1 0x1F LT PUSH2 0xFB5 JUMPI PUSH2 0x100 DUP1 DUP4 SLOAD DIV MUL DUP4 MSTORE SWAP2 PUSH1 0x20 ADD SWAP2 PUSH2 0xFE0 JUMP JUMPDEST DUP3 ADD SWAP2 SWAP1 PUSH1 0x0 MSTORE PUSH1 0x20 PUSH1 0x0 KECCAK256 SWAP1 JUMPDEST DUP2 SLOAD DUP2 MSTORE SWAP1 PUSH1 0x1 ADD SWAP1 PUSH1 0x20 ADD DUP1 DUP4 GT PUSH2 0xFC3 JUMPI DUP3 SWAP1 SUB PUSH1 0x1F AND DUP3 ADD SWAP2 JUMPDEST POP POP POP POP POP DUP2 JUMP JUMPDEST PUSH1 0x0 DUP2 DUP2 MSTORE PUSH1 0x2 PUSH1 0x20 MSTORE PUSH1 0x40 SWAP1 KECCAK256 SLOAD PUSH1 0x60 SWAP1 PUSH1 0x1 PUSH1 0x1 PUSH1 0xA0 SHL SUB AND PUSH2 0x1067 JUMPI PUSH1 0x40 MLOAD PUSH3 0x461BCD PUSH1 0xE5 SHL DUP2 MSTORE PUSH1 0x20 PUSH1 0x4 DUP3 ADD MSTORE PUSH1 0x2F PUSH1 0x24 DUP3 ADD MSTORE PUSH32 0x4552433732314D657461646174613A2055524920717565727920666F72206E6F PUSH1 0x44 DUP3 ADD MSTORE PUSH15 0x3732BC34B9BA32B73A103A37B5B2B7 PUSH1 0x89 SHL PUSH1 0x64 DUP3 ADD MSTORE PUSH1 0x84 ADD PUSH2 0x685 JUMP JUMPDEST PUSH1 0x0 PUSH2 0x1071 PUSH2 0x159A JUMP JUMPDEST SWAP1 POP PUSH1 0x0 DUP2 MLOAD GT PUSH2 0x1091 JUMPI PUSH1 0x40 MLOAD DUP1 PUSH1 0x20 ADD PUSH1 0x40 MSTORE DUP1 PUSH1 0x0 DUP2 MSTORE POP PUSH2 0x10BF JUMP JUMPDEST DUP1 PUSH2 0x109B DUP5 PUSH2 0x15A9 JUMP JUMPDEST PUSH1 0xC PUSH1 0x40 MLOAD PUSH1 0x20 ADD PUSH2 0x10AF SWAP4 SWAP3 SWAP2 SWAP1 PUSH2 0x1EF5 JUMP JUMPDEST PUSH1 0x40 MLOAD PUSH1 0x20 DUP2 DUP4 SUB SUB DUP2 MSTORE SWAP1 PUSH1 0x40 MSTORE JUMPDEST SWAP4 SWAP3 POP POP POP JUMP JUMPDEST PUSH1 0xA SLOAD PUSH1 0x1 PUSH1 0x1 PUSH1 0xA0 SHL SUB AND CALLER EQ PUSH2 0x10F0 JUMPI PUSH1 0x40 MLOAD PUSH3 0x461BCD PUSH1 0xE5 SHL DUP2 MSTORE PUSH1 0x4 ADD PUSH2 0x685 SWAP1 PUSH2 0x209F JUMP JUMPDEST DUP1 MLOAD PUSH2 0xBFF SWAP1 PUSH1 0xC SWAP1 PUSH1 0x20 DUP5 ADD SWAP1 PUSH2 0x1B7D JUMP JUMPDEST PUSH1 0xA SLOAD PUSH1 0x1 PUSH1 0x1 PUSH1 0xA0 SHL SUB AND CALLER EQ PUSH2 0x112D JUMPI PUSH1 0x40 MLOAD PUSH3 0x461BCD PUSH1 0xE5 SHL DUP2 MSTORE PUSH1 0x4 ADD PUSH2 0x685 SWAP1 PUSH2 0x209F JUMP JUMPDEST PUSH1 0x1 PUSH1 0x1 PUSH1 0xA0 SHL SUB DUP2 AND PUSH2 0x1192 JUMPI PUSH1 0x40 MLOAD PUSH3 0x461BCD PUSH1 0xE5 SHL DUP2 MSTORE PUSH1 0x20 PUSH1 0x4 DUP3 ADD MSTORE PUSH1 0x26 PUSH1 0x24 DUP3 ADD MSTORE PUSH32 0x4F776E61626C653A206E6577206F776E657220697320746865207A65726F2061 PUSH1 0x44 DUP3 ADD MSTORE PUSH6 0x646472657373 PUSH1 0xD0 SHL PUSH1 0x64 DUP3 ADD MSTORE PUSH1 0x84 ADD PUSH2 0x685 JUMP JUMPDEST PUSH2 0xA40 DUP2 PUSH2 0x14FB JUMP JUMPDEST PUSH1 0x0 PUSH1 0x1 PUSH1 0x1 PUSH1 0xE0 SHL SUB NOT DUP3 AND PUSH4 0x80AC58CD PUSH1 0xE0 SHL EQ DUP1 PUSH2 0x11CC JUMPI POP PUSH1 0x1 PUSH1 0x1 PUSH1 0xE0 SHL SUB NOT DUP3 AND PUSH4 0x5B5E139F PUSH1 0xE0 SHL EQ JUMPDEST DUP1 PUSH2 0x655 JUMPI POP PUSH4 0x1FFC9A7 PUSH1 0xE0 SHL PUSH1 0x1 PUSH1 0x1 PUSH1 0xE0 SHL SUB NOT DUP4 AND EQ PUSH2 0x655 JUMP JUMPDEST PUSH1 0x0 DUP2 DUP2 MSTORE PUSH1 0x4 PUSH1 0x20 MSTORE PUSH1 0x40 SWAP1 KECCAK256 DUP1 SLOAD PUSH1 0x1 PUSH1 0x1 PUSH1 0xA0 SHL SUB NOT AND PUSH1 0x1 PUSH1 0x1 PUSH1 0xA0 SHL SUB DUP5 AND SWAP1 DUP2 OR SWAP1 SWAP2 SSTORE DUP2 SWAP1 PUSH2 0x1220 DUP3 PUSH2 0xC03 JUMP JUMPDEST PUSH1 0x1 PUSH1 0x1 PUSH1 0xA0 SHL SUB AND PUSH32 0x8C5BE1E5EBEC7D5BD14F71427D1E84F3DD0314C0F7B2291E5B200AC8C7C3B925 PUSH1 0x40 MLOAD PUSH1 0x40 MLOAD DUP1 SWAP2 SUB SWAP1 LOG4 POP POP JUMP JUMPDEST PUSH1 0x0 DUP2 DUP2 MSTORE PUSH1 0x2 PUSH1 0x20 MSTORE PUSH1 0x40 DUP2 KECCAK256 SLOAD PUSH1 0x1 PUSH1 0x1 PUSH1 0xA0 SHL SUB AND PUSH2 0x12D2 JUMPI PUSH1 0x40 MLOAD PUSH3 0x461BCD PUSH1 0xE5 SHL DUP2 MSTORE PUSH1 0x20 PUSH1 0x4 DUP3 ADD MSTORE PUSH1 0x2C PUSH1 0x24 DUP3 ADD MSTORE PUSH32 0x4552433732313A206F70657261746F7220717565727920666F72206E6F6E6578 PUSH1 0x44 DUP3 ADD MSTORE PUSH12 0x34B9BA32B73A103A37B5B2B7 PUSH1 0xA1 SHL PUSH1 0x64 DUP3 ADD MSTORE PUSH1 0x84 ADD PUSH2 0x685 JUMP JUMPDEST PUSH1 0x0 PUSH2 0x12DD DUP4 PUSH2 0xC03 JUMP JUMPDEST SWAP1 POP DUP1 PUSH1 0x1 PUSH1 0x1 PUSH1 0xA0 SHL SUB AND DUP5 PUSH1 0x1 PUSH1 0x1 PUSH1 0xA0 SHL SUB AND EQ DUP1 PUSH2 0x1318 JUMPI POP DUP4 PUSH1 0x1 PUSH1 0x1 PUSH1 0xA0 SHL SUB AND PUSH2 0x130D DUP5 PUSH2 0x733 JUMP JUMPDEST PUSH1 0x1 PUSH1 0x1 PUSH1 0xA0 SHL SUB AND EQ JUMPDEST DUP1 PUSH2 0x1348 JUMPI POP PUSH1 0x1 PUSH1 0x1 PUSH1 0xA0 SHL SUB DUP1 DUP3 AND PUSH1 0x0 SWAP1 DUP2 MSTORE PUSH1 0x5 PUSH1 0x20 SWAP1 DUP2 MSTORE PUSH1 0x40 DUP1 DUP4 KECCAK256 SWAP4 DUP9 AND DUP4 MSTORE SWAP3 SWAP1 MSTORE KECCAK256 SLOAD PUSH1 0xFF AND JUMPDEST SWAP5 SWAP4 POP POP POP POP JUMP JUMPDEST DUP3 PUSH1 0x1 PUSH1 0x1 PUSH1 0xA0 SHL SUB AND PUSH2 0x1363 DUP3 PUSH2 0xC03 JUMP JUMPDEST PUSH1 0x1 PUSH1 0x1 PUSH1 0xA0 SHL SUB AND EQ PUSH2 0x13CB JUMPI PUSH1 0x40 MLOAD PUSH3 0x461BCD PUSH1 0xE5 SHL DUP2 MSTORE PUSH1 0x20 PUSH1 0x4 DUP3 ADD MSTORE PUSH1 0x29 PUSH1 0x24 DUP3 ADD MSTORE PUSH32 0x4552433732313A207472616E73666572206F6620746F6B656E20746861742069 PUSH1 0x44 DUP3 ADD MSTORE PUSH9 0x39903737BA1037BBB7 PUSH1 0xB9 SHL PUSH1 0x64 DUP3 ADD MSTORE PUSH1 0x84 ADD PUSH2 0x685 JUMP JUMPDEST PUSH1 0x1 PUSH1 0x1 PUSH1 0xA0 SHL SUB DUP3 AND PUSH2 0x142D JUMPI PUSH1 0x40 MLOAD PUSH3 0x461BCD PUSH1 0xE5 SHL DUP2 MSTORE PUSH1 0x20 PUSH1 0x4 DUP3 ADD MSTORE PUSH1 0x24 DUP1 DUP3 ADD MSTORE PUSH32 0x4552433732313A207472616E7366657220746F20746865207A65726F20616464 PUSH1 0x44 DUP3 ADD MSTORE PUSH4 0x72657373 PUSH1 0xE0 SHL PUSH1 0x64 DUP3 ADD MSTORE PUSH1 0x84 ADD PUSH2 0x685 JUMP JUMPDEST PUSH2 0x1438 DUP4 DUP4 DUP4 PUSH2 0x16A7 JUMP JUMPDEST PUSH2 0x1443 PUSH1 0x0 DUP3 PUSH2 0x11EB JUMP JUMPDEST PUSH1 0x1 PUSH1 0x1 PUSH1 0xA0 SHL SUB DUP4 AND PUSH1 0x0 SWAP1 DUP2 MSTORE PUSH1 0x3 PUSH1 0x20 MSTORE PUSH1 0x40 DUP2 KECCAK256 DUP1 SLOAD PUSH1 0x1 SWAP3 SWAP1 PUSH2 0x146C SWAP1 DUP5 SWAP1 PUSH2 0x2170 JUMP JUMPDEST SWAP1 SWAP2 SSTORE POP POP PUSH1 0x1 PUSH1 0x1 PUSH1 0xA0 SHL SUB DUP3 AND PUSH1 0x0 SWAP1 DUP2 MSTORE PUSH1 0x3 PUSH1 0x20 MSTORE PUSH1 0x40 DUP2 KECCAK256 DUP1 SLOAD PUSH1 0x1 SWAP3 SWAP1 PUSH2 0x149A SWAP1 DUP5 SWAP1 PUSH2 0x2125 JUMP JUMPDEST SWAP1 SWAP2 SSTORE POP POP PUSH1 0x0 DUP2 DUP2 MSTORE PUSH1 0x2 PUSH1 0x20 MSTORE PUSH1 0x40 DUP1 DUP3 KECCAK256 DUP1 SLOAD PUSH1 0x1 PUSH1 0x1 PUSH1 0xA0 SHL SUB NOT AND PUSH1 0x1 PUSH1 0x1 PUSH1 0xA0 SHL SUB DUP7 DUP2 AND SWAP2 DUP3 OR SWAP1 SWAP3 SSTORE SWAP2 MLOAD DUP5 SWAP4 SWAP2 DUP8 AND SWAP2 PUSH32 0xDDF252AD1BE2C89B69C2B068FC378DAA952BA7F163C4A11628F55A4DF523B3EF SWAP2 LOG4 POP POP POP JUMP JUMPDEST PUSH1 0xA DUP1 SLOAD PUSH1 0x1 PUSH1 0x1 PUSH1 0xA0 SHL SUB DUP4 DUP2 AND PUSH1 0x1 PUSH1 0x1 PUSH1 0xA0 SHL SUB NOT DUP4 AND DUP2 OR SWAP1 SWAP4 SSTORE PUSH1 0x40 MLOAD SWAP2 AND SWAP2 SWAP1 DUP3 SWAP1 PUSH32 0x8BE0079C531659141344CD1FD0A4F28419497F9722A3DAAFE3B4186F6B6457E0 SWAP1 PUSH1 0x0 SWAP1 LOG3 POP POP JUMP JUMPDEST PUSH2 0xBFF DUP3 DUP3 PUSH1 0x40 MLOAD DUP1 PUSH1 0x20 ADD PUSH1 0x40 MSTORE DUP1 PUSH1 0x0 DUP2 MSTORE POP PUSH2 0x175F JUMP JUMPDEST PUSH2 0x1572 DUP5 DUP5 DUP5 PUSH2 0x1350 JUMP JUMPDEST PUSH2 0x157E DUP5 DUP5 DUP5 DUP5 PUSH2 0x1792 JUMP JUMPDEST PUSH2 0xF54 JUMPI PUSH1 0x40 MLOAD PUSH3 0x461BCD PUSH1 0xE5 SHL DUP2 MSTORE PUSH1 0x4 ADD PUSH2 0x685 SWAP1 PUSH2 0x204D JUMP JUMPDEST PUSH1 0x60 PUSH1 0xB DUP1 SLOAD PUSH2 0x6B0 SWAP1 PUSH2 0x21B3 JUMP JUMPDEST PUSH1 0x60 DUP2 PUSH2 0x15CD JUMPI POP POP PUSH1 0x40 DUP1 MLOAD DUP1 DUP3 ADD SWAP1 SWAP2 MSTORE PUSH1 0x1 DUP2 MSTORE PUSH1 0x3 PUSH1 0xFC SHL PUSH1 0x20 DUP3 ADD MSTORE SWAP1 JUMP JUMPDEST DUP2 PUSH1 0x0 JUMPDEST DUP2 ISZERO PUSH2 0x15F7 JUMPI DUP1 PUSH2 0x15E1 DUP2 PUSH2 0x21EE JUMP JUMPDEST SWAP2 POP PUSH2 0x15F0 SWAP1 POP PUSH1 0xA DUP4 PUSH2 0x213D JUMP JUMPDEST SWAP2 POP PUSH2 0x15D1 JUMP JUMPDEST PUSH1 0x0 DUP2 PUSH8 0xFFFFFFFFFFFFFFFF DUP2 GT ISZERO PUSH2 0x1612 JUMPI PUSH2 0x1612 PUSH2 0x2275 JUMP JUMPDEST PUSH1 0x40 MLOAD SWAP1 DUP1 DUP3 MSTORE DUP1 PUSH1 0x1F ADD PUSH1 0x1F NOT AND PUSH1 0x20 ADD DUP3 ADD PUSH1 0x40 MSTORE DUP1 ISZERO PUSH2 0x163C JUMPI PUSH1 0x20 DUP3 ADD DUP2 DUP1 CALLDATASIZE DUP4 CALLDATACOPY ADD SWAP1 POP JUMPDEST POP SWAP1 POP JUMPDEST DUP5 ISZERO PUSH2 0x1348 JUMPI PUSH2 0x1651 PUSH1 0x1 DUP4 PUSH2 0x2170 JUMP JUMPDEST SWAP2 POP PUSH2 0x165E PUSH1 0xA DUP7 PUSH2 0x2209 JUMP JUMPDEST PUSH2 0x1669 SWAP1 PUSH1 0x30 PUSH2 0x2125 JUMP JUMPDEST PUSH1 0xF8 SHL DUP2 DUP4 DUP2 MLOAD DUP2 LT PUSH2 0x167E JUMPI PUSH2 0x167E PUSH2 0x225F JUMP JUMPDEST PUSH1 0x20 ADD ADD SWAP1 PUSH1 0x1 PUSH1 0x1 PUSH1 0xF8 SHL SUB NOT AND SWAP1 DUP2 PUSH1 0x0 BYTE SWAP1 MSTORE8 POP PUSH2 0x16A0 PUSH1 0xA DUP7 PUSH2 0x213D JUMP JUMPDEST SWAP5 POP PUSH2 0x1640 JUMP JUMPDEST PUSH1 0x1 PUSH1 0x1 PUSH1 0xA0 SHL SUB DUP4 AND PUSH2 0x1702 JUMPI PUSH2 0x16FD DUP2 PUSH1 0x8 DUP1 SLOAD PUSH1 0x0 DUP4 DUP2 MSTORE PUSH1 0x9 PUSH1 0x20 MSTORE PUSH1 0x40 DUP2 KECCAK256 DUP3 SWAP1 SSTORE PUSH1 0x1 DUP3 ADD DUP4 SSTORE SWAP2 SWAP1 SWAP2 MSTORE PUSH32 0xF3F7A9FE364FAAB93B216DA50A3214154F22A0A2B415B23A84C8169E8B636EE3 ADD SSTORE JUMP JUMPDEST PUSH2 0x1725 JUMP JUMPDEST DUP2 PUSH1 0x1 PUSH1 0x1 PUSH1 0xA0 SHL SUB AND DUP4 PUSH1 0x1 PUSH1 0x1 PUSH1 0xA0 SHL SUB AND EQ PUSH2 0x1725 JUMPI PUSH2 0x1725 DUP4 DUP3 PUSH2 0x189F JUMP JUMPDEST PUSH1 0x1 PUSH1 0x1 PUSH1 0xA0 SHL SUB DUP3 AND PUSH2 0x173C JUMPI PUSH2 0x8D9 DUP2 PUSH2 0x193C JUMP JUMPDEST DUP3 PUSH1 0x1 PUSH1 0x1 PUSH1 0xA0 SHL SUB AND DUP3 PUSH1 0x1 PUSH1 0x1 PUSH1 0xA0 SHL SUB AND EQ PUSH2 0x8D9 JUMPI PUSH2 0x8D9 DUP3 DUP3 PUSH2 0x19EB JUMP JUMPDEST PUSH2 0x1769 DUP4 DUP4 PUSH2 0x1A2F JUMP JUMPDEST PUSH2 0x1776 PUSH1 0x0 DUP5 DUP5 DUP5 PUSH2 0x1792 JUMP JUMPDEST PUSH2 0x8D9 JUMPI PUSH1 0x40 MLOAD PUSH3 0x461BCD PUSH1 0xE5 SHL DUP2 MSTORE PUSH1 0x4 ADD PUSH2 0x685 SWAP1 PUSH2 0x204D JUMP JUMPDEST PUSH1 0x0 PUSH1 0x1 PUSH1 0x1 PUSH1 0xA0 SHL SUB DUP5 AND EXTCODESIZE ISZERO PUSH2 0x1894 JUMPI PUSH1 0x40 MLOAD PUSH4 0xA85BD01 PUSH1 0xE1 SHL DUP2 MSTORE PUSH1 0x1 PUSH1 0x1 PUSH1 0xA0 SHL SUB DUP6 AND SWAP1 PUSH4 0x150B7A02 SWAP1 PUSH2 0x17D6 SWAP1 CALLER SWAP1 DUP10 SWAP1 DUP9 SWAP1 DUP9 SWAP1 PUSH1 0x4 ADD PUSH2 0x1FB9 JUMP JUMPDEST PUSH1 0x20 PUSH1 0x40 MLOAD DUP1 DUP4 SUB DUP2 PUSH1 0x0 DUP8 DUP1 EXTCODESIZE ISZERO DUP1 ISZERO PUSH2 0x17F0 JUMPI PUSH1 0x0 DUP1 REVERT JUMPDEST POP GAS CALL SWAP3 POP POP POP DUP1 ISZERO PUSH2 0x1820 JUMPI POP PUSH1 0x40 DUP1 MLOAD PUSH1 0x1F RETURNDATASIZE SWAP1 DUP2 ADD PUSH1 0x1F NOT AND DUP3 ADD SWAP1 SWAP3 MSTORE PUSH2 0x181D SWAP2 DUP2 ADD SWAP1 PUSH2 0x1E4A JUMP JUMPDEST PUSH1 0x1 JUMPDEST PUSH2 0x187A JUMPI RETURNDATASIZE DUP1 DUP1 ISZERO PUSH2 0x184E JUMPI PUSH1 0x40 MLOAD SWAP2 POP PUSH1 0x1F NOT PUSH1 0x3F RETURNDATASIZE ADD AND DUP3 ADD PUSH1 0x40 MSTORE RETURNDATASIZE DUP3 MSTORE RETURNDATASIZE PUSH1 0x0 PUSH1 0x20 DUP5 ADD RETURNDATACOPY PUSH2 0x1853 JUMP JUMPDEST PUSH1 0x60 SWAP2 POP JUMPDEST POP DUP1 MLOAD PUSH2 0x1872 JUMPI PUSH1 0x40 MLOAD PUSH3 0x461BCD PUSH1 0xE5 SHL DUP2 MSTORE PUSH1 0x4 ADD PUSH2 0x685 SWAP1 PUSH2 0x204D JUMP JUMPDEST DUP1 MLOAD DUP2 PUSH1 0x20 ADD REVERT JUMPDEST PUSH1 0x1 PUSH1 0x1 PUSH1 0xE0 SHL SUB NOT AND PUSH4 0xA85BD01 PUSH1 0xE1 SHL EQ SWAP1 POP PUSH2 0x1348 JUMP JUMPDEST POP PUSH1 0x1 SWAP5 SWAP4 POP POP POP POP JUMP JUMPDEST PUSH1 0x0 PUSH1 0x1 PUSH2 0x18AC DUP5 PUSH2 0xC7A JUMP JUMPDEST PUSH2 0x18B6 SWAP2 SWAP1 PUSH2 0x2170 JUMP JUMPDEST PUSH1 0x0 DUP4 DUP2 MSTORE PUSH1 0x7 PUSH1 0x20 MSTORE PUSH1 0x40 SWAP1 KECCAK256 SLOAD SWAP1 SWAP2 POP DUP1 DUP3 EQ PUSH2 0x1909 JUMPI PUSH1 0x1 PUSH1 0x1 PUSH1 0xA0 SHL SUB DUP5 AND PUSH1 0x0 SWAP1 DUP2 MSTORE PUSH1 0x6 PUSH1 0x20 SWAP1 DUP2 MSTORE PUSH1 0x40 DUP1 DUP4 KECCAK256 DUP6 DUP5 MSTORE DUP3 MSTORE DUP1 DUP4 KECCAK256 SLOAD DUP5 DUP5 MSTORE DUP2 DUP5 KECCAK256 DUP2 SWAP1 SSTORE DUP4 MSTORE PUSH1 0x7 SWAP1 SWAP2 MSTORE SWAP1 KECCAK256 DUP2 SWAP1 SSTORE JUMPDEST POP PUSH1 0x0 SWAP2 DUP3 MSTORE PUSH1 0x7 PUSH1 0x20 SWAP1 DUP2 MSTORE PUSH1 0x40 DUP1 DUP5 KECCAK256 DUP5 SWAP1 SSTORE PUSH1 0x1 PUSH1 0x1 PUSH1 0xA0 SHL SUB SWAP1 SWAP5 AND DUP4 MSTORE PUSH1 0x6 DUP2 MSTORE DUP4 DUP4 KECCAK256 SWAP2 DUP4 MSTORE MSTORE SWAP1 DUP2 KECCAK256 SSTORE JUMP JUMPDEST PUSH1 0x8 SLOAD PUSH1 0x0 SWAP1 PUSH2 0x194E SWAP1 PUSH1 0x1 SWAP1 PUSH2 0x2170 JUMP JUMPDEST PUSH1 0x0 DUP4 DUP2 MSTORE PUSH1 0x9 PUSH1 0x20 MSTORE PUSH1 0x40 DUP2 KECCAK256 SLOAD PUSH1 0x8 DUP1 SLOAD SWAP4 SWAP5 POP SWAP1 SWAP3 DUP5 SWAP1 DUP2 LT PUSH2 0x1976 JUMPI PUSH2 0x1976 PUSH2 0x225F JUMP JUMPDEST SWAP1 PUSH1 0x0 MSTORE PUSH1 0x20 PUSH1 0x0 KECCAK256 ADD SLOAD SWAP1 POP DUP1 PUSH1 0x8 DUP4 DUP2 SLOAD DUP2 LT PUSH2 0x1997 JUMPI PUSH2 0x1997 PUSH2 0x225F JUMP JUMPDEST PUSH1 0x0 SWAP2 DUP3 MSTORE PUSH1 0x20 DUP1 DUP4 KECCAK256 SWAP1 SWAP2 ADD SWAP3 SWAP1 SWAP3 SSTORE DUP3 DUP2 MSTORE PUSH1 0x9 SWAP1 SWAP2 MSTORE PUSH1 0x40 DUP1 DUP3 KECCAK256 DUP5 SWAP1 SSTORE DUP6 DUP3 MSTORE DUP2 KECCAK256 SSTORE PUSH1 0x8 DUP1 SLOAD DUP1 PUSH2 0x19CF JUMPI PUSH2 0x19CF PUSH2 0x2249 JUMP JUMPDEST PUSH1 0x1 SWAP1 SUB DUP2 DUP2 SWAP1 PUSH1 0x0 MSTORE PUSH1 0x20 PUSH1 0x0 KECCAK256 ADD PUSH1 0x0 SWAP1 SSTORE SWAP1 SSTORE POP POP POP POP JUMP JUMPDEST PUSH1 0x0 PUSH2 0x19F6 DUP4 PUSH2 0xC7A JUMP JUMPDEST PUSH1 0x1 PUSH1 0x1 PUSH1 0xA0 SHL SUB SWAP1 SWAP4 AND PUSH1 0x0 SWAP1 DUP2 MSTORE PUSH1 0x6 PUSH1 0x20 SWAP1 DUP2 MSTORE PUSH1 0x40 DUP1 DUP4 KECCAK256 DUP7 DUP5 MSTORE DUP3 MSTORE DUP1 DUP4 KECCAK256 DUP6 SWAP1 SSTORE SWAP4 DUP3 MSTORE PUSH1 0x7 SWAP1 MSTORE SWAP2 SWAP1 SWAP2 KECCAK256 SWAP2 SWAP1 SWAP2 SSTORE POP JUMP JUMPDEST PUSH1 0x1 PUSH1 0x1 PUSH1 0xA0 SHL SUB DUP3 AND PUSH2 0x1A85 JUMPI PUSH1 0x40 MLOAD PUSH3 0x461BCD PUSH1 0xE5 SHL DUP2 MSTORE PUSH1 0x20 PUSH1 0x4 DUP3 ADD DUP2 SWAP1 MSTORE PUSH1 0x24 DUP3 ADD MSTORE PUSH32 0x4552433732313A206D696E7420746F20746865207A65726F2061646472657373 PUSH1 0x44 DUP3 ADD MSTORE PUSH1 0x64 ADD PUSH2 0x685 JUMP JUMPDEST PUSH1 0x0 DUP2 DUP2 MSTORE PUSH1 0x2 PUSH1 0x20 MSTORE PUSH1 0x40 SWAP1 KECCAK256 SLOAD PUSH1 0x1 PUSH1 0x1 PUSH1 0xA0 SHL SUB AND ISZERO PUSH2 0x1AEA JUMPI PUSH1 0x40 MLOAD PUSH3 0x461BCD PUSH1 0xE5 SHL DUP2 MSTORE PUSH1 0x20 PUSH1 0x4 DUP3 ADD MSTORE PUSH1 0x1C PUSH1 0x24 DUP3 ADD MSTORE PUSH32 0x4552433732313A20746F6B656E20616C7265616479206D696E74656400000000 PUSH1 0x44 DUP3 ADD MSTORE PUSH1 0x64 ADD PUSH2 0x685 JUMP JUMPDEST PUSH2 0x1AF6 PUSH1 0x0 DUP4 DUP4 PUSH2 0x16A7 JUMP JUMPDEST PUSH1 0x1 PUSH1 0x1 PUSH1 0xA0 SHL SUB DUP3 AND PUSH1 0x0 SWAP1 DUP2 MSTORE PUSH1 0x3 PUSH1 0x20 MSTORE PUSH1 0x40 DUP2 KECCAK256 DUP1 SLOAD PUSH1 0x1 SWAP3 SWAP1 PUSH2 0x1B1F SWAP1 DUP5 SWAP1 PUSH2 0x2125 JUMP JUMPDEST SWAP1 SWAP2 SSTORE POP POP PUSH1 0x0 DUP2 DUP2 MSTORE PUSH1 0x2 PUSH1 0x20 MSTORE PUSH1 0x40 DUP1 DUP3 KECCAK256 DUP1 SLOAD PUSH1 0x1 PUSH1 0x1 PUSH1 0xA0 SHL SUB NOT AND PUSH1 0x1 PUSH1 0x1 PUSH1 0xA0 SHL SUB DUP7 AND SWAP1 DUP2 OR SWAP1 SWAP2 SSTORE SWAP1 MLOAD DUP4 SWAP3 SWAP1 PUSH32 0xDDF252AD1BE2C89B69C2B068FC378DAA952BA7F163C4A11628F55A4DF523B3EF SWAP1 DUP3 SWAP1 LOG4 POP POP JUMP JUMPDEST DUP3 DUP1 SLOAD PUSH2 0x1B89 SWAP1 PUSH2 0x21B3 JUMP JUMPDEST SWAP1 PUSH1 0x0 MSTORE PUSH1 0x20 PUSH1 0x0 KECCAK256 SWAP1 PUSH1 0x1F ADD PUSH1 0x20 SWAP1 DIV DUP2 ADD SWAP3 DUP3 PUSH2 0x1BAB JUMPI PUSH1 0x0 DUP6 SSTORE PUSH2 0x1BF1 JUMP JUMPDEST DUP3 PUSH1 0x1F LT PUSH2 0x1BC4 JUMPI DUP1 MLOAD PUSH1 0xFF NOT AND DUP4 DUP1 ADD OR DUP6 SSTORE PUSH2 0x1BF1 JUMP JUMPDEST DUP3 DUP1 ADD PUSH1 0x1 ADD DUP6 SSTORE DUP3 ISZERO PUSH2 0x1BF1 JUMPI SWAP2 DUP3 ADD JUMPDEST DUP3 DUP2 GT ISZERO PUSH2 0x1BF1 JUMPI DUP3 MLOAD DUP3 SSTORE SWAP2 PUSH1 0x20 ADD SWAP2 SWAP1 PUSH1 0x1 ADD SWAP1 PUSH2 0x1BD6 JUMP JUMPDEST POP PUSH2 0x1BFD SWAP3 SWAP2 POP PUSH2 0x1C01 JUMP JUMPDEST POP SWAP1 JUMP JUMPDEST JUMPDEST DUP1 DUP3 GT ISZERO PUSH2 0x1BFD JUMPI PUSH1 0x0 DUP2 SSTORE PUSH1 0x1 ADD PUSH2 0x1C02 JUMP JUMPDEST PUSH1 0x0 PUSH8 0xFFFFFFFFFFFFFFFF DUP1 DUP5 GT ISZERO PUSH2 0x1C31 JUMPI PUSH2 0x1C31 PUSH2 0x2275 JUMP JUMPDEST PUSH1 0x40 MLOAD PUSH1 0x1F DUP6 ADD PUSH1 0x1F NOT SWAP1 DUP2 AND PUSH1 0x3F ADD AND DUP2 ADD SWAP1 DUP3 DUP3 GT DUP2 DUP4 LT OR ISZERO PUSH2 0x1C59 JUMPI PUSH2 0x1C59 PUSH2 0x2275 JUMP JUMPDEST DUP2 PUSH1 0x40 MSTORE DUP1 SWAP4 POP DUP6 DUP2 MSTORE DUP7 DUP7 DUP7 ADD GT ISZERO PUSH2 0x1C72 JUMPI PUSH1 0x0 DUP1 REVERT JUMPDEST DUP6 DUP6 PUSH1 0x20 DUP4 ADD CALLDATACOPY PUSH1 0x0 PUSH1 0x20 DUP8 DUP4 ADD ADD MSTORE POP POP POP SWAP4 SWAP3 POP POP POP JUMP JUMPDEST DUP1 CALLDATALOAD PUSH1 0x1 PUSH1 0x1 PUSH1 0xA0 SHL SUB DUP2 AND DUP2 EQ PUSH2 0x1CA3 JUMPI PUSH1 0x0 DUP1 REVERT JUMPDEST SWAP2 SWAP1 POP JUMP JUMPDEST DUP1 CALLDATALOAD DUP1 ISZERO ISZERO DUP2 EQ PUSH2 0x1CA3 JUMPI PUSH1 0x0 DUP1 REVERT JUMPDEST PUSH1 0x0 PUSH1 0x20 DUP3 DUP5 SUB SLT ISZERO PUSH2 0x1CCA JUMPI PUSH1 0x0 DUP1 REVERT JUMPDEST PUSH2 0x10BF DUP3 PUSH2 0x1C8C JUMP JUMPDEST PUSH1 0x0 DUP1 PUSH1 0x40 DUP4 DUP6 SUB SLT ISZERO PUSH2 0x1CE6 JUMPI PUSH1 0x0 DUP1 REVERT JUMPDEST PUSH2 0x1CEF DUP4 PUSH2 0x1C8C JUMP JUMPDEST SWAP2 POP PUSH2 0x1CFD PUSH1 0x20 DUP5 ADD PUSH2 0x1C8C JUMP JUMPDEST SWAP1 POP SWAP3 POP SWAP3 SWAP1 POP JUMP JUMPDEST PUSH1 0x0 DUP1 PUSH1 0x0 PUSH1 0x60 DUP5 DUP7 SUB SLT ISZERO PUSH2 0x1D1B JUMPI PUSH1 0x0 DUP1 REVERT JUMPDEST PUSH2 0x1D24 DUP5 PUSH2 0x1C8C JUMP JUMPDEST SWAP3 POP PUSH2 0x1D32 PUSH1 0x20 DUP6 ADD PUSH2 0x1C8C JUMP JUMPDEST SWAP2 POP PUSH1 0x40 DUP5 ADD CALLDATALOAD SWAP1 POP SWAP3 POP SWAP3 POP SWAP3 JUMP JUMPDEST PUSH1 0x0 DUP1 PUSH1 0x0 DUP1 PUSH1 0x80 DUP6 DUP8 SUB SLT ISZERO PUSH2 0x1D58 JUMPI PUSH1 0x0 DUP1 REVERT JUMPDEST PUSH2 0x1D61 DUP6 PUSH2 0x1C8C JUMP JUMPDEST SWAP4 POP PUSH2 0x1D6F PUSH1 0x20 DUP7 ADD PUSH2 0x1C8C JUMP JUMPDEST SWAP3 POP PUSH1 0x40 DUP6 ADD CALLDATALOAD SWAP2 POP PUSH1 0x60 DUP6 ADD CALLDATALOAD PUSH8 0xFFFFFFFFFFFFFFFF DUP2 GT ISZERO PUSH2 0x1D92 JUMPI PUSH1 0x0 DUP1 REVERT JUMPDEST DUP6 ADD PUSH1 0x1F DUP2 ADD DUP8 SGT PUSH2 0x1DA3 JUMPI PUSH1 0x0 DUP1 REVERT JUMPDEST PUSH2 0x1DB2 DUP8 DUP3 CALLDATALOAD PUSH1 0x20 DUP5 ADD PUSH2 0x1C16 JUMP JUMPDEST SWAP2 POP POP SWAP3 SWAP6 SWAP2 SWAP5 POP SWAP3 POP JUMP JUMPDEST PUSH1 0x0 DUP1 PUSH1 0x40 DUP4 DUP6 SUB SLT ISZERO PUSH2 0x1DD1 JUMPI PUSH1 0x0 DUP1 REVERT JUMPDEST PUSH2 0x1DDA DUP4 PUSH2 0x1C8C JUMP JUMPDEST SWAP2 POP PUSH2 0x1CFD PUSH1 0x20 DUP5 ADD PUSH2 0x1CA8 JUMP JUMPDEST PUSH1 0x0 DUP1 PUSH1 0x40 DUP4 DUP6 SUB SLT ISZERO PUSH2 0x1DFB JUMPI PUSH1 0x0 DUP1 REVERT JUMPDEST PUSH2 0x1E04 DUP4 PUSH2 0x1C8C JUMP JUMPDEST SWAP5 PUSH1 0x20 SWAP4 SWAP1 SWAP4 ADD CALLDATALOAD SWAP4 POP POP POP JUMP JUMPDEST PUSH1 0x0 PUSH1 0x20 DUP3 DUP5 SUB SLT ISZERO PUSH2 0x1E24 JUMPI PUSH1 0x0 DUP1 REVERT JUMPDEST PUSH2 0x10BF DUP3 PUSH2 0x1CA8 JUMP JUMPDEST PUSH1 0x0 PUSH1 0x20 DUP3 DUP5 SUB SLT ISZERO PUSH2 0x1E3F JUMPI PUSH1 0x0 DUP1 REVERT JUMPDEST DUP2 CALLDATALOAD PUSH2 0x10BF DUP2 PUSH2 0x228B JUMP JUMPDEST PUSH1 0x0 PUSH1 0x20 DUP3 DUP5 SUB SLT ISZERO PUSH2 0x1E5C JUMPI PUSH1 0x0 DUP1 REVERT JUMPDEST DUP2 MLOAD PUSH2 0x10BF DUP2 PUSH2 0x228B JUMP JUMPDEST PUSH1 0x0 PUSH1 0x20 DUP3 DUP5 SUB SLT ISZERO PUSH2 0x1E79 JUMPI PUSH1 0x0 DUP1 REVERT JUMPDEST DUP2 CALLDATALOAD PUSH8 0xFFFFFFFFFFFFFFFF DUP2 GT ISZERO PUSH2 0x1E90 JUMPI PUSH1 0x0 DUP1 REVERT JUMPDEST DUP3 ADD PUSH1 0x1F DUP2 ADD DUP5 SGT PUSH2 0x1EA1 JUMPI PUSH1 0x0 DUP1 REVERT JUMPDEST PUSH2 0x1348 DUP5 DUP3 CALLDATALOAD PUSH1 0x20 DUP5 ADD PUSH2 0x1C16 JUMP JUMPDEST PUSH1 0x0 PUSH1 0x20 DUP3 DUP5 SUB SLT ISZERO PUSH2 0x1EC2 JUMPI PUSH1 0x0 DUP1 REVERT JUMPDEST POP CALLDATALOAD SWAP2 SWAP1 POP JUMP JUMPDEST PUSH1 0x0 DUP2 MLOAD DUP1 DUP5 MSTORE PUSH2 0x1EE1 DUP2 PUSH1 0x20 DUP7 ADD PUSH1 0x20 DUP7 ADD PUSH2 0x2187 JUMP JUMPDEST PUSH1 0x1F ADD PUSH1 0x1F NOT AND SWAP3 SWAP1 SWAP3 ADD PUSH1 0x20 ADD SWAP3 SWAP2 POP POP JUMP JUMPDEST PUSH1 0x0 DUP5 MLOAD PUSH1 0x20 PUSH2 0x1F08 DUP3 DUP6 DUP4 DUP11 ADD PUSH2 0x2187 JUMP JUMPDEST DUP6 MLOAD SWAP2 DUP5 ADD SWAP2 PUSH2 0x1F1B DUP2 DUP5 DUP5 DUP11 ADD PUSH2 0x2187 JUMP JUMPDEST DUP6 SLOAD SWAP3 ADD SWAP2 PUSH1 0x0 SWAP1 PUSH1 0x1 DUP2 DUP2 SHR SWAP1 DUP1 DUP4 AND DUP1 PUSH2 0x1F38 JUMPI PUSH1 0x7F DUP4 AND SWAP3 POP JUMPDEST DUP6 DUP4 LT DUP2 EQ ISZERO PUSH2 0x1F56 JUMPI PUSH4 0x4E487B71 PUSH1 0xE0 SHL DUP6 MSTORE PUSH1 0x22 PUSH1 0x4 MSTORE PUSH1 0x24 DUP6 REVERT JUMPDEST DUP1 DUP1 ISZERO PUSH2 0x1F6A JUMPI PUSH1 0x1 DUP2 EQ PUSH2 0x1F7B JUMPI PUSH2 0x1FA8 JUMP JUMPDEST PUSH1 0xFF NOT DUP6 AND DUP9 MSTORE DUP4 DUP9 ADD SWAP6 POP PUSH2 0x1FA8 JUMP JUMPDEST PUSH1 0x0 DUP12 DUP2 MSTORE PUSH1 0x20 SWAP1 KECCAK256 PUSH1 0x0 JUMPDEST DUP6 DUP2 LT ISZERO PUSH2 0x1FA0 JUMPI DUP2 SLOAD DUP11 DUP3 ADD MSTORE SWAP1 DUP5 ADD SWAP1 DUP9 ADD PUSH2 0x1F87 JUMP JUMPDEST POP POP DUP4 DUP9 ADD SWAP6 POP JUMPDEST POP SWAP4 SWAP12 SWAP11 POP POP POP POP POP POP POP POP POP POP POP JUMP JUMPDEST PUSH1 0x1 PUSH1 0x1 PUSH1 0xA0 SHL SUB DUP6 DUP2 AND DUP3 MSTORE DUP5 AND PUSH1 0x20 DUP3 ADD MSTORE PUSH1 0x40 DUP2 ADD DUP4 SWAP1 MSTORE PUSH1 0x80 PUSH1 0x60 DUP3 ADD DUP2 SWAP1 MSTORE PUSH1 0x0 SWAP1 PUSH2 0x1FEC SWAP1 DUP4 ADD DUP5 PUSH2 0x1EC9 JUMP JUMPDEST SWAP7 SWAP6 POP POP POP POP POP POP JUMP JUMPDEST PUSH1 0x20 DUP1 DUP3 MSTORE DUP3 MLOAD DUP3 DUP3 ADD DUP2 SWAP1 MSTORE PUSH1 0x0 SWAP2 SWAP1 DUP5 DUP3 ADD SWAP1 PUSH1 0x40 DUP6 ADD SWAP1 DUP5 JUMPDEST DUP2 DUP2 LT ISZERO PUSH2 0x202E JUMPI DUP4 MLOAD DUP4 MSTORE SWAP3 DUP5 ADD SWAP3 SWAP2 DUP5 ADD SWAP2 PUSH1 0x1 ADD PUSH2 0x2012 JUMP JUMPDEST POP SWAP1 SWAP7 SWAP6 POP POP POP POP POP POP JUMP JUMPDEST PUSH1 0x20 DUP2 MSTORE PUSH1 0x0 PUSH2 0x10BF PUSH1 0x20 DUP4 ADD DUP5 PUSH2 0x1EC9 JUMP JUMPDEST PUSH1 0x20 DUP1 DUP3 MSTORE PUSH1 0x32 SWAP1 DUP3 ADD MSTORE PUSH32 0x4552433732313A207472616E7366657220746F206E6F6E204552433732315265 PUSH1 0x40 DUP3 ADD MSTORE PUSH18 0x31B2B4BB32B91034B6B83632B6B2B73A32B9 PUSH1 0x71 SHL PUSH1 0x60 DUP3 ADD MSTORE PUSH1 0x80 ADD SWAP1 JUMP JUMPDEST PUSH1 0x20 DUP1 DUP3 MSTORE DUP2 DUP2 ADD MSTORE PUSH32 0x4F776E61626C653A2063616C6C6572206973206E6F7420746865206F776E6572 PUSH1 0x40 DUP3 ADD MSTORE PUSH1 0x60 ADD SWAP1 JUMP JUMPDEST PUSH1 0x20 DUP1 DUP3 MSTORE PUSH1 0x31 SWAP1 DUP3 ADD MSTORE PUSH32 0x4552433732313A207472616E736665722063616C6C6572206973206E6F74206F PUSH1 0x40 DUP3 ADD MSTORE PUSH17 0x1DDB995C881B9BDC88185C1C1C9BDD9959 PUSH1 0x7A SHL PUSH1 0x60 DUP3 ADD MSTORE PUSH1 0x80 ADD SWAP1 JUMP JUMPDEST PUSH1 0x0 DUP3 NOT DUP3 GT ISZERO PUSH2 0x2138 JUMPI PUSH2 0x2138 PUSH2 0x221D JUMP JUMPDEST POP ADD SWAP1 JUMP JUMPDEST PUSH1 0x0 DUP3 PUSH2 0x214C JUMPI PUSH2 0x214C PUSH2 0x2233 JUMP JUMPDEST POP DIV SWAP1 JUMP JUMPDEST PUSH1 0x0 DUP2 PUSH1 0x0 NOT DIV DUP4 GT DUP3 ISZERO ISZERO AND ISZERO PUSH2 0x216B JUMPI PUSH2 0x216B PUSH2 0x221D JUMP JUMPDEST POP MUL SWAP1 JUMP JUMPDEST PUSH1 0x0 DUP3 DUP3 LT ISZERO PUSH2 0x2182 JUMPI PUSH2 0x2182 PUSH2 0x221D JUMP JUMPDEST POP SUB SWAP1 JUMP JUMPDEST PUSH1 0x0 JUMPDEST DUP4 DUP2 LT ISZERO PUSH2 0x21A2 JUMPI DUP2 DUP2 ADD MLOAD DUP4 DUP3 ADD MSTORE PUSH1 0x20 ADD PUSH2 0x218A JUMP JUMPDEST DUP4 DUP2 GT ISZERO PUSH2 0xF54 JUMPI POP POP PUSH1 0x0 SWAP2 ADD MSTORE JUMP JUMPDEST PUSH1 0x1 DUP2 DUP2 SHR SWAP1 DUP3 AND DUP1 PUSH2 0x21C7 JUMPI PUSH1 0x7F DUP3 AND SWAP2 POP JUMPDEST PUSH1 0x20 DUP3 LT DUP2 EQ ISZERO PUSH2 0x21E8 JUMPI PUSH4 0x4E487B71 PUSH1 0xE0 SHL PUSH1 0x0 MSTORE PUSH1 0x22 PUSH1 0x4 MSTORE PUSH1 0x24 PUSH1 0x0 REVERT JUMPDEST POP SWAP2 SWAP1 POP JUMP JUMPDEST PUSH1 0x0 PUSH1 0x0 NOT DUP3 EQ ISZERO PUSH2 0x2202 JUMPI PUSH2 0x2202 PUSH2 0x221D JUMP JUMPDEST POP PUSH1 0x1 ADD SWAP1 JUMP JUMPDEST PUSH1 0x0 DUP3 PUSH2 0x2218 JUMPI PUSH2 0x2218 PUSH2 0x2233 JUMP JUMPDEST POP MOD SWAP1 JUMP JUMPDEST PUSH4 0x4E487B71 PUSH1 0xE0 SHL PUSH1 0x0 MSTORE PUSH1 0x11 PUSH1 0x4 MSTORE PUSH1 0x24 PUSH1 0x0 REVERT JUMPDEST PUSH4 0x4E487B71 PUSH1 0xE0 SHL PUSH1 0x0 MSTORE PUSH1 0x12 PUSH1 0x4 MSTORE PUSH1 0x24 PUSH1 0x0 REVERT JUMPDEST PUSH4 0x4E487B71 PUSH1 0xE0 SHL PUSH1 0x0 MSTORE PUSH1 0x31 PUSH1 0x4 MSTORE PUSH1 0x24 PUSH1 0x0 REVERT JUMPDEST PUSH4 0x4E487B71 PUSH1 0xE0 SHL PUSH1 0x0 MSTORE PUSH1 0x32 PUSH1 0x4 MSTORE PUSH1 0x24 PUSH1 0x0 REVERT JUMPDEST PUSH4 0x4E487B71 PUSH1 0xE0 SHL PUSH1 0x0 MSTORE PUSH1 0x41 PUSH1 0x4 MSTORE PUSH1 0x24 PUSH1 0x0 REVERT JUMPDEST PUSH1 0x1 PUSH1 0x1 PUSH1 0xE0 SHL SUB NOT DUP2 AND DUP2 EQ PUSH2 0xA40 JUMPI PUSH1 0x0 DUP1 REVERT INVALID LOG2 PUSH5 0x6970667358 0x22 SLT KECCAK256 0xD0 BALANCE SWAP1 MLOAD KECCAK256 0xC9 XOR 0xE3 DUP6 0xBA AND CREATE 0xEB 0xE0 PUSH30 0x5F02BEABE92DECF2DC6EEC4A77822EE17864736F6C634300080700330000 "
				},
				"gasEstimates": {
					"creation": {
						"codeDepositCost": "1783800",
						"executionCost": "infinite",
						"totalCost": "infinite"
					},
					"external": {
						"approve(address,uint256)": "infinite",
						"balanceOf(address)": "2679",
						"baseExtension()": "infinite",
						"cost()": "2363",
						"getApproved(uint256)": "4805",
						"isApprovedForAll(address,address)": "infinite",
						"maxMintAmount()": "2407",
						"maxSupply()": "2361",
						"mint(uint256)": "infinite",
						"name()": "infinite",
						"owner()": "2398",
						"ownerOf(uint256)": "2624",
						"pause(bool)": "26738",
						"paused()": "2345",
						"renounceOwnership()": "28229",
						"reveal()": "26575",
						"revealed()": "2421",
						"safeTransferFrom(address,address,uint256)": "infinite",
						"safeTransferFrom(address,address,uint256,bytes)": "infinite",
						"setApprovalForAll(address,bool)": "infinite",
						"setBaseExtension(string)": "infinite",
						"setBaseURI(string)": "infinite",
						"setCost(uint256)": "24531",
						"setmaxMintAmount(uint256)": "24509",
						"supportsInterface(bytes4)": "infinite",
						"symbol()": "infinite",
						"tokenByIndex(uint256)": "6804",
						"tokenOfOwnerByIndex(address,uint256)": "4998",
						"tokenURI(uint256)": "infinite",
						"totalSupply()": "2382",
						"transferFrom(address,address,uint256)": "infinite",
						"transferOwnership(address)": "28444",
						"walletOfOwner(address)": "infinite",
						"withdraw()": "infinite"
					},
					"internal": {
						"_baseURI()": "infinite"
					}
				},
				"methodIdentifiers": {
					"approve(address,uint256)": "095ea7b3",
					"balanceOf(address)": "70a08231",
					"baseExtension()": "c6682862",
					"cost()": "13faede6",
					"getApproved(uint256)": "081812fc",
					"isApprovedForAll(address,address)": "e985e9c5",
					"maxMintAmount()": "239c70ae",
					"maxSupply()": "d5abeb01",
					"mint(uint256)": "a0712d68",
					"name()": "06fdde03",
					"owner()": "8da5cb5b",
					"ownerOf(uint256)": "6352211e",
					"pause(bool)": "02329a29",
					"paused()": "5c975abb",
					"renounceOwnership()": "715018a6",
					"reveal()": "a475b5dd",
					"revealed()": "51830227",
					"safeTransferFrom(address,address,uint256)": "42842e0e",
					"safeTransferFrom(address,address,uint256,bytes)": "b88d4fde",
					"setApprovalForAll(address,bool)": "a22cb465",
					"setBaseExtension(string)": "da3ef23f",
					"setBaseURI(string)": "55f804b3",
					"setCost(uint256)": "44a0d68a",
					"setmaxMintAmount(uint256)": "7f00c7a6",
					"supportsInterface(bytes4)": "01ffc9a7",
					"symbol()": "95d89b41",
					"tokenByIndex(uint256)": "4f6ccce7",
					"tokenOfOwnerByIndex(address,uint256)": "2f745c59",
					"tokenURI(uint256)": "c87b56dd",
					"totalSupply()": "18160ddd",
					"transferFrom(address,address,uint256)": "23b872dd",
					"transferOwnership(address)": "f2fde38b",
					"walletOfOwner(address)": "438b6300",
					"withdraw()": "3ccfd60b"
				}
			},
			"storageLayout": {
				"storage": [
					{
						"astId": 755,
						"contract": "contracts/GunzoZuYukiKoyano.sol:GunzoZuYukiKoyano",
						"label": "_name",
						"offset": 0,
						"slot": "0",
						"type": "t_string_storage"
					},
					{
						"astId": 757,
						"contract": "contracts/GunzoZuYukiKoyano.sol:GunzoZuYukiKoyano",
						"label": "_symbol",
						"offset": 0,
						"slot": "1",
						"type": "t_string_storage"
					},
					{
						"astId": 761,
						"contract": "contracts/GunzoZuYukiKoyano.sol:GunzoZuYukiKoyano",
						"label": "_owners",
						"offset": 0,
						"slot": "2",
						"type": "t_mapping(t_uint256,t_address)"
					},
					{
						"astId": 765,
						"contract": "contracts/GunzoZuYukiKoyano.sol:GunzoZuYukiKoyano",
						"label": "_balances",
						"offset": 0,
						"slot": "3",
						"type": "t_mapping(t_address,t_uint256)"
					},
					{
						"astId": 769,
						"contract": "contracts/GunzoZuYukiKoyano.sol:GunzoZuYukiKoyano",
						"label": "_tokenApprovals",
						"offset": 0,
						"slot": "4",
						"type": "t_mapping(t_uint256,t_address)"
					},
					{
						"astId": 775,
						"contract": "contracts/GunzoZuYukiKoyano.sol:GunzoZuYukiKoyano",
						"label": "_operatorApprovals",
						"offset": 0,
						"slot": "5",
						"type": "t_mapping(t_address,t_mapping(t_address,t_bool))"
					},
					{
						"astId": 1557,
						"contract": "contracts/GunzoZuYukiKoyano.sol:GunzoZuYukiKoyano",
						"label": "_ownedTokens",
						"offset": 0,
						"slot": "6",
						"type": "t_mapping(t_address,t_mapping(t_uint256,t_uint256))"
					},
					{
						"astId": 1561,
						"contract": "contracts/GunzoZuYukiKoyano.sol:GunzoZuYukiKoyano",
						"label": "_ownedTokensIndex",
						"offset": 0,
						"slot": "7",
						"type": "t_mapping(t_uint256,t_uint256)"
					},
					{
						"astId": 1564,
						"contract": "contracts/GunzoZuYukiKoyano.sol:GunzoZuYukiKoyano",
						"label": "_allTokens",
						"offset": 0,
						"slot": "8",
						"type": "t_array(t_uint256)dyn_storage"
					},
					{
						"astId": 1568,
						"contract": "contracts/GunzoZuYukiKoyano.sol:GunzoZuYukiKoyano",
						"label": "_allTokensIndex",
						"offset": 0,
						"slot": "9",
						"type": "t_mapping(t_uint256,t_uint256)"
					},
					{
						"astId": 1886,
						"contract": "contracts/GunzoZuYukiKoyano.sol:GunzoZuYukiKoyano",
						"label": "_owner",
						"offset": 0,
						"slot": "10",
						"type": "t_address"
					},
					{
						"astId": 1992,
						"contract": "contracts/GunzoZuYukiKoyano.sol:GunzoZuYukiKoyano",
						"label": "baseURI",
						"offset": 0,
						"slot": "11",
						"type": "t_string_storage"
					},
					{
						"astId": 1995,
						"contract": "contracts/GunzoZuYukiKoyano.sol:GunzoZuYukiKoyano",
						"label": "baseExtension",
						"offset": 0,
						"slot": "12",
						"type": "t_string_storage"
					},
					{
						"astId": 1998,
						"contract": "contracts/GunzoZuYukiKoyano.sol:GunzoZuYukiKoyano",
						"label": "cost",
						"offset": 0,
						"slot": "13",
						"type": "t_uint256"
					},
					{
						"astId": 2001,
						"contract": "contracts/GunzoZuYukiKoyano.sol:GunzoZuYukiKoyano",
						"label": "maxSupply",
						"offset": 0,
						"slot": "14",
						"type": "t_uint256"
					},
					{
						"astId": 2004,
						"contract": "contracts/GunzoZuYukiKoyano.sol:GunzoZuYukiKoyano",
						"label": "maxMintAmount",
						"offset": 0,
						"slot": "15",
						"type": "t_uint256"
					},
					{
						"astId": 2007,
						"contract": "contracts/GunzoZuYukiKoyano.sol:GunzoZuYukiKoyano",
						"label": "paused",
						"offset": 0,
						"slot": "16",
						"type": "t_bool"
					},
					{
						"astId": 2010,
						"contract": "contracts/GunzoZuYukiKoyano.sol:GunzoZuYukiKoyano",
						"label": "revealed",
						"offset": 1,
						"slot": "16",
						"type": "t_bool"
					}
				],
				"types": {
					"t_address": {
						"encoding": "inplace",
						"label": "address",
						"numberOfBytes": "20"
					},
					"t_array(t_uint256)dyn_storage": {
						"base": "t_uint256",
						"encoding": "dynamic_array",
						"label": "uint256[]",
						"numberOfBytes": "32"
					},
					"t_bool": {
						"encoding": "inplace",
						"label": "bool",
						"numberOfBytes": "1"
					},
					"t_mapping(t_address,t_bool)": {
						"encoding": "mapping",
						"key": "t_address",
						"label": "mapping(address => bool)",
						"numberOfBytes": "32",
						"value": "t_bool"
					},
					"t_mapping(t_address,t_mapping(t_address,t_bool))": {
						"encoding": "mapping",
						"key": "t_address",
						"label": "mapping(address => mapping(address => bool))",
						"numberOfBytes": "32",
						"value": "t_mapping(t_address,t_bool)"
					},
					"t_mapping(t_address,t_mapping(t_uint256,t_uint256))": {
						"encoding": "mapping",
						"key": "t_address",
						"label": "mapping(address => mapping(uint256 => uint256))",
						"numberOfBytes": "32",
						"value": "t_mapping(t_uint256,t_uint256)"
					},
					"t_mapping(t_address,t_uint256)": {
						"encoding": "mapping",
						"key": "t_address",
						"label": "mapping(address => uint256)",
						"numberOfBytes": "32",
						"value": "t_uint256"
					},
					"t_mapping(t_uint256,t_address)": {
						"encoding": "mapping",
						"key": "t_uint256",
						"label": "mapping(uint256 => address)",
						"numberOfBytes": "32",
						"value": "t_address"
					},
					"t_mapping(t_uint256,t_uint256)": {
						"encoding": "mapping",
						"key": "t_uint256",
						"label": "mapping(uint256 => uint256)",
						"numberOfBytes": "32",
						"value": "t_uint256"
					},
					"t_string_storage": {
						"encoding": "bytes",
						"label": "string",
						"numberOfBytes": "32"
					},
					"t_uint256": {
						"encoding": "inplace",
						"label": "uint256",
						"numberOfBytes": "32"
					}
				}
			},
			"userdoc": {
				"kind": "user",
				"methods": {},
				"version": 1
			}
		}
	}
}